:020000040800F2
:1000000000F40020D10200083F4C0008E92300085A
:100010003D4C0008091A000845580008000000007F
:10002000000000000000000000000000390200088D
:100030006D210008000000007D020008EB4D000863
:10004000EB020008EB020008EB020008EB020008DC
:10005000EB020008EB020008EB020008EB020008CC
:10006000EB020008EB020008EB020008EB020008BC
:10007000EB020008EB020008EB020008EB020008AC
:10008000EB020008EB020008EB020008EB0200089C
:10009000EB0200080D1A0008EB020008EB02000852
:1000A000EB020008D54F0008EB020008EB02000845
:1000B000FD4F0008EB020008C5510008EB020008E4
:1000C000EB020008EB020008EB020008EB0200085C
:1000D000EB02000885560008EB020008EB0200085E
:1000E000EB020008EB020008EB020008EB0200083C
:1000F000EB020008EB020008EB020008EB0200082C
:10010000EB020008EB020008FD510008EB020008BA
:10011000EB020008EB0200080D520008EB02000899
:10012000EB020008EB020008EB020008EB020008FB
:1001300000F002F800F070F80AA090E8000C824489
:100140008344AAF10107DA4501D100F065F8AFF266
:10015000090EBAE80F0013F0010F18BFFB1A43F0A5
:100160000103184748750300687503000A444FF0FF
:10017000000C10F8013B13F0070408BF10F8014B06
:100180001D1108BF10F8015B641E05D010F8016B4B
:10019000641E01F8016BF9D113F0080F1EBF10F8AF
:1001A000014BAD1C0C1B09D16D1E58BF01F801CBD2
:1001B000FAD505E014F8016B01F8016B6D1EF9D555
:1001C0009142D6D37047000000230024002500266A
:1001D000103A28BF78C1FBD8520728BF30C148BFAA
:1001E0000B607047662931F0B482642900F05281B7
:1001F000782900F08B81732900F0E3850020704797
:100200001FB500F049FE04000020002130F0B6FCCC
:10021000E0601FBD10B510BD00F042FF1146FFF7B2
:10022000EFFF29F039FC00F060FF03B4FFF7F2FFA5
:1002300003BC07F029FE0000224B19680868B0E8EB
:10024000F00F80F30988BFF36F8F4FF0000080F349
:1002500011884EF00D0E704700000000064800683F
:10026000006880F3088862B661B6BFF34F8FBFF3B2
:100270006F8F00DF00BF00BF08ED00E0EFF30980E3
:10028000BFF36F8F0F4B1A6820E9F00F106008B5AD
:100290004FF0500080F31188BFF34F8FBFF36F8F83
:1002A0002FF0F8FB4FF0000080F31188BDE8084004
:1002B00019680868B0E8F00F80F30988BFF36F8F02
:1002C000704700BFC4000020EFF3058070470000B6
:1002D0000948804709480047FEE7FEE7FEE7FEE7DA
:1002E000FEE7FEE7FEE7FEE7FEE7FEE70448054916
:1002F000054A064B70470000014E00083101000816
:1003000000EA002000F4002000EC002000EC0020B7
:10031000704753EA020C00F069802DE9F04B4FF072
:100320000006002B1FBFB3FA83F503FA05F424FA85
:1003300005F65E4012BF1643B2FA82F502FA05F4E2
:10034000C5F120051EBF22FA05FC44EA0C04203545
:1003500056EA044C4FEA144418BF641C4FF00008DE
:100360004FF00009904271EB030C39D3002919BFFB
:10037000B1FA81F701FA07F6B0FA80F700FA07F64A
:10038000C7F120071EBF20FA07FC46EA0C062037FB
:10039000B6FBF4FCA7EB0507103F07F01F0BCBF1F2
:1003A00020060CFA0BFB2CFA06F644BFB3460026D7
:1003B000202FA4BF5E464FF0000B5BEA060C08BF7F
:1003C0004FF0010B19EB0B09ABFB027C48EB060865
:1003D000C01B06FB02CC0BFB03CC71EB0C01C1E78D
:1003E0000B46024641464846BDE8F08B13B54FF038
:1003F00000004FF00001AFF30080BDE81C407047E3
:100400000FB4044910B503AA029800F0DFFC10BC39
:100410005DF814FB080000200FB41CB5074B06AABA
:100420007B4469460090059800F0A1FC00206946D5
:1004300000F0B0FC1CBC5DF814FB0000710900006A
:1004400070B50C460546012A05D02878800600D5EF
:10045000EA69002302E0012305E05B1C934202D21B
:10046000E05C0028F9D1A869E618C01AA861286ADA
:10047000184428622846AFF3008004E0D5E9012142
:1004800014F8010B9047B442F8D32846AFF300802C
:1004900070BD00002DE9F041064600241068752962
:1004A000314616A510D0AFF30080002802DA404292
:1004B00013A507E031688A0701D512A502E04907B4
:1004C00004D511A5012401E0AFF3008000210A2228
:1004D00006F1240709E0B0FBF2FCB0FBF2F302FBEB
:1004E0001C00303078541846491C0028F3D12346AC
:1004F0002A463046BDE8F04100F0CCB900000000CB
:100500002D0000002B0000002000000070B5044604
:100510000D4621461068AFF300802188090502D5F9
:100520000F4A7A4402E00E4A7A440E32002104F166
:10053000240305E000F00F060009965D5E54491C97
:100540000028F7D120780023000704D5702D02D0B1
:1005500009B1022311322046BDE8704000F09AB97B
:100560006E6B03002DE9F05F894604464FF0000AE8
:10057000DFF824B1FB44C0F820A02046E16888479A
:1005800000287DD0252806D0D4E901219047206A93
:10059000401C2062F1E700255F462046E16888475D
:1005A0002028064607DB312E05D2B81910F8200C9A
:1005B00008B10543F1E7A80701D525F00405C4F803
:1005C0001CA00027C4F818A02A2E09D0304605F038
:1005D0004EF938B304EB8708303EC8F8186019E0CC
:1005E00059F8041B204604EB87029161E1688847B3
:1005F000012F064618D1E069002820DA25F02005F1
:100600001DE0D8F8180000EB800006EB4000303801
:10061000C8F818002046E1688847064605F027F923
:100620000028EED1012F0AD02E2E08D12046E168F5
:1006300088477F1C0646022F45F02005C4DBA069D1
:10064000002803DA404245F00105A061E80701D027
:1006500025F01005A6B1A6F14100192802D82036D0
:1006600045F400654A463146204625604D46FFF771
:10067000B9FD60B1012807D0ED1D25F0070000E0AD
:1006800007E000F1080978E705F1040975E730464D
:100690007AE7206ABDE8F09F446B030040EA01035B
:1006A000024630B59B0710D14FF0013400E008C27C
:1006B00008C91D1B9D4315EAC41FF8D013F0FF01A4
:1006C00002F8011B0DD01B0AF8E711F8013B002BC3
:1006D00002F8013B05D011F8013B002B02F8013B69
:1006E000F3D130BD10B5431C02E010F8011B71B10D
:1006F0008107FAD14FF0013202C88C1A8C4314EAF8
:10070000C211F9D0C01A0A0603D0C01E10BDC01A0B
:1007100010BD0A0401D0801E10BD0902FCD0401E8D
:1007200010BD032A40F2308010F0030C00F0158059
:1007300011F8013BBCF1020F624498BF11F801CBE4
:1007400000F8013B38BF11F8013BA2F1040298BF49
:1007500000F801CB38BF00F8013B11F0030300F0B3
:100760004783083AC0F0088051F8043B083A51F832
:1007700004CBA0E80810F5E7121D5CBF51F8043B5C
:1007800040F8043BAFF30080D20724BF11F8013BCF
:1007900011F801CB48BF11F8012B24BF00F8013B31
:1007A00000F801CB48BF00F8012B704702F0FF03AF
:1007B00043EA032242EA024200F04EBB4FF000023D
:1007C00000B5134694469646203922BFA0E80C5047
:1007D000A0E80C50B1F12001BFF4F7AF090728BF22
:1007E000A0E80C5048BF0CC05DF804EB890028BF9E
:1007F00040F8042B08BF704748BF20F8022B11F0C7
:10080000804F18BF00F8012B704700004FF0013CEB
:1008100050F8042B51F8043B9A4221D1A2EB0C036F
:10082000934313EACC1317D150F8042B51F8043B2F
:100830009A4215D1A2EB0C03934313EACC130BD1CC
:1008400050F8042B51F8043B9A4209D1A2EB0C0357
:10085000934313EACC13DBD04FF00000704700BF86
:10086000D01A01BAB1FA81F101F0180122FA01F0AF
:10087000CB40C1F12001DBB2C0B2C01A2CFA01F3A7
:10088000D11A914311EAC311E6D1704770477047FE
:10089000704770472DE9F0470D4699469246044649
:1008A00000F124080168880604D5E06921F01001F0
:1008B000216000E00120A84201DD471B00E0002785
:1008C000A1697A1902EB0900081AA0612078C00614
:1008D00002D42046AFF30080002608E0D4E90121CD
:1008E0001AF806009047206A401C761C20624E458C
:1008F000F4DB2078C0060AD52046AFF3008006E07E
:10090000D4E9012130209047206A401C2062381E23
:10091000A7F10107F4DC07E0D4E9012118F805008C
:100920009047206A401C2062281EA5F10105F3DCD7
:100930002046AFF300802078000602D50220BDE8F3
:10094000F0870120FBE770472DE9FF4F0C461E465C
:100950004FF0FF378BB0D2E90001DDF860800A90DC
:100960008A46C1F30A5505B93D46002108464FF0B5
:100970000000BAF1000F00F4400005DA00EB80003F
:100980004FF4400101EA50004FEA9059B9F1010FCC
:1009900000DDB9460A9850EA4A000ED044F61050DD
:1009A000A5F2FF3545432F14B8F1000F1ED0754254
:1009B000291E1EDDC9F100021CE0B8F1010F4FF045
:1009C000000001D0302103E0F24305E02154401C37
:1009D000B042FBDB30460022002121540B99C1F8C4
:1009E0000880C1E900200FB0BDE8F08FBD1B6D1C71
:1009F000DEE74A4600DA694206A800F0D7FA06ABFD
:100A000093E8070003AB83E8070050460A9900F01B
:100A100075FB8DE80700A0F500501F380090039883
:100A2000002D0ADD42F21F014A460844002303A9B3
:100A30000390684600F0DEFD09E0A0F500504A464C
:100A40001F38002303A90390684600F0E8FD8DE8F5
:100A500007000004000C03D04FF0FF30410800E015
:100A60001046B8F1000F03D00022009215461EE098
:100A7000751E05D400F014FA303262556D1EF9D59A
:100A8000B3460122084302D000227F1C04E02078F4
:100A9000302801D100227F1E002A099784D01DE052
:100AA000112D07DA00F0FCF9303262556D1C50EA66
:100AB0000102F5D1084302D00098C8B10EE0002130
:100AC000681E05E0235C625C63542254401E491C8E
:100AD0008142F7DBAB46A81B401E0990002004F8BA
:100AE0000B000B98099AC0F80880C0E9002B7AE740
:100AF00011264FF0000857E72DE9F04F88460446CD
:100B0000D21D22F0070191B0D1E90001CDE90A011F
:100B100004F099FE02460B98C00F01D02D2007E08B
:100B20002068810701D52B2002E0202101EAC000C6
:100B3000032A099001D0072A05DB034641462046D7
:100B400000F0F4F90BE12078800601D5E06900E0BF
:100B50000620B8F1650F814606D0B8F1660F18D0AF
:100B6000B8F1670F70D131E00020B9F1110F00909A
:100B700001DB112301E009F101030AAA01A90CA874
:100B8000FFF7E2FEDDE90C70002609F1010583465E
:100B900047E001204B4600904FF000470AAA01A908
:100BA0000CA8FFF7D1FEDDE90DB00C995D460026DB
:100BB00010B909F101000D18B9EB050003D4C0F11B
:100BC000FF3609F10105A5EB09002BE0B9F1010F92
:100BD00001DA4FF001090020B9F1110F00904846E9
:100BE00001DD112300E003460AAA01A90CA8FFF7C2
:100BF000ABFEDDE90C704D460026834620780007E9
:100C00000AD4AB4500DA5D4601A8012D04DD411987
:100C100011F8011C302907D04F4502DA17F1040FF3
:100C200004DA012082460FE06D1EEEE7002F02DCA1
:100C3000ED1B3E4403E0781CA84200DD7D1CB81B80
:100C400000F1010A4FF000472078000703D4AA45BD
:100C500001DB4FF0FF3A0021B7F1004F0DF14308DF
:100C60008DF8431024D002202B23002F01DA7F427D
:100C70002D230A21021EA0F1010000DC5FB197FBC9
:100C8000F1FC97FBF1F201FB1C7C17460CF1300CD8
:100C900008F801CDEEE7A8F10100037021880905ED
:100CA00001D5452100E06521A0F1010800F8011CF3
:100CB00009980FA9A1EB0807FF1D00B101204119F8
:100CC00001EBEA70A1693844081A401EA06120783F
:100CD000C00602D42046AFF30080099828B1D4E9B9
:100CE00001219047206A401C20622078C00622D54E
:100CF0002046AFF300801EE0002E04DBB34502DD8A
:100D000001A8805D00E03020D4E901219047206AED
:100D1000401C2062761CAAF101005FEA000A0AD199
:100D200000F0BAF8C0680168405CD4E9012190473E
:100D3000206A401C2062281EA5F10105DCDC07E0CA
:100D4000D4E9012118F8010B9047206A401C206269
:100D5000381EA7F10107F3DC2046AFF30080032023
:100D600011B041E601694A1C02610878704700B57C
:100D70008FB0CDE901310021059105497944CDE9D4
:100D8000031011466846FFF7EDFB0FB000BD0000F1
:100D9000E5FFFFFF0A6802F8010B0A60704710B513
:100DA000436913B1AFF3008001E0FFF749FB012075
:100DB00010BD127800F124010A7000224A7001224D
:100DC000EDE711684FF0FF32E9E70000074B70B51F
:100DD0000D467B44FFF7CBFF0446284600F058F948
:100DE00010B14FF0FF3070BD204670BD67CD0000E0
:100DF00010B5203AC0F00B80B1E81850203AA0E8B6
:100E00001850B1E81850A0E81850BFF4F5AF5FEAE9
:100E1000027C24BFB1E81850A0E8185044BF18C99C
:100E200018C0BDE810405FEA827C24BF51F8043B43
:100E300040F8043B08BF7047D20728BF31F8023B97
:100E400048BF11F8012B28BF20F8023B48BF00F82B
:100E5000012B70474FF000020429C0F0128010F0FF
:100E6000030C3FF4ADACCCF1040CBCF1020F18BF85
:100E700000F8012BA8BF20F8022BA1EB0C01FFF713
:100E80009FBC5FEAC17C24BF00F8012B00F8012B56
:100E900048BF00F8012B704700487047C0E90020A8
:100EA00030B5B0F10A024FEA900E71F100034EEA3C
:100EB000817EB0EB0E0061EB91014FEA101E4EEA0D
:100EC000017E10EB0E0041EB11114FEA102E4EEA9D
:100ED000016E10EB0E0041EB11214FEA104E4EEA6D
:100EE000014E10EB0E0041EB1141401841F10001A1
:100EF0004FEAD00040EA41704FEAD10110EB800583
:100F00004FEA810444EA907444EB01046D1944EB08
:100F10000404521BA3414FF0000348BF0A3200D51E
:100F200030BD401C41F1000130BD00002DE9F04111
:100F30001F46044603260168072A01F4006004DB0B
:100F400008B116A505E016A503E008B115A500E057
:100F500015A521F010002060A069C01EA0610FB18E
:100F6000401EA0612046AFF300804FB1D4E90121BB
:100F700038469047206A401C2062C01C206206E070
:100F8000206AFAE7D4E9012115F8010B9047761E93
:100F9000F8D22046AFF30080BDE8F0814E414E000C
:100FA0006E616E00494E4600696E66002DE9F0479D
:100FB000814616468AB0354878440DC88DE80D0044
:100FC00032487844801C03AC0DC884E80D0041F61B
:100FD0009B300844372190FBF1F290FBF1F5A5F12D
:100FE000800501FB12041B3C02D56442012000E095
:100FF0000020DFF898A080460027FA44AAF1BE0A34
:101000000EE0E0070AD03246684607EB47010123AD
:101010000AEB810100F003FB8DE8070064107F1CE0
:10102000002CEED1194F7F44AE3F19E0E80715D0F0
:1010300007EB04100DF1180A90E80E008AE80E0084
:10104000C068F04201D1981908903246012306A9E0
:1010500003A800F0E4FA03AB83E807006D10641CFA
:10106000002DE3D14FF0010332466946B8F1000F7D
:1010700003A802D000F0BEFA01E000F0D0FAC9E9FE
:101080000001C9F808200AB0BDE8F08790610300AC
:10109000007B00F08000704700487047A0E9002006
:1010A0007546FFF7F9FFAE4605006946534620F046
:1010B0000700854618B020B5FFF718F9BDE82040B5
:1010C0004FF000064FF000074FF000084FF0000B04
:1010D00021F00701AC46ACE8C009ACE8C009ACE8B7
:1010E000C009ACE8C0098D46704710B50446AFF39F
:1010F00000802046BDE81040FFF797B85FEA400C3B
:1011000008BF91F0000F4FEA8C234FEAC12243EA57
:1011100051514FEA1C5018BF00F5F0404FEA300023
:1011200018BF41F000415FEA6C5C00F02980BCF11F
:10113000FF3F08BF40F080407047130C06BF120409
:101140004FF0100C4FF0000C130E04BF12020CF104
:10115000080C130F04BF12010CF1040C930F04BF11
:1011600092000CF1020CD30F04BF52000CF1010CE1
:1011700011464FF00002A0F11F00A0EB0C007047D9
:1011800011F0004F08BF704731F000413FF4D5AF78
:101190000B0C06BF09044FF0100C4FF0000C0B0EA7
:1011A00004BF09020CF1080C0B0F04BF09010CF17C
:1011B000040C8B0F04BF89000CF1020CCB0F04BF91
:1011C00049000CF1010CCCF12003A0EB0C0022FA39
:1011D00003F302FA0CF241EA030100F10100704747
:1011E00020F07F4C80EA030023F07F47ACEB07033D
:1011F00003F57C5300F0004003F1FF032DE9804923
:101200004FEA154B09B44FEA144325EA0B4E24EA82
:1012100003480FF2042606EB132749083E785FEADD
:10122000320203FB0667C7F5000707FB06F64FEA25
:1012300054374FEAD64606F1020607FB066CCCF19E
:10124000005C4FEA1C472CEA074C07FB06F40CFB3A
:1012500006F504EB15464FEA961634BF00204FF012
:1012600000404FEAD13706FB07FC4FEA1C4C0CFB51
:101270000BF7D21B03FB0CF761EB07010CFB0EF71E
:10128000B0EB074072EB17420CFB08F734BFA2EB40
:101290000742B2EB074261EB17414FEA0C444FEAB9
:1012A000910706FB07FC4FEA1C4C0CFB0BF7B0EB5D
:1012B000C74072EB573203FB0CF734BFA2EBC742B7
:1012C000B2EBC74261EB57310CFB0EF7B0EBC70036
:1012D00072EB57720CFB08F734BFA2EBC702B2EBFC
:1012E000C70261EB5771039F4FEA816141EA921196
:1012F00004EBCC044FEAD1374FEA826206FB07FCCD
:1013000042EA90124FEA80604FEA1C4C0CFB0BF74C
:10131000D21B03FB0CF761EB07010CFB0EF7B0EBE4
:10132000074072EB17420CFB08F734BFA2EB0742F1
:10133000B2EB074261EB17414FEA8C554FEA910738
:1013400004EB9C2406FB07FC4FEA1C4C0CFB0BF740
:10135000B0EBC74072EB573203FB0CF734BFA2EB84
:10136000C742B2EBC74261EB57310CFB0EF7B0EB53
:10137000C70072EB57720CFB08F734BFA2EBC70231
:10138000B2EBC70261EB577115EB4C254FEA816157
:1013900041EA92114FEA82624FEAD13742EA901253
:1013A00006FB07FC44F100044FEA80604FEA1C4C46
:1013B0000CFB0BF7D21B03FB0CF761EB07010CFBDB
:1013C0000EF7B0EB074072EB17420CFB08F734BF87
:1013D000A2EB0742B2EB074261EB174115EB1C157C
:1013E0004FEA813141EA92414FEA823242EA904229
:1013F0004FEA80304FEA0C7644F1000448EA034398
:101400004EEA0B484FF0000EB2EB080C71EB0307ED
:1014100024BF624639464EEB0E0E4FF0000B00180B
:10142000524149414BEB0B0BB2EB080C71EB03073C
:101430007BF1000B24BF624639464EEB0E0E4FF097
:10144000000B0018524149414BEB0B0BB2EB080C5F
:1014500071EB03077BF1000B24BF624639464EEB6C
:101460000E0E51EA020718BF46F0010616EB0E7683
:1014700055F1000254F1000103D5BDE88901BDE832
:101480000088BDE88901BDE80048B619524141EB2A
:101490000101A3F10103704780807F7E7D7C7B7A10
:1014A0007978777676757473727171706F6E6E6D10
:1014B0006C6C6B6A6A6968686766666564646363B6
:1014C00062616160605F5F5E5E5D5D5C5C5B5B5A3C
:1014D0005A595958585757565655555554545353A9
:1014E00052525251515050504F4F4F4E4E4D4D4D04
:1014F0004C4C4C4B4B4B4A4A4A494949484848474F
:10150000474747464646454545444444444343438C
:101510004342424242414141002B9C4630D4770035
:101520002BD01CB54FEA370703B44FF010004FF033
:101530001001BAF1000F06D0BCF1000FDCBF40F083
:10154000080040F008014FF000000FBCBDE810405B
:101550000BF1010BBBF1010F08BF5FEA170722BFB8
:1015600012F1010211F101014FF0004143F10003BA
:1015700000F0004043EA00007047F9D35708D0E775
:1015800046EA064613F1400F4FEA16461FDD13F1F7
:10159000200FDFBF16430A46002120335B42BED036
:1015A000C3F1200746EA064602FA07F74FEA164655
:1015B00046EA0706C3F1200722FA03F201FA07F709
:1015C00021FA03F14FF0000342EA0702A7E746EAD7
:1015D000020646EA06464FEA164646EA0106BCBF40
:1015E00046EA0646360C4FF000034FF000024FF07B
:1015F000000194E72DE9804C9A46934670B491E837
:10160000380007C831EA400C48BF34EA430C03D520
:10161000FFF7E6FDFFF780FFF0BCBDE8008C2DE989
:10162000804C9A46934670B491E8380007C810F091
:10163000804F08BF13F0804F03D100F005F8FFF78B
:101640006BFFF0BCBDE8008C20F07F4780EA030010
:1016500023F07F4C07EB0C03A3F57C5300F0004014
:10166000A3F1FE0392F0000F00F0B38095F0000F9D
:1016700000F077802DE901494FEA11404FEA144606
:1016800021EA004800FB06FC24EA064708FB06F6B0
:1016900007FB08F800FB07F718EB06484CEB164C65
:1016A0004FEA124B18EB07484FEA15464CEB174030
:1016B00022EA0B4E0BFB06FC25EA06470EFB06F65C
:1016C00007FB0EFE0BFB07F71EEB064E4CEB164C12
:1016D0004FF000061EEB074E4CEB174B18EB0B08B8
:1016E00040F1000018EB0E0B58EB000840F1000031
:1016F0008F1A4FF000013CBFC943661B14BFB5EB06
:10170000040C00213CBFC943F61B4FEA17444EEAC4
:101710008E0E27EA04454FEA1C4704FB07622CEAB9
:10172000074C05FB07F70CFB05F604FB0CFC16EB5E
:10173000074642EB174216EB0C4642EB1C421BEBF2
:10174000060658EB0202414146EA9E0601D5BDE875
:101750000189B619524141EB0101A3F10103BDE832
:1017600001894FEA14454FEA114724EA054621EA68
:10177000074C05FB07F406FB07F70CFB06F105FB1E
:101780000CFC11EB074144EB17444FEA124711EBF5
:101790000C4144EB1C4422EA074C05FB07F206FB14
:1017A00007F70CFB06F605FB0CFC16EB074642EBB5
:1017B000174216EB0C4642EB1C456A1854F1000127
:1017C00048BF7047B619524141EB0101A3F1010333
:1017D000704795F0000F37D04FEA11424FEA144797
:1017E00021EA024624EA074C02FB07F106FB07F751
:1017F0000CFB06F402FB0CFC14EB074441EB174115
:101800004FEA154714EB0C4441EB1C4125EA074C09
:1018100002FB07F506FB07F70CFB06F602FB0CFCC8
:1018200016EB074645EB174516EB0C4645EB1C42FD
:10183000121951F1000148BF7047B619524141EBEE
:101840000101A3F1010370474FEA14454FEA114724
:1018500024EA054621EA074C05FB07F106FB07F7DA
:101860000CFB06F24FF0000605FB0CFC12EB0742E6
:1018700041EB174112EB0C4251EB1C4148BF704742
:10188000921841EB0101A3F10103704700F0AEBDD6
:10189000002A08BF70472DE9F04115460E4607465D
:1018A0004FF0A0083C46781C87B200F04DFE200A9D
:1018B00008EB4000C0B200F013FE00F087FEE0B27B
:1018C00000F00EFE00F082FE00F03EFEA12000F0CF
:1018D00007FE00F07BFE002000F0A2FD044600F0B1
:1018E00053FE681E050406F8014B2D0CDAD1BDE845
:1018F000F08110B5044600F027FE200AA02101EB7C
:101900004000C0B200F0ECFD00F060FEE0B200F07C
:10191000E7FD00F05BFE00F017FEA12000F0E0FD07
:1019200000F054FE002000F07BFD044600F02CFE89
:10193000204610BD2DE9F0410446501E0E4685B2EA
:101940002CBFA027BDE8F08196F8008000F0FCFDD8
:10195000200A07EB4000C0B200F0C2FD00F036FEE6
:10196000E0B200F0BDFD00F031FE404600F0B8FDF1
:1019700000F02CFE00F008FE0A2007F0EFF9601CD2
:10198000691E84B28DB206F10106DDD2BDE8F08198
:1019900070B50D46044600F0D7FD200AA02101EBEA
:1019A0004000C0B200F09CFD00F010FEE0B200F07C
:1019B00097FD00F00BFE284600F092FD00F006FEB9
:1019C00000F0E2FDBDE870400A2007F0C7B9000052
:1019D00038B50121082003F09BF94FF48070ADF871
:1019E000000010208DF803000320064C8DF8020043
:1019F0006946204600F08EFCA115204600F0E8FC68
:101A000038BD0000000C0140FEE7000030B5104D6D
:101A100085B06A460121284600F0F2F90D4C009885
:101A20001021E0809DF80B0020709DF80C00607084
:101A30009DF80D00A0709DF80E00E0709DF80F005D
:101A40002071284600F076F80220A06005B030BD75
:101A5000006400403000002070B5012184B04806C9
:101A600003F03EF9324E304600F0B2F8684600F01E
:101A700021FA002501248DF806508DF80740052035
:101A80008DF8040004208DF808408DF802508DF880
:101A900005008DF809408DF8035006208DF80A5096
:101AA000ADF800008DF80B506946304600F02EF975
:101AB00042F26040ADF80840ADF800008DF80D40EE
:101AC0008DF80A408DF80B508DF80C40ADF802509F
:101AD00001221021304600F011F94FF6FF70ADF8E9
:101AE0000400ADF80600684600F090F84FF4A060DE
:101AF00003F0E0F814208DF800008DF801408DF817
:101B000002508DF80340684603F09AF84FF4A06045
:101B100003F0D0F815208DF800008DF801408DF805
:101B200002408DF80340684603F08AF804B070BDA7
:101B30000064004010B4082304224FF0100CB1F5EB
:101B4000007F40D021DC202902BF036110BC704718
:101B500010DC012901BF1D49816010BC70470429B8
:101B600002BFC36010BC7047082908BFC0F80CC092
:101B700010BC7047402902BFC0F810C010BC7047AD
:101B8000B1F5807F1FD010BC70470024B1F5004F25
:101B900008D00BDCB1F5806F15D0B1F5006F1CBF1C
:101BA00010BC70478461426010BC7047B1F5803F43
:101BB00002BF436010BC7047B1F5003F08BFC0F8DA
:101BC00004C010BC7047426010BC704701010100A6
:101BD000A0F1804110B5B1F5C8414FF0010109D025
:101BE000880603F089F8BDE8104000214FF08060BE
:101BF00003F082B84FF0007003F07EF8BDE81040AB
:101C000000214FF0007003F077B8000030B4817A03
:101C1000354B012202FA01F11A6842F001021A6002
:101C2000DFF8C8C0DCF800208A43CCF80020047B31
:101C30002F4AD4B914688C4314604488C58844EA98
:101C40000544857AED0005F1804505F5C045C5F8E8
:101C500040460488858844EA0544857AED0005F10C
:101C6000804505F5C045C5F84446047B012C18D1D4
:101C700014680C431460847A0268E40004F1804420
:101C800004F5C0444FEA3242C4F84026847A4268E0
:101C9000E40004F1804404F5C0444FEA3242C4F841
:101CA0004426C47A134A002C14680CBF8C430C439E
:101CB00014600489104A14B914688C4314600489B0
:101CC000012C02D114680C431460407B012804D11C
:101CD000DCF800000843CCF80000186820F0010090
:101CE000186030BC70470000006600401C66004071
:101CF0000C6600400466004014660040002A4269F9
:101D000014BF114322EA01014161704702680023B8
:101D100022F002020260026842F0010202604FF605
:101D2000FF7200BFD0F804C01CF0010F03D1934232
:101D300018BF5B1CF6D1436813F0010F5DD08B799F
:101D4000012B03680CBF43F0800323F08003036082
:101D5000CB79012B03680CBF43F0400323F0400311
:101D600003600B7A012B03680CBF43F0200323F0C0
:101D7000200303604B7A012B03680CBF43F0100370
:101D800023F0100303608B7A012B03680CBF43F030
:101D9000080323F008030360CB7A012B03680CBF10
:101DA00043F0040323F0040303608B7891F803C02D
:101DB0004FEA837343EA0C6391F804C043EA0C438F
:101DC00091F805C0098843EA0C53A1F1010143EAE7
:101DD0000101C161016821F0010101604FF00001C2
:101DE000436813F0010F1CBF9142491CF8D14068B1
:101DF00010F0010F04BF012070474FF00000704742
:101E000000EB0113D3F8B0C11CF0040C82F808C039
:101E1000D3F8B0C107BF4FEA5C5CC2F800C04FEA1C
:101E2000DC0CC2F804C0D3F8B0C10CF0020C82F88C
:101E300009C0D3F8B4C10CF00F0C82F80AC0D3F873
:101E4000B4C14FEA1C2C82F813C0D3F8B8C182F891
:101E50000BC0D3F8B8C14FEA1C2C82F80CC0D3F8E1
:101E6000B8C14FEA1C4C82F80DC0D3F8B8C14FEA94
:101E70001C6C82F80EC0D3F8BCC182F80FC0D3F836
:101E8000BCC14FEA1C2C82F810C0D3F8BCC14FEA89
:101E90001C4C82F811C0D3F8BC311B0E937421B1D5
:101EA000016941F0200101617047C16841F02001E2
:101EB000C160704700218171C171017241728172EC
:101EC000C1728170C1700321017102214171012130
:101ED0000180704738B50121882002F019FF0220E7
:101EE000ADF8000010208DF8030003200B4C8DF896
:101EF00002006946204600F00DFA0221204600F05B
:101F000069FA6015064CADF800006946204600F0FD
:101F100001FA6115204600F05DFA38BD000C014061
:101F2000001C01402DE9F05F2B4E834600243068F1
:101F300020F0F0003060306840F0800030601E20FB
:101F400006F03CFF0025254FDFF894A0A8464FF08F
:101F5000010900BFC7F88481052006F02FFFC7F8EC
:101F600084916006040EDAF8240100281CBF601C6E
:101F7000C4B2681CC5B2082DECD3BBF1000FC7F882
:101F80008481306820F0F0003060306840F030002C
:101F900030604FF0050010D006F010FFCAF8A481A1
:101FA000052006F00BFFC7F88491052006F006FF18
:101FB000C7F884812046BDE8F09F06F0FFFECAF80E
:101FC000A491052006F0FAFEC7F88491052006F0DA
:101FD000F5FEC7F88481EDE7041C01400080214232
:101FE000008023422DE9F04706461548016821F09C
:101FF000F0010160016841F030010160114C4FF0C7
:102000000008C4F88481052006F0D8FE0025DFF81A
:1020100038900127F009C9F8A4017006060EC4F82B
:102020008471052006F0CAFEC4F88481052006F0FC
:10203000C5FE681CC5B2082DECD3BDE8F0870000D2
:10204000041C0140008021420080234270B50F48EB
:10205000016821F0F0010160016841F03001016088
:102060000B4C0120C4F8A4010A4DC5F884011E20C0
:1020700004F5D27405F5C27506F0A0FE00262660B0
:10208000052006F09BFE2E6070BD0000041C014080
:10209000008023420080214270B50D48016821F084
:1020A000F0010160016841F030010160094801253B
:1020B000C0F884511E2006F081FE074C0020C4F8B1
:1020C000A401052004F5D27406F078FE256070BDE9
:1020D000041C014000802142008023422DE9F0478A
:1020E0001F4D0024286820F0F0002860286840F088
:1020F000800028601B4E0127C6F8A471DFF86880B5
:10210000C8F88471052006F059FED6F82401A146CE
:1021100008B3601CC4B2FA2C16D9286820F0F0006D
:102120002860286840F030002860C8F884711E20BC
:1021300006F044FEC6F8A491052006F03FFEC6F85E
:10214000A4710120BDE8F087052006F037FED6F81F
:1021500024010028DDD1C8F884910020BDE8F08773
:10216000041C01400080234200802142704700008F
:102170008000A0F1C0400029016812BF41F00101B8
:10218000014A114001607047FEFF0F00D0E90112C3
:102190001143D0E903231A43114342691143826971
:1021A0001143C2691143026A1143426A1143826AB0
:1021B0001143C26A1143026B0A4301688900A1F10D
:1021C000C0410A608168082907D101688900A1F12E
:1021D000C0410A6842F040020A60416BD1E9002325
:1021E00042EA03128B68B1F80CC01B0243EA0C43AD
:1021F0001A430B8A42EA03520B7D896942EA036261
:10220000114302689200A2F1C0425160C16AB1F567
:10221000804F08D000686FF070418000A0F1C0408E
:10222000C0F804117047816BD1E9002342EA031220
:102230008B68B1F810C01B0243EA0C531A430B7DA4
:10224000896942EA0362006811438000A0F1C0403E
:10225000C0F804117047000010B598B0012140F299
:10226000E11002F055FD0121080202F02DFD4FF6AC
:102270003370ADF8580018208DF85B0003248DF8FA
:102280005A4016A91F4800F045F84FF68370ADF884
:10229000580016A91C4800F03DF84FF23F00ADF879
:1022A000580016A9194800F035F840F23F40ADF843
:1022B000580016A9164800F02DF80020CDE91004AA
:1022C0000F90149004211590CDE900101290102168
:1022D000CDE9020113900490069005900902079041
:1022E000CDE908010A900B900C900FA80D900E906C
:1022F0006846FFF74BFF01210420FFF739FF18B0B4
:1023000010BD00000014014000180140001C0140F5
:10231000002001402DE9F001CB78002203F00F0CE2
:1023200013F0100F1CBF8B7843EA0C0C0B784FF0A6
:102330000F0613F0FF0F4FF0010518BF046819D006
:102340000F8805FA02F31F409F420FD1970006FA4B
:1023500007F824EA08040CFA07F73C43CF78282F43
:1023600008BF436102D0482F08BF0361521C082AEE
:10237000E6D304600A88FF2A87BF44680022BDE8CC
:10238000F001704702F108030F8805FA03F31F40BC
:102390009F420FD1970006FA07F824EA08040CFAC6
:1023A00007F73C43CF78282F08BF4361CF78482FE9
:1023B00008BF0361521C082AE4D34460BDE8F00161
:1023C00070470246002092680A4218BF01207047F9
:1023D00041617047016170474FF6FF710180022132
:1023E00081700421C1707047FEE7000038B50121FB
:1023F000082002F08DFCC020ADF8000010208DF800
:1024000003000320054C8DF8020069462046FFF7C3
:1024100081FFC0212046FFF7DDFF38BD000C0140E1
:102420002DE9F047DFF8B09082460024D9F800008B
:1024300020F07040C9F80000D9F8000040F00040DA
:10244000C9F80000254E254627464FF0010800BF79
:10245000C6F89871022006F0B1FCC6F898816006B3
:10246000040ED6F81C0100281CBF601CC4B2012059
:1024700006F0A4FC681CC5B2082DE9D3BAF1000F20
:10248000C6F89871D9F8000020F07040C9F8000033
:10249000D9F8000040F04050C9F800000ED0C6F84E
:1024A0009C71022006F08AFCC6F89881022006F092
:1024B00085FCC6F898712046BDE8F087C6F89C8177
:1024C000022006F07BFCC6F89881022006F076FC1C
:1024D000C6F89871EFE70000000C0140008021422F
:1024E0002DE9F04105461648016821F07041016070
:1024F000016841F040510160124E0027C6F8987102
:102500003C464FF0010800BF15F0800F14BFC6F81D
:102510009C81C6F89C716806050E022006F04EFCF0
:10252000C6F89881022006F049FCC6F8987102208E
:1025300006F044FC601CC4B2082CE5D3BDE8F08171
:10254000000C01400080214270B50D48016821F067
:1025500070410160016841F040510160094C012067
:10256000C4F89C01C4F89801042004F5CC7406F06A
:1025700025FC00256560042006F020FC256070BD68
:10258000000C0140008021420E4810B5016821F086
:1025900070410160016841F0405101600A4C002027
:1025A000C4F89801C4F89C01042004F5CC7406F02A
:1025B00005FC012020606060BDE81040042006F0AA
:1025C000FDBB0000000C0140008021422DE9F041DC
:1025D0001F4E0024306820F070403060306840F0BA
:1025E000004030601B4D0127C5F89C71384606F04D
:1025F000E5FBC5F89871012006F0E0FBD5F81C0159
:10260000002100B3601CC4B2FA2C18D9306820F045
:1026100070403060306840F040503060C5F898112C
:10262000C5F89C11042006F0C9FBC5F89871C5F8DF
:102630009C71042006F0C2FB0120BDE8F081D5F8B2
:102640001C010028DED1C5F898110020BDE8F081FA
:10265000000C01400080214208B50121442002F015
:1026600057FB1C20ADF8000048208DF80300694698
:102670000648FFF74FFE0120ADF8000028208DF836
:10268000030069460248FFF745FE08BD00180140F7
:10269000000801402DE9F0410126334D334F344C01
:1026A00000280ABF28782E70002815D04FF010019E
:1026B0002046FFF786FEB0B108212046FFF781FED5
:1026C00088B104212046FFF77CFE60B10121384625
:1026D000FFF777FE012806D010212046FFF771FE94
:1026E00001283DD129E00A2006F038FB002028709F
:1026F00010212046FFF765FE002804BF0120BDE839
:10270000F08108212046FFF75CFE002804BF02206C
:10271000BDE8F08104212046FFF753FE002804BFE6
:102720000320BDE8F08101213846FFF74AFE012869
:1027300004BF0420BDE8F08112E008212046FFF725
:1027400040FE01280CD104212046FFF73AFE012863
:1027500006D101213846FFF734FE002808BF2E704D
:102760000020BDE8F0810000640000200008014066
:102770000018014070B50F4E05463088718801FB86
:1027800000F40021084602F011F90B493089088055
:10279000002C08BF70BD14F00101084A18BF158055
:1027A000A14228BF70BD15801580891CA142FAD3B3
:1027B00070BD0000F4030020FE07006C0008006CF0
:1027C0002DE9FF4F884600980D9E101A401C84B2D8
:1027D000A3EB0800401C07043F0C4FF0000504BFAA
:1027E00004B0BDE8F08FDFF864A0DFF864B00BF14F
:1027F000020900BF08EB050081B2009802F0D6F88C
:10280000BAF80800ABF80000CCB114F0010005D014
:1028100005FB04F136F81110A9F80010A0420ED201
:1028200005FB040136F81120A9F8002006EB410150
:102830004988A9F80010801C80B2A042F0D3681C1F
:1028400085B2BD42D6D304B0BDE8F08FF4030020BA
:10285000FE07006C2DE9F04F2E492C250A468871A1
:102860002B2692884FF430584FF428594FF448746F
:1028700041F6631A2A274FF0F00E45F2105B4FF431
:10288000A07C4FF4F073C8B1A1F800C0A1F802E039
:102890005A4536D1A1F80880A1F80A903002888103
:1028A0000C804B80A2F5A640103804BF0B80A1F825
:1028B00002C00020BDE8F04F01F0C8BFA1F800E061
:1028C000A1F802C05A4511D1A1F80880A1F80A90D8
:1028D0004FF42C5088810B80A1F80240A2F5A6404D
:1028E000103804BFA1F800C04B80E2E752450D81CB
:1028F00001BF4E818F810B804C801CBF4F818E8128
:10290000ECE70D814F8152458E8104BF0C804B80D6
:10291000C8E70000F40300202DE9F04F4FF0000A53
:10292000161A5D1A83B0D14680460F46002EC8BFE6
:10293000012006DC0FBF00204FF0FF3001907642EF
:1029400000D10190002DC8BF012006DC0FBF002080
:102950004FF0FF3000906D4200D10090AE42CCBFEE
:1029600034462C464FF0000B601C52BF029003B05F
:10297000BDE8F08F1FFA88F0B9B202F017F81048DE
:102980000189104801801048018810480180B24434
:10299000A944A24503DD0198AAEB040A8044A1459D
:1029A00003DD0098A9EB040907440BF101001FFAAD
:1029B00080FB02988345DDDD03B0BDE8F08F0000A9
:1029C000F4030020FE07006C660000200008006C85
:1029D00000B501F0EBFF0448044900890880044871
:1029E000891C0088088000BDF4030020FE07006CED
:1029F000660000202DE9F04F8346002586B01400C4
:102A00004FF00300A0EB44008A46009044BF06B09C
:102A1000BDE8F08F454E464FDFF8188107F10209F7
:102A20000BEB0500AAEB04010190049180B289B27E
:102A300001F0BCFF30893880B8F80000A9F8000028
:102A40000BEB0400AAEB05010290039180B289B25E
:102A500001F0ACFF30893880B8F80000A9F8000018
:102A600002980AEB0501029180B289B201F09EFF43
:102A700030893880B8F80000A9F8000001980AEB06
:102A80000401059180B289B201F090FF308938804D
:102A9000B8F80000A9F80000ABEB0500059901901B
:102AA00080B289B201F082FF30893880B8F8000026
:102AB000A9F80000ABEB04000299059080B289B23E
:102AC00001F074FF30893880B8F80000A9F80000E0
:102AD0000198049980B289B201F068FF308938808A
:102AE000B8F80000A9F800000598039980B289B2EF
:102AF00001F05CFF30893880B8F80000A9F80000C8
:102B000000986D1C002804DA00EB8500801D009001
:102B100005E0291B00EB81000A30641E0090A542ED
:102B20007FF77EAF06B0BDE8F08F0000F403002011
:102B3000FE07006C660000202DE9F007DFF89C809E
:102B4000274C4546B8F80490AE89A31C070A6D8946
:102B5000A9F5A04A4FEA112CBAF5A26A15D0A9F539
:102B6000C85ABAF1630A1ED025801F80C0B21880EF
:102B70002680A3F800C0C8B2A3F80000B8F8080087
:102B800020801A80BDE8F007704725801F806D1CEB
:102B90002580C0B218802680A3F800C0701C208059
:102BA000C8B21880EAE798F8067027B9B8F800703C
:102BB000381A401E80B22580050A1D80C7B21F80CA
:102BC0001D80C0B218802680A3F800C0C8B218804B
:102BD000A3F800C0C8B21880D0E70000F4030020BA
:102BE000FE07006C2DE9F04F8146A2EB0900401C66
:102BF0001F46099D84B20E46B94288BFBDE8F08FDA
:102C0000DFF844A0DFF844B00BF102083146484633
:102C100001F0CCFEBAF80800ABF8000074B114F073
:102C2000010018BFA8F80050A04207D2A8F8005031
:102C3000A8F80050801C80B2A042F7D3701C86B266
:102C4000BE42E3D9BDE8F08FF4030020FE07006C1C
:102C50002DE9F04F0121A1B0080202F035F8012161
:102C60004FF4B47002F054F84FF0010AADF840A0F0
:102C700010258DF8435003208DF8420010A9FE481E
:102C8000FFF748FB4CF23370ADF8400018248DF884
:102C9000434003208DF8420010A9F848FFF73AFBA3
:102CA0004FF68070ADF840008DF8434003208DF85A
:102CB000420010A9F248FFF72DFB41F20100ADF8E8
:102CC00040008DF8434003208DF8420010A9ED48E4
:102CD000FFF720FB00200F21CDE91201CDF844A021
:102CE000149015901690179003211890CDE91901B2
:102CF0001B901C901D9006211E90CDE90110CDE97E
:102D0000030505900790069029020890CDE9090176
:102D10008900CDE90B010D9011A80E9018A80F9015
:102D200001A8FFF733FA01210620FFF721FA32202C
:102D300006F014F8D44DD3202880AC1C2088ADF8C0
:102D40000000BDF80000D14E2088ADF80000BDF8AD
:102D500000002088ADF80000BDF800004FF6FF77B6
:102D6000218807EA0020ADF80010BDF8001049F2F4
:102D700041390843B08047F2897845F2103B484515
:102D80007DD0042028802088ADF80000BDF8000028
:102D90002088ADF80000BDF800002088ADF80000E4
:102DA000BDF80000218807EA0020ADF80010BDF84A
:102DB00000100843A0F50541B08052390CBFA6F8B9
:102DC000048040456CD04FF0D40028802088ADF8B6
:102DD0000000BDF800002088ADF80000BDF800003C
:102DE0002088ADF80000BDF80000218807EA002027
:102DF000ADF80010BDF8001041EA0000B080584561
:102E00004ED04FF47041552029802080491CAA20C3
:102E100029802080491C522029802080491C0820BC
:102E200029802080491C0120298020804FF44540C2
:102E300028802088ADF80000BDF8000007EA0021D6
:102E40004CF2015028802088ADF80000BDF8000049
:102E50000843B080052005F081FFB188A1F5AA40A4
:102E600010381DD0A12028802088ADF80000BDF8C2
:102E700000002088ADF80000BDF8000000E00FE081
:102E8000218807EA0020ADF80010BDF800100843C3
:102E9000A0F5AE41B080613904BF41F66310B08047
:102EA000B1887BA0FDF7ACFAB088484540F0B2800D
:102EB000CF20288000202080C1202080302020804A
:102EC000ED20288064202080032020801220208094
:102ED00081202080E82028808520208010202080EC
:102EE0007A202080CB202880392020802C20208030
:102EF000002020803420208002202080F72028809D
:102F000020202080EA202880002020802080C020EF
:102F100028801B202080C120288001202080C520FF
:102F20002880302020802080C7202880B720208063
:102F300036202880482020803A2028805520208074
:102F4000B1202880002020801A202080B6202880F0
:102F50000A202080A2202080F220288000202080CB
:102F60002620288001202080E02028800F2020803B
:102F70002A20208028202080082020800E202080E9
:102F80000820208054202080A920208043202080F9
:102F90000A2020800F202080002020802080208098
:102FA0002080E1202880002020801520208017200C
:102FB00020800720208011202080062020802B20C8
:102FC0002080562020803C2020800520208010205A
:102FD00020800F2020803F20208020800F20208014
:102FE0002B202880002020802080012020803F206E
:102FF00020802A2028800020208020802080EF2030
:10300000208011202880782005F0A8FE2920288023
:1030100001F0ECBB404540F09F80112028807820D3
:1030200005F09CFE36202880002020803A20288051
:1030300005202080B22028800C20208020800020C5
:103040002080332020802080B720288035202080D9
:10305000BB20288032202080C02028800C202080A7
:10306000C220288001202080C320288010202080BA
:10307000C4202880202013E0000C014000140140EF
:103080000018014000200140FE07006CF4030020FE
:10309000204C43442049443A25780D0A00000000A2
:1030A0002080C62028800F202080D0202880A420C7
:1030B0002080A1202080E0202880D02020800020B7
:1030C000208002202080072020800A2020802820C5
:1030D0002080322020804420208042202080062032
:1030E00020800E2020801220208014202080172095
:1030F0002080E1202880D020208000202080022015
:103100002080072020800A20208028202080312055
:10311000208054202080472020800E2020801C20EA
:103120002080172020801B2020801E2020802A2025
:1031300028800020208020802080EF2020802B20ED
:103140002880002020802080012020803F202080B7
:103150002920288001F04ABB584540F0A984ED2081
:10316000288001202080FE202080EE202880DE2084
:10317000208021202080F120288001202080DF2055
:10318000288010202080C42028808F202080C62006
:10319000288000202080E220208020802080BF2006
:1031A0002880AA202080B02028800D2020800020A8
:1031B00020800D20208000202080112020800020F1
:1031C00020801920208000202080212020800020C5
:1031D00020802D202080002020803D202080002085
:1031E00020805D202080002020805D202080002025
:1031F0002080B120288080202080002020808B200B
:103200002080002020809620208000202080B22076
:103210002880002020802080022020800020208024
:103220000320208000202080B320288000202080E0
:10323000208020802080208020802080208020808E
:10324000208020802080208020802080208020807E
:103250002080208020802080208020802080B4203A
:1032600028808B2020800020208096202080002035
:103270002080A120208000202080B52028800220EE
:103280002080002020800320208000202080042037
:10329000208000202080B6202880002020802080F0
:1032A000B72028800020208020803F202080002020
:1032B00020805E202080002020806420208000204C
:1032C00020808C20208000202080AC2020800020C6
:1032D0002080DC20208000202080702020800020A2
:1032E00020809020208000202080EB202080002063
:1032F0002080DC20208000202080B8202880002032
:1033000020802080208020802080208020802080BD
:10331000BA20288024202080002020802080208047
:10332000C120288020202080002020805420208060
:1033300000202080FF20208000202080C2202880C4
:103340000A2020800020208004202080002020806F
:10335000C32028803C202080002020803A2020802C
:1033600000202080392020800020208037202080ED
:10337000002020803C2020800020208036202080DB
:103380000020208032202080002020802F202080DC
:10339000002020802C2020800020208029202080D8
:1033A00000202080262020800020208024202080D3
:1033B00000202080242020800020208023202080C6
:1033C000002020803C20208000202080362020808B
:1033D0000020208032202080002020802F2020808C
:1033E000002020802C202080002020802920208088
:1033F0000020208026202080002020802420208083
:103400000020208024202080002020802320208075
:1034100000202080C420288062202080002020807E
:103420000520208000202080842020800020208013
:10343000F020208000202080182020800020208084
:10344000A4202080002020801820208000202080C0
:1034500050202080002020800C2020800020208010
:1034600017202080002020809520208000202080B0
:10347000F320208000202080E62020800020208073
:10348000C5202880322020800020208044202080F9
:103490000020208065202080002020807620208051
:1034A000002020808820208000202080C6202880C6
:1034B00020202080002020801720208000202080D5
:1034C0000120208000202080C7202880002020802C
:1034D000208020802080C82028800020208020801C
:1034E00020802080C920288000202080208020800B
:1034F00020802080208020802080208020802080CC
:1035000020802080208020802080E02028801620BD
:103510002080002020801C2020800020208021206E
:10352000208000202080362020800020208046201F
:1035300020800020208052202080002020806420D5
:103540002080002020807A202080002020808B2076
:103550002080002020809920208000202080A8202A
:10356000208000202080B920208000202080C420DE
:10357000208000202080CA20208000202080D220AF
:10358000208000202080D920208000202080E02082
:10359000208000202080F320208000202080E12057
:1035A000288016202080002020801C2020800020E1
:1035B00020802220208000202080362020800020B3
:1035C0002080452020800020208052202080002064
:1035D000208064202080002020807A20208000200D
:1035E00020808B20208000202080992020800020B7
:1035F0002080A820208000202080B920208000206A
:103600002080C420208000202080CA20208000202C
:103610002080D220208000202080D8202080002000
:103620002080E020208000202080F32020800020C7
:103630002080E220288005202080002020800B2090
:103640002080002020801B2020800020208034202B
:1036500020800020208044202080002020804F20D7
:103660002080002020806120208000202080792080
:10367000208000202080882020800020208097202B
:10368000208000202080A620208000202080B720DD
:10369000208000202080C220208000202080C720A1
:1036A000208000202080D120208000202080D62073
:1036B000208000202080DD20208000202080F3203A
:1036C000208000202080E32028800520208000200A
:1036D00020800A202080002020801C2020800020C4
:1036E0002080332020800020208044202080002063
:1036F0002080502020800020208062202080002018
:1037000020807820208000202080882020800020B9
:1037100020809720208000202080A620208000206C
:103720002080B720208000202080C2202080002020
:103730002080C720208000202080D12020800020F1
:103740002080D520208000202080DD2020800020C7
:103750002080F320208000202080E4202880012089
:103760002080002020800120208000202080022056
:103770002080002020802A202080002020803C20E3
:103780002080002020804B202080002020805D2091
:103790002080002020807420208000202080842031
:1037A0002080002020809320208000202080A220E4
:1037B000208000202080B320208000202080BE2098
:1037C000208000202080C420208000202080CD2068
:1037D000208000202080D320208000202080DD2039
:1037E000208000202080F320208000202080E52001
:1037F00028800020208020802080208002202080BF
:103800000020208029202080002020803C20208053
:10381000002020804B202080002020805D20208000
:1038200000202080742020800020208084202080A0
:10383000002020809320208000202080A220208053
:1038400000202080B320208000202080BE20208007
:1038500000202080C420208000202080CD202080D7
:1038600000202080D320208000202080DC202080A9
:1038700000202080F320208000202080E620288067
:1038800011202080002020803420208000202080F3
:10389000562020800020208076202080002020805C
:1038A000772020800020208066202080002020803B
:1038B00088202080002020809920208000202080E7
:1038C000BB202080002020809920208000202080A4
:1038D000662020800020208055202080002020802D
:1038E000552020800020208045202080002020803E
:1038F0004320208000202080442020800020208041
:10390000E720288032202080002020805520208041
:1039100000202080762020800020208066202080CB
:1039200000202080672020800020208067202080C9
:103930000020208087202080002020809920208067
:1039400000202080BB202080002020809920208023
:1039500000202080772020800020208044202080AC
:1039600000202080562020800020208023202080DE
:1039700000202080332020800020208045202080CF
:1039800000202080E82028800020208020809920AE
:103990002080002020808720208000202080882018
:1039A000208000202080772020800020208066203A
:1039B0002080002020808820208000202080AA20D5
:1039C000208000202080BB202080002020809920A3
:1039D000208000202080662020800020208055202C
:1039E000208000202080552020800020208044203E
:1039F000208000202080442020800020208055202E
:103A0000208000202080E9202880AA20208000201B
:103A10002080208020802880AA202080CF2028801D
:103A20000020208020802080208020802080208016
:103A30002080208020802080208020802080208086
:103A400020802080F02028800020208050202080AE
:103A50000020208020802080F320288000202080EB
:103A6000F920288006202080102020802920208016
:103A7000002020803A202880552020801120288096
:103A8000642005F06BF9292028803520288000204B
:103A9000208051202880FF202080532028802C2047
:103AA000208055202880822020802C2000F015BE08
:103AB000A0F5AA41103906D0A0F5C851633900F02D
:103AC0000E8600F093BE4FF470415520298020806F
:103AD000481CAA2128802180411C52202980208056
:103AE000491C082029802080491C01202980208031
:103AF0004FF430400D2128802180411C0D20298069
:103B00002080491C298020804FF4364034212880B1
:103B10002180401C28802180411C34202980208065
:103B20004FF431400D2128802180411C0D20298037
:103B30002080491C298020804FF43741342029807F
:103B40002080491C29802080491C298020804FF436
:103B50003241002029802080491C29802080481C77
:103B60000021288021804FF43841242029802080A2
:103B7000481C242128802180411C24202980208069
:103B80004FF43F400121288021804FF433410F2022
:103B900029802080491C29802080491C2980208080
:103BA0004FF43940342128802180401C2880218016
:103BB000411C3420298020804FF435400821288082
:103BC0002180401C28802180401C288021804FF4C7
:103BD00042400321288021804FF43A41242029804B
:103BE0002080481C242128802180411C24202980F9
:103BF00020804FF43C41002029802080481C7821FF
:103C000028802180411C0020298020804FF43D40E5
:103C1000002128802180401C782128802180401CA0
:103C20000021288021804FF43E4028802180401CC4
:103C30006421288021804FF4514000212880218078
:103C4000401C332128802180411C002029802080B5
:103C5000491C342029802080491C00202980208094
:103C6000481C3A2128802180401C00212880218086
:103C7000401C4A2128802180401C0021288021806E
:103C8000401C5C2128802180411C0020298020804C
:103C9000481C812128802180401C0021288021800F
:103CA000411CA62029802080491C002029802080DA
:103CB000481CE52128802180411C0120298020808A
:103CC000491C132029802080481C01212880218044
:103CD000401C542128802180401C01212880218003
:103CE000401C822128802180401C012128802180C5
:103CF000401CCA2128802180411C0220298020806C
:103D0000481C002128802180411C0220298020801D
:103D1000491C012029802080481C02212880218004
:103D2000411C342029802080491C022029802080C9
:103D3000481C672128802180411C02202980208086
:103D4000491C842029802080491C02202980208051
:103D5000491CA42029802080481C02212880218021
:103D6000411CB72029802080491C02202980208006
:103D7000481CCF2128802180411C022029802080DE
:103D8000481CDE2128802180401C022128802180BF
:103D9000411CF22029802080491C0220298020809B
:103DA000481CFE2128802180411C0320298020807E
:103DB000491C102029802080481C03212880218054
:103DC000411C332029802080491C03202980208029
:103DD000491C6D20298020804FF452410020298009
:103DE0002080481C332128802180411C002029800C
:103DF0002080491C342029802080491C00202980F3
:103E00002080491C3A2029802080491C00202980DC
:103E10002080481C4A2128802180411C00202980C4
:103E20002080481C5C2128802180411C00202980A2
:103E30002080481C812128802180411C002029806D
:103E40002080481CA62128802180411C0020298038
:103E50002080491CE52029802080491C01202980E0
:103E60002080491C132029802080481C01212880A3
:103E70002180401C542128802180411C0120298060
:103E80002080491C822029802080481C0121288014
:103E90002180401CCA2128802180401C02212880CA
:103EA0002180411C002029802080481C022128807C
:103EB0002180411C012029802080481C022128806B
:103EC0002180411C342029802080481C0221288028
:103ED0002180401C672128802180411C02202980EC
:103EE0002080491C842029802080481C02212880B1
:103EF0002180401CA42128802180411C022029808F
:103F00002080491CB72029802080491C022029805C
:103F10002080491CCF2029802080481C0221288035
:103F20002180411CDE2029802080491C022029801C
:103F30002080491CF22029802080481C02212880F2
:103F40002180411CFE2029802080481C03212880DC
:103F50002180411C102029802080491C03202980B9
:103F60002080491C332029802080491C032029807F
:103F70002080491C6D20298020804FF4534100206F
:103F800029802080491C332029802080491C002062
:103F900029802080491C342029802080481C002151
:103FA00028802180411C3A2029802080491C002043
:103FB00029802080491C4A2029802080491C00201B
:103FC00029802080491C5C2029802080491C0020F9
:103FD00029802080491C812029802080491C0020C4
:103FE00029802080491CA62029802080491C00208F
:103FF00029802080491CE52029802080491C01203F
:1040000029802080491C132029802080491C012000
:1040100029802080481C542128802180411C0120B7
:1040200029802080491C822029802080491C012071
:1040300029802080481CCA2128802180411C022020
:1040400029802080491C002029802080491C0220D2
:1040500029802080481C012128802180411C0220C9
:1040600029802080491C342029802080491C02207E
:1040700029802080491C672029802080491C02203B
:1040800029802080481C842128802180411C022016
:1040900029802080491CA42029802080491C0220DE
:1040A00029802080491CB72029802080491C0220BB
:1040B00029802080491CCF2029802080491C022093
:1040C00029802080491CDE2029802080491C022074
:1040D00029802080491CF22029802080491C022050
:1040E00029802080491CFE2029802080491C032033
:1040F00029802080491C102029802080491C032011
:1041000029802080491C332029802080491C0320DD
:1041100029802080491C6D20298020804FF4544143
:10412000002029802080491C332029802080491CC0
:10413000002029802080491C342029802080491CAF
:10414000002029802080491C3A2029802080491C99
:10415000002029802080491C4A2029802080491C79
:10416000002029802080491C5C2029802080491C57
:10417000002029802080491C812029802080491C22
:10418000002029802080491CA62029802080491CED
:10419000002029802080491CE52029802080491C9E
:1041A000012029802080491C132029802080491C5F
:1041B000012029802080491C542029802080491C0E
:1041C000012029802080491C822029802080491CD0
:1041D000012029802080491CCA2029802080491C78
:1041E000022029802080491C002029802080491C31
:1041F000022029802080491C012029802080491C20
:10420000022029802080491C342029802080491CDC
:10421000022029802080491C672029802080491C99
:10422000022029802080491C842029802080491C6C
:10423000022029802080491CA42029802080491C3C
:10424000022029802080491CB72029802080491C19
:10425000022029802080491CCF2029802080491CF1
:10426000022029802080491CDE2029802080491CD2
:10427000022029802080491CF22029802080491CAE
:10428000022029802080491CFE2029802080491C92
:10429000032029802080491C102029802080491C6F
:1042A000032029802080491C332029802080491C3C
:1042B000032029802080491C6D20298020804FF414
:1042C0005541002029802080491C332029802080EE
:1042D000491C002029802080491C3420298020800E
:1042E000491C002029802080491C3A2029802080F8
:1042F000491C002029802080491C4A2029802080D8
:10430000491C002029802080491C5C2029802080B5
:10431000491C002029802080491C81202980208080
:10432000491C002029802080491CA620298020804B
:10433000491C002029802080491CE52029802080FC
:10434000491C012029802080491C132029802080BD
:10435000491C012029802080491C5420298020806C
:10436000491C012029802080491C8220298020802E
:10437000491C012029802080491CCA2029802080D6
:10438000491C022029802080491C0020298020808F
:10439000491C022029802080491C0120298020807E
:1043A000491C022029802080491C3420298020803B
:1043B000491C022029802080491C672029802080F8
:1043C000491C022029802080491C842029802080CB
:1043D000491C022029802080491CA420298020809B
:1043E000491C022029802080491CB7202980208078
:1043F000491C022029802080491CCF202980208050
:10440000491C022029802080491CDE202980208030
:10441000491C022029802080491CF220298020800C
:10442000491C022029802080491CFE2029802080F0
:10443000491C032029802080491C102029802080CD
:10444000491C032029802080491C3320298020809A
:10445000491C032029802080491C6D202980208050
:104460004FF45641002029802080491C33202980A8
:104470002080491C002029802080491C342029806C
:104480002080491C002029802080491C3A20298056
:104490002080491C002029802080491C4A20298036
:1044A0002080491C002029802080491C5C20298014
:1044B0002080491C002029802080491C81202980DF
:1044C0002080491C002029802080491CA6202980AA
:1044D0002080491C002029802080491CE52029805B
:1044E0002080491C012029802080491C132029801C
:1044F0002080491C012029802080491C54202980CB
:104500002080491C012029802080491C822029808C
:104510002080491C012029802080491CCA20298034
:104520002080491C022029802080491C00202980ED
:104530002080491C022029802080491C01202980DC
:104540002080491C022029802080481C342128809A
:104550002180411C022029802080481C672128805E
:104560002180401C022128802180411C8420298038
:104570002080481C022128802180401CA421288002
:104580002180401C022128802180401CB7212880E6
:104590002180401C022128802180401CCF212880BE
:1045A0002180401C022128802180401CDE2128809F
:1045B0002180411C022029802080481CF221288073
:1045C0002180401C022128802180401CFE2128805F
:1045D0002180401C032128802180401C102128803C
:1045E0002180401C032128802180401C3321288009
:1045F0002180401C032128802180401C6D212880BF
:1046000021804FF47040552128802180401CAA2130
:1046100028802180401C522128802180401C0821B4
:1046200028802180401C0021288021804FF43141C6
:10463000CC2029802080491C0020298020804FF434
:1046400036400521288021804FF437417020298091
:104650002080481C7021288021804FF4384001219F
:1046600028802180401C032128802180401C288034
:104670002180401C288021804FF43C40022128806A
:104680002180401C002128802180401C288021801E
:104690004FF44941D02029802080481C02212880E5
:1046A0002180401C502128802180401C28802180AE
:1046B000401C288021804FF4545000212880218004
:1046C0004FF468505521288021804FF4885028806D
:1046D000782004F073FB4FF42450288086E0E22019
:1046E00028801D202080022020800420208064203B
:1046F00004F064FBE0202880012020800A2004F0E0
:104700002DFBE0202880032020800C2004F026FBD5
:10471000012028800A2004F021FBE62028802F2099
:104720002080FF2020802080B02028802020208032
:10473000002020800320208040F21F3020800120B4
:10474000208040F2DF10208000202080B4202880CC
:104750000420208040F21F402080002020802E2056
:10476000208000202080208020802080B62028808B
:10477000022020804FF4037020800020208017202A
:10478000208015202080002020802080F02028809C
:104790000320208029202880D0202880002020800D
:1047A000BE20288005202080FE202080012020803F
:1047B0000020208020802080B820288003202080B6
:1047C00001202080BA20288001202080BE2028805F
:1047D00005202080801F1B492CF0ACFB208001208D
:1047E0002080FF2020800020208020800020FEF7F5
:1047F00031F81548C0F880A1308871884FF6FF78ED
:1048000001FB00F70021084600F0D0F8308928802D
:10481000002F04BF21B0BDE8F08F17F0010018BFD2
:10482000A4F80080B84224BF21B0BDE8F08F00BFDB
:10483000A4F80080A4F80080801CB842F8D321B00E
:10484000BDE8F08FFFDF6F400080214270B4554A11
:10485000002114469379A48841F6631C012B04D0EF
:10486000002B08BF644502D009E0644507D0082842
:1048700005D2DFE800F0161812140C19100E0828E3
:1048800012D2DFE800F0110406080A0C0E10802195
:104890000AE0402108E0C02106E0202104E0602178
:1048A00002E0A02100E0E02145F21055AC420CBF2F
:1048B0004FF458533623A4F5134041381ABFA4F5DA
:1048C000EE40B0F1890041F0080137480380831CB5
:1048D000198064450ED011F0200F3249B1F802C0A2
:1048E000098802D08C4505D901E0614502D9A2F8BA
:1048F00000C05180DFF8ACC0AC42BCF80C10BCF872
:104900000AC0A0F800C030D100241C800CF10104C2
:10491000048000241C800CF1020404801488641EAE
:10492000250A1D800CF1030CA0F800C004F0FF0C58
:10493000A3F800C001804FF0000CA3F800C001F103
:10494000010CA0F800C04FF0000CA3F800C001F16A
:10495000020CA0F800C05288521E4FEA122CA3F895
:1049600000C0C91C0180D0B219E04FF0000CA3F8C0
:1049700000C0A3F800C0B2F800C0ACF1010C4FEACF
:104980001C241C800CF0FF0CA3F800C00180002048
:10499000188018805088401E010A1980C0B2188003
:1049A00070BC7047F4030020FE07006C2DE9F00393
:1049B0002D4F2E4C3B46B7F80480B3F80CC0060AC6
:1049C0000D0AA21C5B89A8F5C859B9F163090FD07B
:1049D000A8F5AA47103F2380168036D0C0B21080B9
:1049E000A4F800C01580C8B21080BDE8F00370477D
:1049F000DFF8748097F80690B8F80080B9F1000FDE
:104A000017D023801680C0B21080A8F10103180AC5
:104A10001080D8B21080A4F800C01580C8B21080F1
:104A20007888411E080A1080C8B21080BDE8F003E3
:104A30007047A8EB0000401E80B223800023138043
:104A40001380030A1380C0B2E4E75B1C2380C0B26A
:104A50001080A4F800C015800CF101002080C8B2BD
:104A60001080BDE8F0037047F4030020FE07006CDF
:104A70002DE9FF4F88B01E46DDF854B00C4688463D
:104A800013F0070018BF012000EBD600710848435F
:104A9000C1B20191002100910199A2F12000C0B2A0
:104AA00000299CBF0CB0BDE8F08F00EB4001334AF9
:104AB000DFF8CCA002EB8101049102F2744101EB1A
:104AC0000011039100EBC00002F6642101EB8000AD
:104AD000DFF8B09002900C2E14D0102E16D0182EA5
:104AE0001CBF0CB0BDE8F08F00990298455C002710
:104AF00015F0800F0ED0BAF8002021460898FEF776
:104B00001BF810E000990498455CF0E700990398C1
:104B1000455CECE7BBF1000F05D1BAF80220214655
:104B20000898FEF709F86806050E601C84B2B9F80B
:104B30000200A0429CBF0CB0BDE8F08FA4EB0800BF
:104B4000B0420CD108984446401C80B20890B9F895
:104B5000001081429CBF0CB0BDE8F08F03E0781CD0
:104B6000C7B2082FC4D30098401CC0B201460090C1
:104B700001988842AFD80CB0BDE8F08F56170308F3
:104B800066000020F40300202DE9F84F044600F0F1
:104B9000FF08DDE90A7510190E461FFA80FA981908
:104BA0001FFA80F9287820385E2894BF4FF0000B58
:104BB000BDE8F88FA24502D8F019444686B2B14547
:104BC00098BFBDE8F88FCDF800B02A783B46314653
:104BD0002046FFF74DFF04EB570084B215F8010F94
:104BE00020385E28E6D9BDE8F88F000038B50121ED
:104BF000482000F08DF82024ADF8004010208DF8FA
:104C0000030003200B4D8DF8020069462846FDF78E
:104C100081FB20212846FDF7DDFBADF80040064C66
:104C200069462046FDF776FB20212046FDF7D2FBA2
:104C300038BD0000000C014000180140FEE770473D
:104C400010B4C27801784FF00F0C012322B3184A38
:104C5000126801F1E02102F4E062C2F5E062120A9A
:104C6000C2F104042CFA02F290F801C00CFA04FC20
:104C70008478224042EA0C02120181F80024007874
:104C800000F01F0103FA01F14009800000F1E0206B
:104C9000C0F8001110BC704701F01F0003FA00F0CB
:104CA0004909890001F1E021C1F8800110BC704779
:104CB0000CED00E0034940F0FD7040F080600860BA
:104CC000704700000CED00E0044A0029516914BF50
:104CD000084321EA000050617047000000100240C4
:104CE000044A0029D16914BF084321EA0000D061B9
:104CF0007047000000100240044A0029116914BFE7
:104D0000084321EA000010617047000000100240D3
:104D1000044A0029916914BF084321EA0000906108
:104D20007047000000100240254910B44A6812F094
:104D30000C03244A18BF042B01D0082B01D00260B9
:104D400015E04A684B6802F470124FF0020C13F43D
:104D5000803F0CEB924203D04B6813F4003F03D02A
:104D6000194B5A43026002E0164B5A4302604A68EC
:104D70000F2303EA1212154B9A5CD0F800C02CFAEC
:104D800002F24260D1F804C0072404EA1C2C13F894
:104D90000CC022FA0CFCC0F808C0D1F804C004EA28
:104DA000DC2C13F80C30DA40C2604968032303EAB4
:104DB0009131074B595CB2FBF1F1016110BC7047B6
:104DC0000010024000127A0000093D00100000208F
:104DD0000C0000204FF0E021042808690CBF40F0CF
:104DE000040020F004000861704710B52BF0CAFBE6
:104DF000012808BF10BDBDE810402AF085BF0000A3
:104E0000374882B0016841F0010101604168354ACC
:104E100011404160016821F4102121F0807101608E
:104E2000016821F480210160416821F4FE014160A4
:104E30004FF41F018160002201920092016841F449
:104E400080310160016801F4003100910199491C31
:104E50000191009919B90199B1F5A06FF2D10168DA
:104E600011F4003F08BF009233D0012100911E4988
:104E70000A6842F010020A600A6822F003020A601F
:104E80000A6842F002020A6041684160416841607C
:104E9000416841F480614160416821F47C114160C6
:104EA000416841F4E8114160016841F0807101609E
:104EB000016811F0007FFBD0416821F003014160DF
:104EC000416841F002014160416801F00C0108298C
:104ED000FAD106494FF00060086002B07047000048
:104EE000001002400000FFF80020024008ED00E042
:104EF00070B4B0F820C02CF0100CA0F820C0068BC5
:104F0000B0F820C04FF6FF7426F4734604EA03336A
:104F1000334304EA02221A43A0F1804304EA011554
:104F2000B3F596331CBFA0F18043B3F59A3314D088
:104F3000B0F1804F1CBFA0F18043B3F580630CD06B
:104F4000A0F18043B3F500631FBFA0F18043B3F528
:104F500040632CF0A003194302D12CF02001294317
:104F600041F010010283018470BC704770B50C469B
:104F70000546012184B01646C802FFF7C9FEADF808
:104F80000040ADF804500024114DADF80640ADF8D6
:104F900002408DF808406946284600F0C9FA01220F
:104FA0001146284600F068FA19208DF80C008DF89B
:104FB0000D4001218DF80E108DF80F1003A8FFF79A
:104FC0003FFEF1B2284600F03EF904B070BD00008B
:104FD000002C014010B5074C0121204600F05AF981
:104FE00010B10549012008602046BDE810400121AC
:104FF00000F026B9002C01403800002010B5012136
:10500000880700F047F9002808BF10BD0121880774
:1050100000F016F902480168491C016010BD00004B
:10502000B800002070B50C460546012184B0164634
:105030000846FFF755FEADF800400024ADF80450D7
:10504000ADF80640ADF8024069464FF0804000F0F0
:105050006FFA01221146900700F00EFA1C208DF81D
:105060000C008DF80D4002208DF80E0001208DF807
:105070000F0003A8FFF7E4FD31464FF0804000F039
:10508000E2F804B070BD000030B50C46054689B0AA
:1050900001210220FFF724FE01210420FFF738FE42
:1050A0008020ADF80C0018208DF80F0003208DF83B
:1050B0000E0003A91348FDF72DF9ADF80450ADF823
:1050C00000400024104DADF80640ADF8024069469E
:1050D000284600F02DFA7020ADF810000120ADF840
:1050E0001200ADF8184004A9284600F0CDF90821B7
:1050F000284600F00EFA0121284600F0A4F809B075
:1051000030BD0000000801400004004010B5044616
:1051100088B001210420FFF7E3FD01210820FFF7FB
:10512000F7FD03A8FDF758F9C020ADF80C000420E6
:105130008DF80F0003208DF80E0003A91F48FDF71E
:10514000E9F8684600F042FA0020ADF80440ADF8F6
:1051500000001B4CADF80600ADF802006946204681
:1051600000F0E6F90A231A460321204600F074F8FD
:1051700004A800F079F90F20ADF8180004A9204622
:1051800000F094F801221146204600F075F91E2027
:105190008DF81C0001218DF81D108DF81E108DF862
:1051A0001F1007A8FFF74CFD0021204600F0BDF9B5
:1051B0000121204600F047F808B010BD000C014066
:1051C0000008004010B50A4C0121204600F062F8AA
:1051D00038B1084908688860002008600649032043
:1051E00008602046BDE81040012100F029B8000009
:1051F00000080040B8000020380000200248018864
:105200004FF6FE7101807047100C004010B50A4C3B
:105210000121204600F03EF840B10849D1F8940140
:1052200000280CBF01200020C1F894012046BDE8F1
:105230001040012100F004B800100040000023429B
:10524000C943018270470029018814BF41F0010160
:1052500021F001010180704730B40589B0F818C011
:10526000048C25F0070529432CF0030C2CF4407C1A
:1052700040F201154CEA050C4FF6FF7505EA0313E1
:1052800024F022041A4322430181A0F818C00284AA
:1052900030BC7047038A002280890B4200EA01007B
:1052A0001CBF002801221046704700002DE9F05F66
:1052B0000E460446B1F800906648DFF89CC1674F7F
:1052C000DFF89C81DFF89CE14988B28833894FF68A
:1052D000FF75B9F1000F3FD0B9F1040F77D0B9F1E4
:1052E000080FB4F8209071D029F48059A4F82090C8
:1052F000B4F81CA0B4F820902AF4734A05EA0222FC
:1053000042EA0A0205EA03331A4305EA013B8442F2
:1053100018BF64450BD0B4F1804F18BFBC4206D013
:1053200044451EBF744529F40240084303D129F4C3
:10533000005040EA0B0040F48050A2832084B079F2
:10534000A18B21F44061A183A18B05EA002041EAF1
:105350000000A083BDE8F09FB4F8209029F0010977
:10536000A4F82090B4F818A0B4F8209005EA03132C
:105370002AF0F30A43EA020242EA0A02844218BF10
:10538000644508D0B4F1804F18BFBC4203D04445F7
:1053900018BF744506D129F0020040EA010040F030
:1053A000010005E029F00A0040EA010040F0010098
:1053B00022832084F088218B21F00C012183218B12
:1053C00041EA00002083BDE8F09F00E00EE02046A7
:1053D000FFF78EFDB079218B21F440612183218B71
:1053E00005EA002008432083BDE8F09F29F4807976
:1053F000A4F82090B4F81CA0B4F8209005EA031398
:105400001A432AF0F30A05EA012B42EA0A0284420F
:1054100018BF64450BD0B4F1804F18BFBC4206D012
:1054200044451EBF744529F42060084303D129F484
:10543000007040EA0B0040F48070A2832084F08862
:10544000A18B21F00C01A183A18B41EA0000A08374
:10545000BDE8F09F002C01400034014000040040F2
:1054600000080040000C0040002101804180012222
:105470008280C18001817047002A828914BF114354
:1054800022EA01018181704730B4028C22F01002BF
:105490000284038CB0F804C0028B0D8822F4E64429
:1054A0004FF6FF7202EA05252C430D8923F02003F5
:1054B00002EA05152B434D8802EA05152B43A0F19E
:1054C0008045B5F596351CBFA0F18045B5F59A35F8
:1054D00017D14D8923F0800302EA05152B438D88EF
:1054E00023F0400302EA05152B438D892CF4406C10
:1054F00002EA850545EA0C0CCD8902EA850242EAFA
:105500000C0CA0F804C00483C9880187038430BC54
:105510007047028B4FF6FF7322F4006203EA012109
:1055200011430183704701877047818470470000F1
:1055300010B40288234BDFF890C0984218BF604532
:1055400011D0B0F1804F1CBFA0F18044B4F580644D
:1055500009D0A0F18044B4F500641CBFA0F18044E0
:10556000B4F5406403D14C8822F070022243A0F1CC
:105570008044B4F580541CBFA0F18044B4F5A0541D
:1055800003D0CC8822F44072224302808A8882852C
:105590000A880285984218BF60450DD0A0F180426C
:1055A000B2F5A0321FBFA0F18042B2F5A232A0F145
:1055B0008042B2F5A43201D1097A018601218182AB
:1055C00010BC7047002C0140003401404FF6FF71C1
:1055D000818000210180C1804180017270470000FC
:1055E0002DE9F041401C491C144648432BF0CFFCE8
:1055F00000221C4B2BF016FB02460B4600201A49DA
:105600002BF010FB2BF066FC07464FF4BB606043A9
:105610002BF0BDFC054615480C4600682BF0B7FC86
:1056200080460E4638462BF0B2FC0022104B2BF081
:1056300001FD424633462BF0FDFC2A4623462BF063
:10564000F1FA2BF0B1FA04462BF028FE02460B4685
:1056500008A0FAF7D5FE0A49002008602046BDE8F8
:10566000F0810000882A91410000F03F28000020CE
:1056700000004E4073706565643A252E33660A005B
:10568000B800002010B5194C40F22551204600F01A
:105690003CF8002808BF10BD204600F0CFF8C2B289
:1056A0001348018811F4004F18BF10BD11F4804F4A
:1056B0004FF0000306D00A2A08BF41F4004112D07F
:1056C000038010BD0D2A08BF41F480410BD0C1F307
:1056D0000D0C084C491C89B204F80C200180C72924
:1056E00098BF10BDECE7018010BD000000380140FC
:1056F000040000202C0300200029818914BF41F4FC
:10570000005121F400518181704710B401F01F0253
:1057100001240023C1F3421C04FA02F2BCF1010F80
:1057200004BFB0F80CC00CEA020208D0BCF1020FB2
:105730000CBFB0F810C0B0F814C00CEA0202090A9D
:10574000008804FA01F10840002A1CBF0028012348
:10575000184610BC7047C1F3421301F01F014FF00F
:10576000010C0CFA01F1012B08BF0C3003D0022B05
:105770000CBF10301430002A026814BF114322EA13
:10578000010101607047000030B50446008A85B011
:105790000D464CF6FF710840E98808432082A08935
:1057A0004EF6F3110840A9882A8911436A891043EB
:1057B0000843A081A08A4FF6FF410840A989084309
:1057C000A0826846FFF7B0FAA4F18040B0F59C30A3
:1057D0000CBF03980298A18911F4004F00EBC0019F
:1057E00001EB0010296814BF49008900B0FBF1F0FB
:1057F000114A6FF0180CA2FB0031490909010B098D
:1058000003FB0CF300EB8300A38913F4004F4FF06C
:10581000320314BF03EBC00003EB0010A2FB002017
:105820004FEA501014BF00F0070000F00F000843CB
:10583000208105B030BD00001F85EB518088C0F38A
:1058400008007047FEE7490050EAC12018BF042055
:105850004A0D18BF40F0010040F2FF72B2EB515FF9
:1058600008BF40F00200012808BF0520704730380B
:105870000A2801D2012070470020704710B540214E
:105880000C4801F074FD002204210B4823F040FB7A
:105890000A4CA06001202070064801F049FD002854
:1058A000A06804D023F018FC0020207010BD23F065
:1058B00007FCF9E7D4E70020F1850008B0020020DA
:1058C00030B4B1F90030B2F900C06345D8BF6346C7
:1058D0000380B1F90240B2F902C06445C8BFA446D2
:1058E000A0F802C0B1F90450B2F90440A542B8BF13
:1058F0002C468480B1F90610B2F906209142A8BF67
:105900001146C1800120A34203DC6145A4BF30BC25
:105910007047002030BC7047F8B50D460446B0F91A
:105920000000B1F90010164688424BDBB4F90210B2
:10593000B5F90220914245DBB4F90410B5F9042011
:105940008A423FDBB4F90610B5F906208A4239DBFA
:10595000B6B3ADF800006088ADF802003246694683
:10596000284600F09DF8002808BFF8BDA088ADF8D3
:1059700000006088ADF8020032466946284600F013
:105980008FF8002808BFF8BD2088ADF80000E08837
:10599000ADF8020032466946284600F081F800283A
:1059A00008BFF8BDA088ADF80000E088ADF802009F
:1059B00032466946284600F073F8002808BFF8BD53
:1059C0000120F8BD0020F8BDB0F90020B1F9043085
:1059D0009A4213DCB0F90420B1F9003093420DDC97
:1059E000B0F90220B1F906309A4207DCB0F906009E
:1059F000B1F902108842A4BF01207047002070470F
:105A0000F8B50D460446B0F90400B1F90010164689
:105A1000884243DBB4F90600B5F9021088423DDB49
:105A2000B4F90000B5F90410814237DBB4F9021073
:105A3000B5F906208A4231DB76B3ADF80000608804
:105A4000ADF8020032466946284600F029F818BB36
:105A5000A088ADF800006088ADF8020032466946C3
:105A6000284600F01DF8B8B92088ADF80000E0889D
:105A7000ADF8020032466946284600F011F858B9E0
:105A8000A088ADF80000E088ADF802003246694613
:105A9000284600F005F808B10020F8BD0120F8BD47
:105AA0002DE9F04105460E46B1F90000B5F90010A8
:105AB00082B014468842A4BFB5F90420824259DB63
:105AC000B6F902C0B5F902008445A4BFB5F90630A5
:105AD00063454FDB002C40F3E980521A181A521C20
