:020000040800F2
:1000000008F40020D10200081B4B0008C72200089A
:10001000194B00088D190008415700080000000026
:10002000000000000000000000000000390200088D
:100030005D200008000000007D020008994D0008C6
:10004000EB020008EB020008EB020008EB020008DC
:10005000EB020008EB020008EB020008EB020008CC
:10006000EB020008EB020008EB020008EB020008BC
:10007000EB020008EB020008EB020008EB020008AC
:10008000EB020008EB020008EB020008EB0200089C
:10009000EB02000891190008EB020008EB020008CF
:1000A000EB020008494F0008EB020008EB020008D1
:1000B000714F0008EB02000835510008EB02000800
:1000C000EB020008EB020008EB020008EB0200085C
:1000D000EB020008A5550008EB020008EB0200083F
:1000E000EB020008EB020008EB020008EB0200083C
:1000F000EB020008EB020008EB020008EB0200082C
:10010000EB020008EB02000871510008EB02000846
:10011000EB020008EB02000881510008EB02000826
:10012000EB020008EB020008EB020008EB020008FB
:1001300000F002F800F070F80AA090E8000C824489
:100140008344AAF10107DA4501D100F065F8AFF266
:10015000090EBAE80F0013F0010F18BFFB1A43F0A5
:1001600001031847441F0300641F03000A444FF0B3
:10017000000C10F8013B13F0070408BF10F8014B06
:100180001D1108BF10F8015B641E05D010F8016B4B
:10019000641E01F8016BF9D113F0080F1EBF10F8AF
:1001A000014BAD1C0C1B09D16D1E58BF01F801CBD2
:1001B000FAD505E014F8016B01F8016B6D1EF9D555
:1001C0009142D6D37047000000230024002500266A
:1001D000103A28BF78C1FBD8520728BF30C148BFAA
:1001E0000B60704766292BF0AC87642900F05281C0
:1001F000782900F08B81732900F015860020704764
:100200001FB500F049FE0400002000212BF09AF9F0
:10021000E0601FBD10B510BD00F042FF1146FFF7B2
:10022000EFFF24F0CBFA00F060FF03B4FFF7F2FF1A
:1002300003BC06F0F7FF0000224B19680868B0E81D
:10024000F00F80F30988BFF36F8F4FF0000080F349
:1002500011884EF00D0E704700000000064800683F
:10026000006880F3088862B661B6BFF34F8FBFF3B2
:100270006F8F00DF00BF00BF08ED00E0EFF30980E3
:10028000BFF36F8F0F4B1A6820E9F00F106008B5AD
:100290004FF0500080F31188BFF34F8FBFF36F8F83
:1002A0002AF0B0FA4FF0000080F31188BDE8084052
:1002B00019680868B0E8F00F80F30988BFF36F8F02
:1002C000704700BFB8000020EFF3058070470000C2
:1002D0000948804709480047FEE7FEE7FEE7FEE7DA
:1002E000FEE7FEE7FEE7FEE7FEE7FEE70448054916
:1002F000054A064B70470000AD4D0008310100086B
:1003000008EA002008F4002008EC002008EC002097
:10031000704753EA020C00F069802DE9F04B4FF072
:100320000006002B1FBFB3FA83F503FA05F424FA85
:1003300005F65E4012BF1643B2FA82F502FA05F4E2
:10034000C5F120051EBF22FA05FC44EA0C04203545
:1003500056EA044C4FEA144418BF641C4FF00008DE
:100360004FF00009904271EB030C39D3002919BFFB
:10037000B1FA81F701FA07F6B0FA80F700FA07F64A
:10038000C7F120071EBF20FA07FC46EA0C062037FB
:10039000B6FBF4FCA7EB0507103F07F01F0BCBF1F2
:1003A00020060CFA0BFB2CFA06F644BFB3460026D7
:1003B000202FA4BF5E464FF0000B5BEA060C08BF7F
:1003C0004FF0010B19EB0B09ABFB027C48EB060865
:1003D000C01B06FB02CC0BFB03CC71EB0C01C1E78D
:1003E0000B46024641464846BDE8F08B13B54FF038
:1003F00000004FF00001AFF30080BDE81C407047E3
:100400000FB4044910B503AA029800F011FD10BC06
:100410005DF814FBA00000200FB41CB5074B06AA22
:100420007B4469460090059800F0D3FC00206946A3
:1004300000F0E2FC1CBC5DF814FB0000D5090000D4
:1004400070B50C460546012A05D02878800600D5EF
:10045000EA69002302E0012305E05B1C934202D21B
:10046000E05C0028F9D1A869E618C01AA861286ADA
:10047000184428622846AFF3008004E0D5E9012142
:1004800014F8010B9047B442F8D32846AFF300802C
:1004900070BD00002DE9F041064600241068752962
:1004A000314616A510D0AFF30080002802DA404292
:1004B00013A507E031688A0701D512A502E04907B4
:1004C00004D511A5012401E0AFF3008000210A2228
:1004D00006F1240709E0B0FBF2FCB0FBF2F302FBEB
:1004E0001C00303078541846491C0028F3D12346AC
:1004F0002A463046BDE8F04100F0FEB90000000099
:100500002D0000002B0000002000000070B5044604
:100510000D4621461068AFF300802188090502D5F9
:100520000F4A7A4402E00E4A7A440E32002104F166
:10053000240305E000F00F060009965D5E54491C97
:100540000028F7D120780023000704D5702D02D0B1
:1005500009B1022311322046BDE8704000F0CCB949
:100560005E1503002DE9F05F894604464FF0000A4E
:10057000DFF824B1FB44C0F820A02046E16888479A
:1005800000287DD0252806D0D4E901219047206A93
:10059000401C2062F1E700255F462046E16888475D
:1005A0002028064607DB312E05D2B81910F8200C9A
:1005B00008B10543F1E7A80701D525F00405C4F803
:1005C0001CA00027C4F818A02A2E09D0304605F038
:1005D000EAF838B304EB8708303EC8F8186019E031
:1005E00059F8041B204604EB87029161E1688847B3
:1005F000012F064618D1E069002820DA25F02005F1
:100600001DE0D8F8180000EB800006EB4000303801
:10061000C8F818002046E1688847064605F0C3F888
:100620000028EED1012F0AD02E2E08D12046E168F5
:1006300088477F1C0646022F45F02005C4DBA069D1
:10064000002803DA404245F00105A061E80701D027
:1006500025F01005A6B1A6F14100192802D82036D0
:1006600045F400654A463146204625604D46FFF771
:10067000B9FD60B1012807D0ED1D25F0070000E0AD
:1006800007E000F1080978E705F1040975E730464D
:100690007AE7206ABDE8F09F3415030040EA0103C1
:1006A000024630B59B0710D14FF0013400E008C27C
:1006B00008C91D1B9D4315EAC41FF8D013F0FF01A4
:1006C00002F8011B0DD01B0AF8E711F8013B002BC3
:1006D00002F8013B05D011F8013B002B02F8013B69
:1006E000F3D130BD10B5431C02E010F8011B71B10D
:1006F0008107FAD14FF0013202C88C1A8C4314EAF8
:10070000C211F9D0C01A0A0603D0C01E10BDC01A0B
:1007100010BD0A0401D0801E10BD0902FCD0401E8D
:1007200010BD032A40F2308010F0030C00F0158059
:1007300011F8013BBCF1020F624498BF11F801CBE4
:1007400000F8013B38BF11F8013BA2F1040298BF49
:1007500000F801CB38BF00F8013B11F0030300F0B3
:100760002580083AC0F0088051F8043B083A51F857
:1007700004CBA0E80810F5E7121D5CBF51F8043B5C
:1007800040F8043BAFF30080D20724BF11F8013BCF
:1007900011F801CB48BF11F8012B24BF00F8013B31
:1007A00000F801CB48BF00F8012B704710B5203A84
:1007B000C0F00B80B1E81850203AA0E81850B1E81A
:1007C0001850A0E81850BFF4F5AF5FEA027C24BFD0
:1007D000B1E81850A0E8185044BF18C918C0BDE8C7
:1007E00010405FEA827C24BF51F8043B40F8043B90
:1007F00008BF7047D20728BF31F8023B48BF11F845
:10080000012B28BF20F8023B48BF00F8012B70479E
:1008100002F0FF0343EA032242EA024200F01CBB5B
:100820004FF0000200B5134694469646203922BF89
:10083000A0E80C50A0E80C50B1F12001BFF4F7AFD4
:10084000090728BFA0E80C5048BF0CC05DF804EBB6
:10085000890028BF40F8042B08BF704748BF20F824
:10086000022B11F0804F18BF00F8012B70470000D9
:100870004FF0013C50F8042B51F8043B9A4221D12F
:10088000A2EB0C03934313EACC1317D150F8042BBB
:1008900051F8043B9A4215D1A2EB0C03934313EA9F
:1008A000CC130BD150F8042B51F8043B9A4209D1D8
:1008B000A2EB0C03934313EACC13DBD04FF0000000
:1008C000704700BFD01A01BAB1FA81F101F01801E6
:1008D00022FA01F0CB40C1F12001DBB2C0B2C01A54
:1008E0002CFA01F3D11A914311EAC311E6D17047F2
:1008F00070477047704770472DE9F0470D4699469D
:100900009246044600F124080168880604D5E0698F
:1009100021F01001216000E00120A84201DD471B09
:1009200000E00027A1697A1902EB0900081AA0610A
:100930002078C00602D42046AFF30080002608E0ED
:10094000D4E901211AF806009047206A401C761C61
:1009500020624E45F4DB2078C0060AD52046AFF36E
:10096000008006E0D4E9012130209047206A401C35
:100970002062381EA7F10107F4DC07E0D4E9012169
:1009800018F805009047206A401C2062281EA5F137
:100990000105F3DC2046AFF300802078000602D585
:1009A0000220BDE8F0870120FBE770472DE9FF4FEB
:1009B0000C461E464FF0FF378BB0D2E90001DDF840
:1009C00060800A908A46C1F30A5505B93D46002168
:1009D00008464FF00000BAF1000F00F4400005DABD
:1009E00000EB80004FF4400101EA50004FEA9059BB
:1009F000B9F1010F00DDB9460A9850EA4A000ED05D
:100A000044F61050A5F2FF3545432F14B8F1000FFE
:100A10001ED07542291E1EDDC9F100021CE0B8F18E
:100A2000010F4FF0000001D0302103E0F24305E058
:100A30002154401CB042FBDB3046002200212154EF
:100A40000B99C1F80880C1E900200FB0BDE8F08F14
:100A5000BD1B6D1CDEE74A4600DA694206A800F0BD
:100A6000A5FA06AB93E8070003AB83E807005046FE
:100A70000A9900F043FB8DE80700A0F500501F38ED
:100A800000900398002D0ADD42F21F014A460844F7
:100A9000002303A90390684600F0ACFD09E0A0F52F
:100AA00000504A461F38002303A90390684600F00F
:100AB000B6FD8DE807000004000C03D04FF0FF30B6
:100AC000410800E01046B8F1000F03D00022009268
:100AD00015461EE0751E05D400F0E2F9303262556D
:100AE0006D1EF9D5B3460122084302D000227F1CB7
:100AF00004E02078302801D100227F1E002A0997C7
:100B000084D01DE0112D07DA00F0CAF930326255A9
:100B10006D1C50EA0102F5D1084302D00098C8B11B
:100B20000EE00021681E05E0235C625C63542254E1
:100B3000401E491C8142F7DBAB46A81B401E0990B2
:100B4000002004F80B000B98099AC0F80880C0E94F
:100B5000002B7AE711264FF0000857E72DE9F04FF8
:100B600088460446D21D22F0070191B0D1E9000168
:100B7000CDE90A0104F0E5FD02460B98C00F01D053
:100B80002D2007E02068810701D52B2002E02021DD
:100B900001EAC000032A099001D0072A05DB0346B9
:100BA0004146204600F0C2F90BE12078800601D5CD
:100BB000E06900E00620B8F1650F814606D0B8F183
:100BC000660F18D0B8F1670F70D131E00020B9F18D
:100BD000110F009001DB112301E009F101030AAAC2
:100BE00001A90CA8FFF7E2FEDDE90C70002609F16F
:100BF0000105834647E001204B4600904FF0004737
:100C00000AAA01A90CA8FFF7D1FEDDE90DB00C99E5
:100C10005D46002610B909F101000D18B9EB050079
:100C200003D4C0F1FF3609F10105A5EB09002BE063
:100C3000B9F1010F01DA4FF001090020B9F1110FEC
:100C40000090484601DD112300E003460AAA01A9ED
:100C50000CA8FFF7ABFEDDE90C704D46002683467D
:100C6000207800070AD4AB4500DA5D4601A8012DC3
:100C700004DD411911F8011C302907D04F4502DA73
:100C800017F1040F04DA012082460FE06D1EEEE733
:100C9000002F02DCED1B3E4403E0781CA84200DD7F
:100CA0007D1CB81B00F1010A4FF0004720780007B7
:100CB00003D4AA4501DB4FF0FF3A0021B7F1004F02
:100CC0000DF143088DF8431024D002202B23002F70
:100CD00001DA7F422D230A21021EA0F1010000DC6F
:100CE0005FB197FBF1FC97FBF1F201FB1C7C17460F
:100CF0000CF1300C08F801CDEEE7A8F1010003700B
:100D00002188090501D5452100E06521A0F10108F0
:100D100000F8011C09980FA9A1EB0807FF1D00B1FD
:100D20000120411901EBEA70A1693844081A401EFC
:100D3000A0612078C00602D42046AFF30080099855
:100D400028B1D4E901219047206A401C2062207814
:100D5000C00622D52046AFF300801EE0002E04DB43
:100D6000B34502DD01A8805D00E03020D4E9012117
:100D70009047206A401C2062761CAAF101005FEABD
:100D8000000A0AD100F088F8C0680168405CD4E924
:100D900001219047206A401C2062281EA5F1010510
:100DA000DCDC07E0D4E9012118F8010B9047206A48
:100DB000401C2062381EA7F10107F3DC2046AFF388
:100DC0000080032011B041E601694A1C02610878E5
:100DD000704700B58FB0CDE901310021059105497B
:100DE0007944CDE9031011466846FFF7BBFB0FB00D
:100DF00000BD0000E5FFFFFF0A6802F8010B0A6072
:100E0000704710B5436913B1AFF3008001E0FFF7FD
:100E100017FB012010BD127800F124010A70002296
:100E20004A700122EDE711684FF0FF32E9E7000058
:100E3000074B70B50D467B44FFF7CBFF04462846B1
:100E400000F026F910B14FF0FF3070BD204670BDA4
:100E50004FFD00004FF000020429C0F0128010F096
:100E6000030C3FF4DFACCCF1040CBCF1020F18BF53
:100E700000F8012BA8BF20F8022BA1EB0C01FFF713
:100E8000D1BC5FEAC17C24BF00F8012B00F8012B24
:100E900048BF00F8012B704700487047C4E90020A4
:100EA00030B5B0F10A024FEA900E71F100034EEA3C
:100EB000817EB0EB0E0061EB91014FEA101E4EEA0D
:100EC000017E10EB0E0041EB11114FEA102E4EEA9D
:100ED000016E10EB0E0041EB11214FEA104E4EEA6D
:100EE000014E10EB0E0041EB1141401841F10001A1
:100EF0004FEAD00040EA41704FEAD10110EB800583
:100F00004FEA810444EA907444EB01046D1944EB08
:100F10000404521BA3414FF0000348BF0A3200D51E
:100F200030BD401C41F1000130BD00002DE9F04111
:100F30001F46044603260168072A01F4006004DB0B
:100F400008B116A505E016A503E008B115A500E057
:100F500015A521F010002060A069C01EA0610FB18E
:100F6000401EA0612046AFF300804FB1D4E90121BB
:100F700038469047206A401C2062C01C206206E070
:100F8000206AFAE7D4E9012115F8010B9047761E93
:100F9000F8D22046AFF30080BDE8F0814E414E000C
:100FA0006E616E00494E4600696E66002DE9F0479D
:100FB000814616468AB0354878440DC88DE80D0044
:100FC00032487844801C03AC0DC884E80D0041F61B
:100FD0009B300844372190FBF1F290FBF1F5A5F12D
:100FE000800501FB12041B3C02D56442012000E095
:100FF0000020DFF898A080460027FA44AAF1BE0A34
:101000000EE0E0070AD03246684607EB47010123AD
:101010000AEB810100F003FB8DE8070064107F1CE0
:10102000002CEED1194F7F44AE3F19E0E80715D0F0
:1010300007EB04100DF1180A90E80E008AE80E0084
:10104000C068F04201D1981908903246012306A9E0
:1010500003A800F0E4FA03AB83E807006D10641CFA
:10106000002DE3D14FF0010332466946B8F1000F7D
:1010700003A802D000F0BEFA01E000F0D0FAC9E9FE
:101080000001C9F808200AB0BDE8F087800B030012
:10109000007B00F08000704700487047A4E9002002
:1010A0007546FFF7F9FFAE4605006946534620F046
:1010B0000700854618B020B5FFF718F9BDE82040B5
:1010C0004FF000064FF000074FF000084FF0000B04
:1010D00021F00701AC46ACE8C009ACE8C009ACE8B7
:1010E000C009ACE8C0098D46704710B50446AFF39F
:1010F00000802046BDE81040FFF797B85FEA400C3B
:1011000008BF91F0000F4FEA8C234FEAC12243EA57
:1011100051514FEA1C5018BF00F5F0404FEA300023
:1011200018BF41F000415FEA6C5C00F02980BCF11F
:10113000FF3F08BF40F080407047130C06BF120409
:101140004FF0100C4FF0000C130E04BF12020CF104
:10115000080C130F04BF12010CF1040C930F04BF11
:1011600092000CF1020CD30F04BF52000CF1010CE1
:1011700011464FF00002A0F11F00A0EB0C007047D9
:1011800011F0004F08BF704731F000413FF4D5AF78
:101190000B0C06BF09044FF0100C4FF0000C0B0EA7
:1011A00004BF09020CF1080C0B0F04BF09010CF17C
:1011B000040C8B0F04BF89000CF1020CCB0F04BF91
:1011C00049000CF1010CCCF12003A0EB0C0022FA39
:1011D00003F302FA0CF241EA030100F10100704747
:1011E00020F07F4C80EA030023F07F47ACEB07033D
:1011F00003F57C5300F0004003F1FF032DE9804923
:101200004FEA154B09B44FEA144325EA0B4E24EA82
:1012100003480FF2042606EB132749083E785FEADD
:10122000320203FB0667C7F5000707FB06F64FEA25
:1012300054374FEAD64606F1020607FB066CCCF19E
:10124000005C4FEA1C472CEA074C07FB06F40CFB3A
:1012500006F504EB15464FEA961634BF00204FF012
:1012600000404FEAD13706FB07FC4FEA1C4C0CFB51
:101270000BF7D21B03FB0CF761EB07010CFB0EF71E
:10128000B0EB074072EB17420CFB08F734BFA2EB40
:101290000742B2EB074261EB17414FEA0C444FEAB9
:1012A000910706FB07FC4FEA1C4C0CFB0BF7B0EB5D
:1012B000C74072EB573203FB0CF734BFA2EBC742B7
:1012C000B2EBC74261EB57310CFB0EF7B0EBC70036
:1012D00072EB57720CFB08F734BFA2EBC702B2EBFC
:1012E000C70261EB5771039F4FEA816141EA921196
:1012F00004EBCC044FEAD1374FEA826206FB07FCCD
:1013000042EA90124FEA80604FEA1C4C0CFB0BF74C
:10131000D21B03FB0CF761EB07010CFB0EF7B0EBE4
:10132000074072EB17420CFB08F734BFA2EB0742F1
:10133000B2EB074261EB17414FEA8C554FEA910738
:1013400004EB9C2406FB07FC4FEA1C4C0CFB0BF740
:10135000B0EBC74072EB573203FB0CF734BFA2EB84
:10136000C742B2EBC74261EB57310CFB0EF7B0EB53
:10137000C70072EB57720CFB08F734BFA2EBC70231
:10138000B2EBC70261EB577115EB4C254FEA816157
:1013900041EA92114FEA82624FEAD13742EA901253
:1013A00006FB07FC44F100044FEA80604FEA1C4C46
:1013B0000CFB0BF7D21B03FB0CF761EB07010CFBDB
:1013C0000EF7B0EB074072EB17420CFB08F734BF87
:1013D000A2EB0742B2EB074261EB174115EB1C157C
:1013E0004FEA813141EA92414FEA823242EA904229
:1013F0004FEA80304FEA0C7644F1000448EA034398
:101400004EEA0B484FF0000EB2EB080C71EB0307ED
:1014100024BF624639464EEB0E0E4FF0000B00180B
:10142000524149414BEB0B0BB2EB080C71EB03073C
:101430007BF1000B24BF624639464EEB0E0E4FF097
:10144000000B0018524149414BEB0B0BB2EB080C5F
:1014500071EB03077BF1000B24BF624639464EEB6C
:101460000E0E51EA020718BF46F0010616EB0E7683
:1014700055F1000254F1000103D5BDE88901BDE832
:101480000088BDE88901BDE80048B619524141EB2A
:101490000101A3F10103704780807F7E7D7C7B7A10
:1014A0007978777676757473727171706F6E6E6D10
:1014B0006C6C6B6A6A6968686766666564646363B6
:1014C00062616160605F5F5E5E5D5D5C5C5B5B5A3C
:1014D0005A595958585757565655555554545353A9
:1014E00052525251515050504F4F4F4E4E4D4D4D04
:1014F0004C4C4C4B4B4B4A4A4A494949484848474F
:10150000474747464646454545444444444343438C
:101510004342424242414141002B9C4630D4770035
:101520002BD01CB54FEA370703B44FF010004FF033
:101530001001BAF1000F06D0BCF1000FDCBF40F083
:10154000080040F008014FF000000FBCBDE810405B
:101550000BF1010BBBF1010F08BF5FEA170722BFB8
:1015600012F1010211F101014FF0004143F10003BA
:1015700000F0004043EA00007047F9D35708D0E775
:1015800046EA064613F1400F4FEA16461FDD13F1F7
:10159000200FDFBF16430A46002120335B42BED036
:1015A000C3F1200746EA064602FA07F74FEA164655
:1015B00046EA0706C3F1200722FA03F201FA07F709
:1015C00021FA03F14FF0000342EA0702A7E746EAD7
:1015D000020646EA06464FEA164646EA0106BCBF40
:1015E00046EA0646360C4FF000034FF000024FF07B
:1015F000000194E72DE9804C9A46934670B491E837
:10160000380007C831EA400C48BF34EA430C03D520
:10161000FFF7E6FDFFF780FFF0BCBDE8008C2DE989
:10162000804C9A46934670B491E8380007C810F091
:10163000804F08BF13F0804F03D100F005F8FFF78B
:101640006BFFF0BCBDE8008C20F07F4780EA030010
:1016500023F07F4C07EB0C03A3F57C5300F0004014
:10166000A3F1FE0392F0000F00F0B38095F0000F9D
:1016700000F077802DE901494FEA11404FEA144606
:1016800021EA004800FB06FC24EA064708FB06F6B0
:1016900007FB08F800FB07F718EB06484CEB164C65
:1016A0004FEA124B18EB07484FEA15464CEB174030
:1016B00022EA0B4E0BFB06FC25EA06470EFB06F65C
:1016C00007FB0EFE0BFB07F71EEB064E4CEB164C12
:1016D0004FF000061EEB074E4CEB174B18EB0B08B8
:1016E00040F1000018EB0E0B58EB000840F1000031
:1016F0008F1A4FF000013CBFC943661B14BFB5EB06
:10170000040C00213CBFC943F61B4FEA17444EEAC4
:101710008E0E27EA04454FEA1C4704FB07622CEAB9
:10172000074C05FB07F70CFB05F604FB0CFC16EB5E
:10173000074642EB174216EB0C4642EB1C421BEBF2
:10174000060658EB0202414146EA9E0601D5BDE875
:101750000189B619524141EB0101A3F10103BDE832
:1017600001894FEA14454FEA114724EA054621EA68
:10177000074C05FB07F406FB07F70CFB06F105FB1E
:101780000CFC11EB074144EB17444FEA124711EBF5
:101790000C4144EB1C4422EA074C05FB07F206FB14
:1017A00007F70CFB06F605FB0CFC16EB074642EBB5
:1017B000174216EB0C4642EB1C456A1854F1000127
:1017C00048BF7047B619524141EB0101A3F1010333
:1017D000704795F0000F37D04FEA11424FEA144797
:1017E00021EA024624EA074C02FB07F106FB07F751
:1017F0000CFB06F402FB0CFC14EB074441EB174115
:101800004FEA154714EB0C4441EB1C4125EA074C09
:1018100002FB07F506FB07F70CFB06F602FB0CFCC8
:1018200016EB074645EB174516EB0C4645EB1C42FD
:10183000121951F1000148BF7047B619524141EBEE
:101840000101A3F1010370474FEA14454FEA114724
:1018500024EA054621EA074C05FB07F106FB07F7DA
:101860000CFB06F24FF0000605FB0CFC12EB0742E6
:1018700041EB174112EB0C4251EB1C4148BF704742
:10188000921841EB0101A3F10103704700F03CBD48
:1018900070B515460E46044608E02046641CA4B206
:1018A00000F007F86D1E06F8010BADB2002DF4D163
:1018B00070BD10B5044600F0CBFD200AA02101EB5D
:1018C0004000C0B200F090FD00F004FEE0B200F075
:1018D0008BFD00F0FFFD00F0BBFDA12000F084FDBA
:1018E00000F0F8FD002000F049FD044600F0D0FDB6
:1018F000204610BD70B514460D46064606E0297810
:10190000304600F007F8761CB6B26D1C641EA4B217
:10191000F5D270BD70B50D46044600F099FD200A61
:10192000A02101EB4000C0B200F05EFD00F0D2FD4E
:10193000E0B200F059FD00F0CDFD284600F054FD66
:1019400000F0C8FD00F0A4FDBDE870400A2007F0DB
:1019500029BB000038B50121082003F067F94FF4D6
:101960008074ADF8004010208DF803000320064D70
:101970008DF802006946284600F044FC21462846BE
:1019800000F095FC38BD0000000C0140FEE70000AF
:1019900030B5104D85B06A460121284600F05EF949
:1019A0000D4C0099E1809DF80B0020709DF80C0013
:1019B00060709DF80D00A0709DF80E00E0709DF81D
:1019C0000F0020711021284600F014F80220A060BA
:1019D00005B030BD006400401000002010B500F0DC
:1019E0000FFB00F0E9FA03F099F8BDE8104003F0AE
:1019F000A9B8000030B5082310240422B1F5007FF7
:101A00001DD010DC202929D007DC012921D0042990
:101A100022D0082900D1C46030BD402920D0B1F5C2
:101A2000807FF9D10BE00025B1F5004F06D008DC2E
:101A3000B1F5806F03D0B1F5006FEDD185614260E3
:101A400030BDB1F5803F0DD0B1F5003FF8D1446015
:101A500030BD0549816030BDC36030BD036130BD1C
:101A6000046130BD436030BD01010100094910B57A
:101A700088424FF0010101D14C0601E04FF0806433
:101A8000204603F0C7F82046BDE81040002103F0CF
:101A9000C1B8000000640040F0B5827A2F4D0121EA
:101AA00091402A6842F001022A602C4E1C363268AE
:101AB0008A433260294A047B294B0C32A4B914684A
:101AC0008C4314604488C78844EA0744877A03EB50
:101AD000C707C7F840460488878844EA0744877ADE
:101AE00003EBC707C7F84446047B012C12D11468E6
:101AF0000C431460847A026803EBC4044FEA324258
:101B0000C4F84026847A426803EBC4034FEA3242A9
:101B1000C3F84426114AC37A121D002B136806D05D
:101B20000B4313600D4A0389143213B104E08B4355
:101B3000F7E713688B4313600389012B02D1136805
:101B40000B431360407B012802D1306808433060AA
:101B5000286820F001002860F0BD00000066004009
:101B600000600040002A426901D00A4300E08A4335
:101B70004261704710B50368002223F0020303603E
:101B8000036843F0010303604FF6FF7300E0521C4B
:101B90004468E40701D19A42F9D14268D2073ED0A5
:101BA0008A79012A02683CD022F080020260CA7958
:101BB000012A026838D022F0400202600A7A012A23
:101BC000026834D022F0200202604A7A012A0268B8
:101BD00030D022F0100202608A7A012A02682CD0EA
:101BE00022F008020260CA7A012A026828D022F094
:101BF000040202608A78CC78920742EA04620C7987
:101C000042EA04424C79098842EA0452491E0A43D6
:101C1000C261016821F001010160002114E000208F
:101C200010BD42F08002C1E742F04002C5E742F039
:101C30002002C9E742F01002CDE742F00802D1E7E6
:101C400042F00402D5E7491C4268D20701D099420C
:101C5000F9D14068C007E2D1012010BD10B500EBFA
:101C60000113D3F8B04114F004041472D3F8B04156
:101C700033D0E4085460D3F8B04104F00204547245
:101C8000D3F8B44104F00F049472D3F8B441240A99
:101C9000D474D3F8B841D472D3F8B841240A147379
:101CA000D3F8B841240C5473D3F8B841240E94737C
:101CB000D3F8BC41D473D3F8BC41240A1474D3F8CC
:101CC000BC41240C5474D3F8BC311B0E937439B14D
:101CD000016941F02001016110BD640D1460CAE783
:101CE000C16841F02001C16010BD00218171C17146
:101CF000017241728172C1728170C17003210171E0
:101D000002214171012101807047000070B50F4C24
:101D10000025C4F884510E48016821F0F0010160EB
:101D2000016841F030010160052004F5C27407F03C
:101D300055F90848C0F8A451052007F04FF90120D3
:101D40002060052007F04AF9256070BD008021421F
:101D5000041C01400080234238B50121882002F094
:101D600065FF0220ADF8000010208DF8030003206D
:101D70000B4C8DF802006946204600F043FA022120
:101D8000204600F096FA074D6415ADF8004069460C
:101D9000284600F037FA2146284600F08AFA38BD76
:101DA000000C0140001C014070B50F4C0026C4F827
:101DB00084610E48016821F0F0010160016841F082
:101DC00030010160052004F5C27407F007F90848E6
:101DD0000125C0F8A451052007F000F92560052071
:101DE00007F0FCF8266070BD00802142041C014011
:101DF000008023422DE9F0478246184800240168FC
:101E000021F0F0010160016841F0800101601E20B5
:101E100007F0E4F80025124EDFF848902F464FF007
:101E20000108C6F88471052007F0D8F8C6F8848147
:101E30006006040ED9F8240108B1641CE4B26D1CDC
:101E4000EDB2082DEDD3BAF1000F04D0FFF75EFF1D
:101E50002046BDE8F087FFF7A7FFF9E7041C014023
:101E600000802142008023422DE9F04705461548B5
:101E7000016821F0F0010160016841F0300101606A
:101E8000114E0027C6F88471052007F0A7F8DFF887
:101E90003C8000244FF00109E909C8F8A411680644
:101EA000050EC6F88491052007F098F8C6F88471ED
:101EB000052007F093F8641CE4B2082CECD3BDE8CD
:101EC000F0870000041C0140008021420080234272
:101ED00070B50F48016821F0F0010160016841F020
:101EE000300101600B4E0120C6F8A4010A4DC5F86F
:101EF00084011E2005F5C27506F5D27607F06EF84E
:101F000000243460052007F069F82C6070BD0000E3
:101F1000041C0140008023420080214270B50D481E
:101F2000016821F0F0010160016841F030010160B9
:101F300009480125C0F884511E2007F04FF8074CCE
:101F40000020C4F8A401052004F5D27407F046F877
:101F5000256070BD041C01400080214200802342A6
:101F600070B512480024016821F0F0010160016899
:101F700041F0800101600E4D0120C5F8A4010D4E15
:101F8000C6F8840107E0641CE4B2FA2C03D9FFF719
:101F9000C5FF012070BD052007F020F8D5F8240109
:101FA0000028F0D1C6F8840170BD0000041C014077
:101FB00000802342008021421FB50120ADF80800B7
:101FC0008DF80D008DF80A008DF80C0042F260408B
:101FD0000021ADF800008DF80B10ADF802100122C1
:101FE00010210648FFF7BEFD4FF6FF70ADF8040064
:101FF000ADF806006846FFF74FFD1FBD00640040C6
:102000003EB50121480602F0F9FD134C2046FFF7CA
:102010002DFD6846FFF769FE002101228DF80610AC
:102020008DF8072005208DF804008DF808208DF824
:10203000021004208DF809208DF803108DF805009A
:102040008DF80A1006208DF80B10ADF800006946D7
:102050002046FFF78FFD3EBD006400407047000042
:102060008000A0F1C0400029016802D041F00101C8
:1020700001E0024A1140016070470000FEFF0F00BE
:1020800010B5D0E901121143D0E903231A431143DB
:102090004269114382691143C2691143026A1143C3
:1020A000426A1143826A1143C26A1143026B1143AF
:1020B00002689200A2F1C04211608168082907D12C
:1020C00001688900A1F1C0410A6842F040020A603B
:1020D000416BD1E9002342EA03128B688C891B0211
:1020E00043EA04431A430B8A42EA03520B7D89698F
:1020F00042EA03620A4301688900A1F1C0414A60D3
:10210000C16AB1F5804F08D000686FF0704180005F
:10211000A0F1C040C0F8041110BD816BD1E90023CB
:1021200042EA03128B680C8A1B0243EA04531A43E7
:102130000B7D896942EA036200680A438000A0F1CE
:10214000C040C0F8042110BD10B598B0012140F284
:10215000E11002F06BFD0121080202F043FD4FF691
:102160003370ADF8580018208DF85B0003248DF80B
:102170005A4016A91F4800F045F84FF68370ADF895
:10218000580016A91C4800F03DF84FF23F00ADF88A
:10219000580016A9194800F035F840F23F40ADF854
:1021A000580016A9164800F02DF80020CDE91004BB
:1021B0000F90149004211590CDE900101290102179
:1021C000CDE9020113900490069005900902079052
:1021D000CDE908010A900B900C900FA80D900E907D
:1021E0006846FFF74DFF01210420FFF739FF18B0C3
:1021F00010BD00000014014000180140001C014007
:1022000000200140F0B5CC78002204F00F03E40672
:1022100001D58C7823430C784FF00F0C14F0FF0F8E
:102220004FF0010E1BD005680E880EFA02F426400E
:10223000A64210D196000CFA06F725EA070703FA22
:1022400006F5CE783D43282E02D0482E02D002E07B
:10225000446100E00461521C082AE5D305600A8845
:10226000FF2A1CD94468002202F108060EFA06F57E
:102270000E882E40AE420ED196000CFA06F7BC43F3
:1022800003FA06F7CE783C43282E00D14561CE787C
:10229000482E00D10561521C082AE5D34460F0BDE8
:1022A0000246002092680A4200D001207047416136
:1022B0007047016170474FF6FF7101800221817004
:1022C0000421C1707047FEE770B50D4C0025C4F8BD
:1022D00098510C48016821F070410160016841F09B
:1022E00040510160C4F89C51022004F5CC7406F002
:1022F00075FE01202060022006F070FE256070BD92
:1023000000802142000C014038B50121082002F074
:102310008DFCC020ADF8000010208DF803000320D4
:10232000054C8DF8020069462046FFF76BFFC0217F
:102330002046FFF7BEFF38BD000C014070B50D4CC4
:102340000026C4F898610C48016821F070410160D2
:10235000016841F0405101600125C4F89C51022000
:1023600004F5CC7406F03AFE2560022006F036FE35
:10237000266070BD00802142000C01402DE9F0472D
:10238000814617480024016821F07041016001680E
:1023900041F000410160134E254627464FF00108E9
:1023A000C6F89871022006F019FEC6F898816006FA
:1023B000040ED6F81C0108B1641CE4B2012006F03A
:1023C0000DFE6D1CEDB2082DEAD3B9F1000F04D05B
:1023D000FFF77AFF2046BDE8F087FFF7AFFFF9E788
:1023E000000C0140008021422DE9F04105461648CD
:1023F000016821F070410160016841F040510160C5
:10240000124E0027C6F898713C464FF00108280686
:1024100002D5C6F89C8101E0C6F89C716806050EDD
:10242000022006F0DBFDC6F89881022006F0D6FDFA
:10243000C6F89871022006F0D1FD641CE4B2082CA5
:10244000E5D3BDE8F0810000000C0140008021428E
:1024500070B50D48016821F070410160016841F0DC
:1024600040510160094C0120C4F89C01C4F8980156
:10247000042004F5CC7406F0B1FD0025656004204D
:1024800006F0ACFD256070BD000C014000802142CB
:102490000E4810B5016821F070410160016841F0FB
:1024A000405101600A4C0020C4F89801C4F89C0116
:1024B000042004F5CC7406F091FD012020606060DA
:1024C000BDE81040042006F089BD0000000C01406A
:1024D0000080214270B513480024016821F070414A
:1024E0000160016841F0004101600F4D0126C5F80F
:1024F0009C61304606F072FDC5F89861012006F037
:102500006DFD07E0641CE4B2FA2C03D9FFF7C0FFAD
:10251000012070BDD5F81C010028F3D1C5F8980141
:1025200070BD0000000C01400080214208B501216F
:10253000442002F07BFB1C20ADF8000048208DF801
:10254000030069460648FFF75DFE0120ADF8000074
:1025500028208DF8030069460248FFF753FE08BDA6
:10256000001801400008014070B5094906460024E2
:1025700008884D8821464543204602F0A9F902F01B
:1025800091FA044801E00680641CAC42FBD370BDA4
:10259000300300200008006C2DE9F0478246A2EBD2
:1025A0000A00401C0E4685B2981B401C87B20024CE
:1025B000DFF83890DDF8208014E0301981B2504601
:1025C00002F086F902F06EFA0020494606E004FBAC
:1025D000050338F813200A80401C80B2A842F6D3C5
:1025E000641CA4B2BC42E8D3BDE8F0870008006CCC
:1025F0002DE9F04F2B4B2C27194698712B258988F4
:102600004FF4305A4FF4285B4FF4487441F6631E80
:102610002A264FF0F00845F210594FF4A07C4FF4F1
:10262000F072C8B1A3F800C0A3F80280494533D1C5
:10263000A3F808A0A3F80AB0280298811C805A8049
:10264000A1F5A640103802D11A80A3F802C0BDE857
:10265000F04F002002F09AB8A3F80080A3F802C05F
:10266000494507D1A3F808A0A3F80AB04FF42C50AD
:10267000988104E071451F8104D15D819E811A809B
:102680005C8001E05E819D81A1F5A6401038DED11D
:10269000A3F800C05A80DAE71F815E8171459D81F1
:1026A000CCD0CDE7300300202DE9FE4F0026A2EB71
:1026B000000882465F1A701E35468946B8F1000F41
:1026C00002DD4FF0010102E003D14FF00001019162
:1026D00002E0C8F100080190002F02DD4FF0010078
:1026E00002E003D14FF00000009002E0C7F10007C4
:1026F00000904046B84501DD044600E03C46601CC1
:102700004FF0000B029015E01FFA89F11FFA8AF0D2
:1027100000F016F846443D44A64202DD0199361BFE
:102720008A44A54202DD00992D1B89440BF101006A
:102730001FFA80FB02998B45E6DDBDE8FE8F0000A5
:1027400000B502F0C5F802F0ADF902480249008870
:10275000088000BD3C0000200008006C2DE9FC4F03
:1027600080460024154603200F46A0EB450649E0AD
:10277000781B81B208EB040A01901FFA8AF0FFF778
:10278000DFFF381B81B208EB050900901FFA89F0C2
:10279000FFF7D6FF07EB040B1FFA8BF11FFA89F046
:1027A000FFF7CEFF07EB05091FFA89F11FFA8AF040
:1027B000FFF7C6FFA8EB040A1FFA89F11FFA8AF097
:1027C000FFF7BEFFA8EB05091FFA8BF11FFA89F08E
:1027D000FFF7B6FF019881B21FFA8AF0FFF7B0FF4A
:1027E000009881B21FFA89F0FFF7AAFF641C002E3F
:1027F00003DA06EB8406B61D04E0601B06EB8006D8
:102800006D1E0A36AC42B3DDBDE8FC8F2DE9F04702
:10281000DFF89C9092464A46B9F80460DFF894C00D
:1028200093890C0A050A5289A6F5A0480CF1020703
:10283000B8F5A2680CD0A6F5C858B8F1630816D050
:10284000ACF800203D80C0B23880ACF8003024E005
:10285000ACF800203D80521CACF80020C0B238809B
:10286000ACF800303C805B1CACF8003016E099F806
:10287000066026B9B9F80050281A401E80B2ACF89C
:102880000020020A3A80C5B23D803A80C0B238804A
:10289000ACF800303C80C8B238803C80C8B2388088
:1028A000B9F80800ACF80000A7F800A0BDE8F08770
:1028B00030030020FE07006C2DE9F0438146A2EBB7
:1028C0000900401C1F460C4685B2DFF83080079E89
:1028D0000FE02146484601F0FBFF02F0E3F800203C
:1028E000414602E00E80401C80B2A842FAD3641C2C
:1028F000A4B2BC42EDD9BDE8F08300000008006C32
:102900002DE9F04F01219FB0080202F06BF901217F
:102910004FF4B47002F08AF90120ADF83C001020A9
:102920008DF83F0003248DF83E400FA9FE48FFF7C5
:1029300069FC4CF23370ADF83C0018258DF83F501F
:102940008DF83E400FA9F948FFF75CFC4FF6807008
:10295000ADF83C008DF83F508DF83E400FA9F4488B
:10296000FFF750FC41F20100ADF83C008DF83F50FC
:102970008DF83E400FA9EF48FFF744FC0120179067
:1029800000200F21CDE918011A901B901C901D907A
:102990001090CDE91104149015900621CDE9001096
:1029A00016901021CDE90201139004900902CDE99F
:1029B00008010690059007908900CDE90A010C9066
:1029C00017A80D9010A80E906846FFF759FB01213B
:1029D0000620FFF745FB322006F0E4FAD64CD32060
:1029E000208001F0ABFED54DA88001F0A7FE29465E
:1029F000888001F0A3FE4FF6FF77294607EA002002
:102A0000888001F09BFE294649F2413A898847F2C5
:102A100089760843294645F21038888045F21059D6
:102A200041F6631B504572D00420208001F086FEE1
:102A3000A88001F083FEA88001F080FE07EA002054
:102A4000A88001F07BFEA9880843A0F50541A88075
:102A5000523958D0B0425AD0D420208001F06EFEB6
:102A6000A88001F06BFEA88001F068FE07EA002054
:102A7000A88001F063FEA9880843A880404546D09D
:102A800055214FF4704002F017F8AA214FF20100CF
:102A900002F012F852214FF2020002F00DF8082164
:102AA0004FF2030002F008F801214FF2040002F097
:102AB00003F84FF44540208001F040FE07EA002073
:102AC000A8804CF20150208001F038FEA98808430C
:102AD000A880052006F066FAA988494517D0A120EC
:102AE000208001F02BFEA88001F028FE07EA0020DC
:102AF000A88001F023FEA9880843A0F5AE41A88074
:102B0000613902D003E0AE8001E0A5F804B0A988E5
:102B10008BA0FDF775FCA888874DAD1C50457DD175
:102B2000CF20208000202880C120288030202880CD
:102B3000ED20208064202880032028801220288017
:102B400081202880E820208085202880102028806F
:102B50007A202880CB202080392028802C202880B3
:102B6000002028803420288002202880F720208020
:102B700020202880EA202080002028802880C02073
:102B800020801B202880C120208001202880C52093
:102B90002080302028802880C7202080B7202880EF
:102BA00036202080482028803A2020805520288008
:102BB000B1202080002028801A202880B620208084
:102BC0000A202880A2202880F2202080002028804F
:102BD0002620208001202880E02020800F202880CF
:102BE0002A20288028202880082028800E2028805D
:102BF0000820288054202880A9202880432028806D
:102C00000A2028800F202880002028802880288003
:102C10002880E12020800020288000E031E015207D
:102C2000288017202880072028801120288006204F
:102C300028802B202880562028803C2028800520B2
:102C40002880102028800F2028803F20288028807E
:102C50000F2028802B202080002028802880012021
:102C600028803F2028802A2020800020288028805B
:102C70002880EF20288011202080782006F092F90B
:102C80009EE0B0427ED111202080782006F08AF9A3
:102C900036202080002028803A20208005202880AF
:102CA000B22020800C20288028800020288033201B
:102CB00028802880B720208035202880BB202080D5
:102CC00032202880C02020800C202880C220208034
:102CD00001202880C320208010202880C42020804C
:102CE00020202880C62020800F202880D02020800F
:102CF000A4202880A1202880E0202080D0202880C7
:102D00000020288002202880072028800A20288090
:102D100028202880322028804420288042202880B3
:102D2000062028800E2013E0000C01400014014012
:102D30000018014000200140FE07006C3003002015
:102D4000204C43442049443A25780D0A00000000F5
:102D50002880122028801420288017202880E12035
:102D60002080D02028800020288002202880072072
:102D700028800A202880282028803120288054207C
:102D8000288000E01FE0472028800E2028801C209B
:102D90002880172028801B2028801E2028802A2099
:102DA00020800020288028802880EF2028802B2069
:102DB0002080002028802880012028803F20288033
:102DC000292001F02EBC40457ED1ED20208001203D
:102DD0002880FE202880EE202080DE2028802120F0
:102DE0002880F120208001202880DF2020801020F2
:102DF0002880C42020808F202880C62020800020AA
:102E00002880E220288028802880BF202080AA20D7
:102E10002880B02020800D202880002028800D20D0
:102E20002880002028801120288000202880192058
:102E300028800020288021202880002028802D2024
:102E40002880002028803D202880002028805D20C8
:102E50002880002028805D20288000202880B12044
:102E6000208080202880002028808B20288000203F
:102E700028809620288000202880B22020800020F2
:102E80002880288002202880002028800320288095
:102E900000202880B32020800020288028802880DF
:102EA00028802880288028802880288028802880E2
:102EB00028802880288028802880288028802880D2
:102EC00028802880288000E0FEE328802880B42025
:102ED00020808B20288000202880962028800020B9
:102EE0002880A120288000202880B5202080022072
:102EF00028800020288003202880002028800420AB
:102F0000288000202880B62020800020288028806B
:102F1000B72020800020288028803F2028800020A3
:102F200028805E20288000202880642028800020BF
:102F300028808C20288000202880AC202880002039
:102F40002880DC2028800020288070202880002015
:102F500028809020288000202880EB2028800020D6
:102F60002880DC20288000202880B82020800020B5
:102F70002880288028802880288028802880288011
:102F8000BA202080242028800020288028802880C3
:102F9000C1202080202028800020288054202880E4
:102FA00000202880FF20288000202880C220208048
:102FB0000A202880002028800420288000202880E3
:102FC000C32020803C202880002028803A202880B0
:102FD0000020288039202880002028803720288061
:102FE000002028803C20288000202880362028804F
:102FF0000020288032202880002028802F20288050
:10300000002028802C20288000202880292028804B
:103010000020288026202880002028802420288046
:103020000020288024202880002028802320288039
:10303000002028803C2028800020288036202880FE
:103040000020288032202880002028802F202880FF
:10305000002028802C2028800020288029202880FB
:1030600000202880262028800020288024202880F6
:1030700000202880242028800020288023202880E9
:1030800000202880C4202080622028800020288002
:103090000520288000202880842028800020288087
:1030A000F0202880002028801820288000202880F8
:1030B000A420288000202880182028800020288034
:1030C00050202880002028800C2028800020288084
:1030D0001720288000202880952028800020288024
:1030E000F320288000202880E620288000202880E7
:1030F000C52020803220288000202880442028807D
:1031000000202880652028800020288076202880C4
:10311000002028808820288000202880C620208049
:103120002020288000202880172028800020288048
:103130000120288000202880C720208000202880AF
:10314000288028802880C82020800020288028808F
:1031500028802880C920208000202880288028807E
:10316000288028802880288028802880288028801F
:1031700028802880288028802880E0202080162031
:103180002880002028801C202880002028802120E2
:103190002880002028803620288000202880462093
:1031A0002880002028805220288000202880642049
:1031B0002880002028807A202880002028808B20EA
:1031C0002880002028809920288000202880A8209E
:1031D000288000202880B920288000202880C42052
:1031E000288000202880CA20288000202880D22023
:1031F000288000202880D920288000202880E020F6
:10320000288000202880F320288000202880E120CA
:10321000208016202880002028801C202880002064
:103220002880222028800020288036202880002026
:1032300028804520288000202880522028800020D7
:10324000288064202880002028807A202880002080
:1032500028808B202880002028809920288000202A
:103260002880A820288000202880B92028800020DD
:103270002880C420288000202880CA2028800020A0
:103280002880D220288000202880D8202880002074
:103290002880E020288000202880F320288000203B
:1032A0002880E220208005202880002028800B2014
:1032B0002880002028801B2028800020288034209F
:1032C00028800020288044202880002028804F204B
:1032D00028800020288061202880002028807920F4
:1032E000288000202880882028800020288097209F
:1032F000288000202880A620288000202880B72051
:10330000288000202880C220288000202880C72014
:10331000288000202880D120288000202880D620E6
:10332000288000202880DD20288000202880F320AD
:10333000288000202880E32020800520288000208D
:1033400028800A202880002028801C202880002037
:1033500028803320288000202880442028800020D6
:10336000288050202880002028806220288000208B
:10337000288078202880002028808820288000202D
:1033800028809720288000202880A62028800020E0
:103390002880B720288000202880C2202880002094
:1033A0002880C720288000202880D1202880002065
:1033B0002880D520288000202880DD20288000203B
:1033C0002880F320288000202880E420208001200D
:1033D00028800020288001202880002028800220CA
:1033E0002880002028802A202880002028803C2057
:1033F0002880002028804B202880002028805D2005
:1034000028800020288074202880002028808420A4
:103410002880002028809320288000202880A22057
:10342000288000202880B320288000202880BE200B
:10343000288000202880C420288000202880CD20DB
:10344000288000202880D320288000202880DD20AC
:10345000288000202880F320288000202880E52074
:103460002080002028802880288028800220288032
:103470000020288029202880002028803C202880C7
:10348000002028804B202880002028805D20288074
:103490000020288074202880002028808420288014
:1034A000002028809320288000202880A2202880C7
:1034B00000202880B320288000202880BE2028807B
:1034C00000202880C420288000202880CD2028804B
:1034D00000202880D320288000202880DC2028801D
:1034E00000202880F320288000202880E6202080EB
:1034F0001120288000202880342028800020288067
:1035000056202880002028807620288000202880CF
:1035100077202880002028806620288000202880AE
:10352000882028800020288099202880002028805A
:10353000BB20288000202880992028800020288017
:1035400066202880002028805520288000202880A0
:1035500055202880002028804520288000202880B1
:1035600043202880002028804420288000202880B4
:10357000E7202080322028800020288055202880C5
:10358000002028807620288000202880662028803F
:10359000002028806720288000202880672028803D
:1035A00000202880872028800020288099202880DB
:1035B00000202880BB202880002028809920288097
:1035C0000020288077202880002028804420288020
:1035D0000020288056202880002028802320288052
:1035E0000020288033202880002028804520288043
:1035F00000202880E8202080002028802880992032
:10360000288000202880872028800020288088208B
:1036100028800020288077202880002028806620AD
:103620002880002028808820288000202880AA2048
:10363000288000202880BB20288000202880992016
:10364000288000202880662028800020288055209F
:1036500028800020288055202880002028804420B1
:1036600028800020288044202880002028805520A1
:10367000288000202880E9202080AA20288000209F
:103680002880288028802080AA202880CF202080A1
:103690000020288028802880288028802880288072
:1036A00028802880288028802880288028802880DA
:1036B00028802880F020208000202880502028802A
:1036C00000202880288000E02BE02880F320208044
:1036D00000202880F92020800620288010202880C3
:1036E00029202880002028803A202080552028800A
:1036F00011202080642005F055FC292020803520F1
:1037000020800020288051202080FF202880532006
:1037100020802C20288055202080822028802C206A
:10372000FDE348457ED14FF470495521484601F0EC
:10373000C3F94FF20108AA21404601F0BDF94FF24A
:1037400002035221184601F0B7F94FF20305082190
:10375000284601F0B1F96E1C0121304601F0ACF9A8
:103760000D214FF4304001F0A7F90D214BF201007B
:1037700001F0A2F90D214BF2020001F09DF94FF486
:10378000364A3421504601F097F934214BF201605A
:1037900001F092F934214BF2026001F08DF94FF4FF
:1037A000314B0D21584601F087F90D214BF20110E4
:1037B00001F082F90D214BF2021001F07DF9342164
:1037C0004FF4374001F078F934214BF2017001F0E9
:1037D00073F934214BF2027001F06EF900214FF4BD
:1037E000324001F069F900214BF2012001F064F947
:1037F00000214BF2022001F05FF924214FF4384000
:1038000001F05AF924214BF6010001F055F9242169
:103810004BF6020001F050F901214FF43F4001F056
:103820004BF900E0FEE30F214FF4334001F044F97F
:103830000F214BF2013001F03FF90F214BF2023022
:1038400001F03AF934214FF4394001F035F93421CF
:103850004BF6011001F030F934214BF6021001F063
:103860002BF908214FF4354001F026F908214BF2DD
:10387000015001F021F908214BF2025001F01CF92E
:1038800003214FF4424001F017F924214FF43A404C
:1038900001F012F924214BF6012001F00DF9242149
:1038A0004BF6022001F008F900214FF43C4001F0F2
:1038B00003F978214BF6014001F0FEF800214BF6A8
:1038C000024001F0F9F800214FF43D4001F0F4F816
:1038D00078214BF6015001F0EFF800214BF6025031
:1038E00001F0EAF800214FF43E4001F0E5F86421D0
:1038F0004BF6016001F0E0F800214FF4514001F077
:10390000DBF833214DF2011001F0D6F800214DF221
:10391000021001F0D1F834214DF2031001F0CCF87F
:1039200000214DF2041001F0C7F83A214DF20510C4
:1039300001F0C2F800214DF2061001F0BDF84A2155
:103940004DF2071001F0B8F800214DF2081001F017
:10395000B3F85C214DF2091001F0AEF800214DF2F0
:103960000A1001F0A9F881214DF20B1001F0A4F822
:1039700000214DF20C1001F09FF8A6214DF20D1020
:1039800001F09AF800214DF20E1001F095F8E521B2
:103990004DF20F1001F090F801214DF2101001F0DE
:1039A0008BF813214DF2111001F086F801214DF230
:1039B000121001F081F854214DF2131001F07CF83F
:1039C00001214DF2141001F077F882214DF215100B
:1039D00001F072F801214DF2161001F06DF8CA21C4
:1039E0004DF2171001F068F802214DF2181001F0A5
:1039F00063F800214DF2191001F05EF802214DF23A
:103A00001A1001F059F801214DF21B1001F054F881
:103A100002214DF21C1001F04FF834214DF21D101F
:103A200001F04AF802214DF21E1001F045F867211D
:103A30004DF21F1001F040F802214DF2201001F06C
:103A40003BF884214DF2211001F036F802214DF2AD
:103A5000221001F031F8A4214DF2231001F02CF8CE
:103A600002214DF2241001F027F8B7214DF2251064
:103A700001F022F802214DF2261001F01DF8CF21AD
:103A80004DF2271001F018F802214DF2281001F034
:103A900013F8DE214DF2291001F00EF802214DF24B
:103AA0002A1001F009F8F2214DF22B1001F004F870
:103AB00002214DF22C1000F0FFFFFE214DF22D10DF
:103AC00000F0FAFF03214DF22E1000F0F5FF102157
:103AD0004DF22F1000F0F0FF03214DF2301000F0F6
:103AE000EBFF33214DF2311000F0E6FF03214DF2E0
:103AF000321000F0E1FF6D214DF2331000F0DCFFD9
:103B000000214FF4524000F0D7FF33214DF2012045
:103B100000F0D2FF00214DF2022000F0CDFF342151
:103B20004DF2032000F0C8FF00214DF2042000F008
:103B3000C3FF3A214DF2052000F0BEFF00214DF2F7
:103B4000062000F0B9FF4A214DF2072000F0B4FF33
:103B500000214DF2082000F0AFFF5C214DF209205A
:103B600000F0AAFF00214DF20A2000F0A5FF8121FC
:103B70004DF20B2000F0A0FF00214DF20C2000F0D0
:103B80009BFFA6214DF20D2000F096FF00214DF283
:103B90000E2000F091FFE5214DF20F2000F08CFF88
:103BA00001214DF2102000F087FF13214DF211206A
:103BB00000F082FF01214DF2122000F07DFF542120
:103BC0004DF2132000F078FF01214DF2142000F097
:103BD00073FF82214DF2152000F06EFF01214DF29E
:103BE000162000F069FFCA214DF2172000F064FF93
:103BF00002214DF2182000F05FFF00214DF2192044
:103C000000F05AFF02214DF21A2000F055FF012169
:103C10004DF21B2000F050FF02214DF21C2000F05D
:103C20004BFF34214DF21D2000F046FF02214DF2E2
:103C30001E2000F041FF67214DF21F2000F03CFFE5
:103C400002214DF2202000F037FF84214DF2212087
:103C500000F032FF02214DF2222000F02DFFA421BE
:103C60004DF2232000F028FF02214DF2242000F025
:103C700023FFB7214DF2252000F01EFF02214DF257
:103C8000262000F019FFCF214DF2272000F014FF6D
:103C900002214DF2282000F00FFFDE214DF22920F5
:103CA00000F00AFF02214DF22A2000F005FFF22168
:103CB0004DF22B2000F000FF02214DF22C2000F0ED
:103CC000FBFEFE214DF22D2000F0F6FE03214DF209
:103CD0002E2000F0F1FE10214DF22F2000F0ECFE1E
:103CE00003214DF2302000F0E7FE33214DF2312068
:103CF00000F0E2FE03214DF2322000F0DDFE6D21E6
:103D00004DF2332000F0D8FE00214FF4534000F074
:103D1000D3FE33214DF2013000F0CEFE00214DF2F2
:103D2000023000F0C9FE34214DF2033000F0C4FE31
:103D300000214DF2043000F0BFFE3A214DF2053073
:103D400000F0BAFE00214DF2063000F0B5FE4A2127
:103D50004DF2073000F0B0FE00214DF2083000F0C7
:103D6000ABFE5C214DF2093000F0A6FE00214DF2C1
:103D70000A3000F0A1FE81214DF20B3000F09CFED4
:103D800000214DF20C3000F097FEA6214DF20D30CF
:103D900000F092FE00214DF20E3000F08DFEE52184
:103DA0004DF20F3000F088FE01214DF2103000F08E
:103DB00083FE13214DF2113000F07EFE01214DF201
:103DC000123000F079FE54214DF2133000F074FEF1
:103DD00001214DF2143000F06FFE82214DF21530BA
:103DE00000F06AFE01214DF2163000F065FECA2196
:103DF0004DF2173000F060FE02214DF2183000F055
:103E00005BFE00214DF2193000F056FE02214DF20A
:103E10001A3000F051FE01214DF21B3000F04CFE33
:103E200002214DF21C3000F047FE34214DF21D30CE
:103E300000F042FE02214DF21E3000F03DFE6721EF
:103E40004DF21F3000F038FE02214DF2203000F01C
:103E500033FE84214DF2213000F02EFE02214DF27E
:103E6000223000F029FEA4214DF2233000F024FE80
:103E700002214DF2243000F01FFEB7214DF2253013
:103E800000F01AFE02214DF2263000F015FECF217F
:103E90004DF2273000F010FE02214DF2283000F0E4
:103EA0000BFEDE214DF2293000F006FE02214DF21C
:103EB0002A3000F001FEF2214DF22B3000F0FCFD23
:103EC00002214DF22C3000F0F7FDFE214DF22D3095
:103ED00000F0F2FD03214DF22E3000F0EDFD102137
:103EE0004DF22F3000F0E8FD03214DF2303000F0AC
:103EF000E3FD33214DF2313000F0DEFD03214DF2C0
:103F0000323000F0D9FD6D214DF2333000F0D4FD98
:103F100000214FF4544000F0CFFD332100E080E356
:103F20004DF2014000F0C8FD00214DF2024000F0CA
:103F3000C3FD34214DF2034000F0BEFD00214DF2DF
:103F4000044000F0B9FD3A214DF2054000F0B4FD07
:103F500000214DF2064000F0AFFD4A214DF207402E
:103F600000F0AAFD00214DF2084000F0A5FD5C2103
:103F70004DF2094000F0A0FD00214DF20A4000F092
:103F80009BFD81214DF20B4000F096FD00214DF28A
:103F90000C4000F091FDA6214DF20D4000F08CFD8B
:103FA00000214DF20E4000F087FDE5214DF20F405B
:103FB00000F082FD01214DF2104000F07DFD132143
:103FC0004DF2114000F078FD01214DF2124000F059
:103FD00073FD54214DF2134000F06EFD01214DF2AE
:103FE000144000F069FD82214DF2154000F064FD9F
:103FF00001214DF2164000F05FFDCA214DF217403D
:1040000000F05AFD02214DF2184000F055FD00214C
:104010004DF2194000F050FD02214DF21A4000F01F
:104020004BFD00E0FFE201214DF21B4000F044FD9A
:1040300002214DF21C4000F03FFD34214DF21D40A5
:1040400000F03AFD02214DF21E4000F035FD6721DF
:104050004DF21F4000F030FD02214DF2204000F0F3
:104060002BFD84214DF2214000F026FD02214DF26E
:10407000224000F021FDA4214DF2234000F01CFD60
:1040800002214DF2244000F017FDB7214DF22540EA
:1040900000F012FD02214DF2264000F00DFDCF216F
:1040A0004DF2274000F008FD02214DF2284000F0BB
:1040B00003FDDE214DF2294000F0FEFC02214DF20D
:1040C0002A4000F0F9FCF2214DF22B4000F0F4FC04
:1040D00002214DF22C4000F0EFFCFE214DF22D406C
:1040E00000F0EAFC03214DF22E4000F0E5FC102127
:1040F0004DF22F4000F0E0FC03214DF2304000F083
:10410000DBFC33214DF2314000F0D6FC03214DF2AF
:10411000324000F0D1FC6D214DF2334000F0CCFC78
:1041200000214FF4554000F0C7FC33214DF20150FF
:1041300000F0C2FC00214DF2025000F0BDFC342121
:104140004DF2035000F0B8FC00214DF2045000F095
:10415000B3FC3A214DF2055000F0AEFC00214DF2C7
:10416000065000F0A9FC4A214DF2075000F0A4FCD3
:1041700000214DF2085000F09FFC5C214DF20950E7
:1041800000F09AFC00214DF20A5000F095FC8121CC
:104190004DF20B5000F090FC00214DF20C5000F05D
:1041A0008BFCA6214DF20D5000F086FC00214DF253
:1041B0000E5000F081FCE5214DF20F5000F07CFC28
:1041C00001214DF2105000F077FC13214DF21150F7
:1041D00000F072FC01214DF2125000F06DFC5421F0
:1041E0004DF2135000F068FC01214DF2145000F024
:1041F00063FC82214DF2155000F05EFC01214DF26E
:10420000165000F059FCCA214DF2175000F054FC32
:1042100002214DF2185000F04FFC00214DF21950D0
:1042200000F04AFC02214DF21A5000F045FC012139
:104230004DF21B5000F040FC02214DF21C5000F0EA
:104240003BFC34214DF21D5000F036FC02214DF2B2
:104250001E5000F031FC67214DF21F5000F02CFC85
:1042600002214DF2205000F027FC84214DF2215014
:1042700000F022FC02214DF2225000F01DFCA4218E
:104280004DF2235000F018FC02214DF2245000F0B2
:1042900013FCB7214DF2255000F00EFC02214DF227
:1042A000265000F009FCCF214DF2275000F004FC0D
:1042B00002214DF2285000F0FFFBDE214DF2295083
:1042C00000F0FAFB02214DF22A5000F0F5FBF2213A
:1042D0004DF22B5000F0F0FB02214DF22C5000F07B
:1042E000EBFBFE214DF22D5000F0E6FB03214DF2D9
:1042F0002E5000F0E1FB10214DF22F5000F0DCFBBE
:1043000003214DF2305000F0D7FB33214DF23150F4
:1043100000F0D2FB03214DF2325000F0CDFB6D21B5
:104320004DF2335000F0C8FB00214FF4564000F02E
:10433000C3FB33214DF2016000F0BEFB00214DF2C2
:10434000026000F0B9FB34214DF2036000F0B4FBD1
:1043500000214DF2046000F0AFFB3A214DF2056000
:1043600000F0AAFB00214DF2066000F0A5FB4A21F7
:104370004DF2076000F0A0FB00214DF2086000F054
:104380009BFB5C214DF2096000F096FB00214DF291
:104390000A6000F091FB81214DF20B6000F08CFB74
:1043A00000214DF20C6000F087FBA6214DF20D605C
:1043B00000F082FB00214DF20E6000F07DFBE52154
:1043C0004DF20F6000F078FB01214DF2106000F01B
:1043D00073FB13214DF2116000F06EFB01214DF2D1
:1043E000126000F069FB54214DF2136000F064FB91
:1043F00001214DF2146000F05FFB82214DF2156047
:1044000000F05AFB01214DF2166000F055FBCA2165
:104410004DF2176000F050FB02214DF2186000F0E1
:104420004BFB00214DF2196000F046FB02214DF2DA
:104430001A6000F041FB01214DF21B6000F03CFBD3
:1044400002214DF21C6000F037FB34214DF21D605B
:1044500000F032FB02214DF21E6000F02DFB6721BF
:104460004DF21F6000F028FB02214DF2206000F0A9
:1044700023FB84214DF2216000F01EFB02214DF24E
:10448000226000F019FBA4214DF2236000F014FB20
:1044900002214DF2246000F00FFBB7214DF22560A0
:1044A00000F00AFB02214DF2266000F005FBCF214F
:1044B0004DF2276000F000FB02214DF2286000F071
:1044C000FBFADE214DF2296000F0F6FA02214DF2EE
:1044D0002A6000F0F1FAF2214DF22B6000F0ECFAC4
:1044E00002214DF22C6000F0E7FAFE214DF22D6022
:1044F00000F0E2FA03214DF22E6000F0DDFA102107
:104500004DF22F6000F0D8FA03214DF2306000F038
:10451000D3FA33214DF2316000F0CEFA03214DF28F
:10452000326000F0C9FA6D214DF2336000F0C4FA38
:104530005521484600F0C0FAAA21404600F0BCFAD6
:104540005221184600F0B8FA0821284600F0B4FAC3
:104550000021304600F0B0FACC21584600F0ACFA09
:1045600000214BF2011000F0A7FA0521504600F09F
:10457000A3FA70214FF4374000F09EFA70214BF2FD
:10458000017000F099FA01214FF4384000F094FADC
:1045900003214BF6010000F08FFA03214BF60200D5
:1045A00000F08AFA03214BF6030000F085FA02219D
:1045B0004FF43C4000F080FA00214BF6014000F03F
:1045C0007BFA00214BF6024000F076FAD0214FF43E
:1045D000494000F071FA02214CF6011000F06CFA2B
:1045E00050214CF6021000F067FA50214CF60310EF
:1045F00000F062FA50214CF6041000F05DFA002140
:104600004FF4545000F058FA55214FF4685000F020
:1046100053FA4FF488502080782004F0DFFC4FF4E8
:10462000245020807BE0584579D1E22020801D2055
:1046300028800220288004202880642004F0CEFCFA
:10464000E0202080012028800A2004F0ABFCE0203C
:104650002080032028800C2004F0A4FC012020806E
:104660000A2004F09FFCE62020802F202880FF20D5
:1046700028802880B02020802020288000202880CA
:104680000320288040F21F3028800120288040F23B
:10469000DF10288000202880B4202080042028807B
:1046A00040F21F402880002028802E2028800020F3
:1046B0002880288028802880B6202080022028801A
:1046C0004FF40370288000202880172028801520B0
:1046D0002880002028802880F02020800320288047
:1046E00029202080D020208000202880BE2020800B
:1046F00005202880FE202880012028800020288096
:1047000028802880B820208003202880012028804D
:10471000BA20208001202880642000F019F80020B1
:10472000FDF766FF04490120C1F880013846FDF716
:104730001BFF1FB0BDE8F08F00802142034808B581
:104740000088ADF80000BDF8000008BD0008006C4E
:104750000C4A10B5BE211180941C0521218027F040
:1047600011F94FF06632084B27F05CF927F0C6F8D4
:10477000208001202080FF202080002020802080B9
:1047800010BD0000FE07006C6666044070B54E4D1B
:1047900000232946AA79898841F66314012A01D0A9
:1047A0001AB11BE0A14202D118E0A14216D108289B
:1047B00014D2DFE800F00406080A0C0E10120620DE
:1047C0000CE007200AE0042008E0052006E00120B4
:1047D00004E0002002E0032000E00220082812D2BA
:1047E000DFE800F0110406080A0C0E1080230AE02E
:1047F000402308E0C02306E0202304E0602302E019
:10480000A02300E0E02345F21056B14202D14FF45C
:10481000585000E03620A1F51342413A03D0A1F5EB
:10482000EE42893A01D143F00803194600F044F9F9
:10483000AA88A2420AD098062888698802D58842A8
:1048400002D303E0884201D9298068801F48811C77
:10485000B2426A89028021D100230B80531C03805D
:1048600000230B80931C03802B885B1E1C0A0C808A
:10487000D21C0280DAB20A80AA89028000230B804F
:10488000531C038000230B80931C03806B885B1EEA
:104890001C0A0C80D21C0280D8B212E000220A80CE
:1048A0000A802A88521E130A0B80D2B20A80AA8973
:1048B00002800020088008806888401E020A0A8062
:1048C000C0B2088070BD000030030020FE07006CFD
:1048D0002DE9F043DFF8A490294F4A46B9F804C007
:1048E0009389050A0C0ABE1C5289ACF5C858B8F168
:1048F00063080ED0ACF5A048B8F5A2683A803580C0
:1049000033D0C0B230803B803480C8B23080BDE844
:10491000F083DFF868C099F80680BCF800C0B8F1F1
:10492000000F16D03A803580C0B23080ACF1010C57
:104930004FEA1C2030800CF0FF0030803B80348038
:10494000C8B23080B9F80200401E010A3180C0B2FE
:10495000DCE7ACEB0000401E80B23A8000223280DF
:104960003280020A3280C0B2E7E7521C3A80C0B2FD
:1049700030803B8034805B1C3B80C6E730030020E6
:10498000FE07006C2DE9F84F82461F460C468B4609
:10499000580700D0012000EBD70079084843203A9F
:1049A000C0B202F0FF090026009041E00C2F10D0A9
:1049B000102F12D0182F3ED1204909EBC90001EB6E
:1049C00080004FF00008855D28060AD51C48028843
:1049D0000BE009EB49001B49F1E71B4901EB09100A
:1049E000EFE70A9828B91648428821465046FDF755
:1049F0000DFF6806050E1548641CA4B24088A0424D
:104A000019D9A4EB0B00B84209D10AF101001FFA31
:104A100080FA0E485C46018851450CD906E008F141
:104A2000010000F0FF08B8F1080FCDD3761CF6B2F4
:104A300000988642BAD3BDE8F88F0000AACB0208DE
:104A40003C00002046C10208BAC50208300300201D
:104A50002DE9F84F044600F0FF0810190D46DDE976
:104A60000A761FFA80FA58191FFA80F94FF0000BE6
:104A700011E0544502D3E819444685B24D450FD2A2
:104A80003B4629462046CDF800B0FFF77BFF04EBFC
:104A9000570084B2761C3278A2F120005E28E8D953
:104AA000BDE8F88F0248034900890880704700007C
:104AB00030030020FE07006C024A1080901C018029
:104AC00070470000FE07006C38B50121482000F057
:104AD000ADF82024ADF8004010208DF8030003202D
:104AE0000B4D8DF8020069462846FDF78BFB20210F
:104AF0002846FDF7DEFBADF80040064C694620462F
:104B0000FDF780FB20212046FDF7D3FB38BD0000D8
:104B1000000C014000180140FEE7704708B54FF453
:104B2000A06000F055F814208DF8000001208DF8E9
:104B3000010000218DF802108DF80300684600F096
:104B400015F808BD08B54FF4A06000F041F8152035
:104B50008DF8000001208DF801008DF802008DF81D
:104B60000300684600F002F808BD000030B50F23CE
:104B7000C27801780125F2B1144A126801F1E021EE
:104B800002F4E062C2F5E062120AC2F10404D3400A
:104B90004278A24084781C401443220181F800240A
:104BA000007800F01F018D404009800000F1E020F6
:104BB000C0F8005130BD01F01F0085404809800059
:104BC00000F1E020C0F8805130BD00000CED00E0A5
:104BD0000249084302490860704700000000FA05D6
:104BE0000CED00E0044A0029516901D0014300E0C6
:104BF000814351617047000000100240044A0029BF
:104C0000D16901D0014300E08143D16170470000C8
:104C100000100240044A0029116901D0014300E05C
:104C2000814311617047000000100240044A0029CE
:104C3000916901D0014300E0814391617047000018
:104C40000010024030B5204A5168204B11F00C0191
:104C500003D0042901D0082901D0036012E0516873
:104C6000536801F470114FF0020413F4803F04EB19
:104C7000914102D053689B0301D5154B00E0134BC3
:104C80005943016051680F2303EA1111114B5C5C19
:104C90000168E14041605468072505EA14241C5D61
:104CA00021FA04F48460546805EAD4241B5DD940D9
:104CB000C1605268032303EA9232064B1B1F9A5CC1
:104CC000B1FBF2F1016130BD0010024000127A0028
:104CD00000093D00A80000200CB5002226480092E3
:104CE0000192016841F4803101604FF4A0630168D2
:104CF00001F4003101910099491C0091019911B909
:104D000000999942F3D10168890333D501210191BA
:104D10001A490A6842F010020A600A6822F0030287
:104D20000A600A6842F002020A6041684160416814
:104D30004160416841F480614160416821F47C1127
:104D40004160416841F4E8114160016841F08071BF
:104D5000016001688901FCD5416821F003014160CF
:104D6000416841F0020141604168C1F381010229BB
:104D7000FAD10CBD01920CBD00100240002002408F
:104D80004FF0E0210428086903D020F004000861F6
:104D9000704740F00400FAE710B526F05BF90128EF
:104DA00003D0BDE8104025F049BE10BD0F4810B536
:104DB000016841F00101016041680D4A1140416004
:104DC00001680C4A11400160016821F480210160F2
:104DD000416821F4FE0141604FF41F018160FFF73B
:104DE0007BFF05494FF00060086010BD00100240D5
:104DF0000000FFF8FFFFF6FE08ED00E070B5048C40
:104E000024F001040484058B048C4FF6FF7606EA37
:104E10000313134325F0F3050E4A2B4390420ED0A3
:104E20000D4A90420BD0B0F1804F08D00B4A90420F
:104E300005D00B4A904202D00A4A904202D124F097
:104E4000020201E024F00A020A4342F00101038356
:104E5000018470BD002C014000340140000400407A
:104E600000080040000C0040F0B5048C24F0100451
:104E70000484078B048C4FF6FF7527F4734705EA0B
:104E800003333B4305EA02221A43114B05EA01169C
:104E900098420ED00F4B98420BD0B0F1804F08D003
:104EA0000D4B984205D00D4B984202D00C4B9842C6
:104EB00005D124F02001314341F0100104E024F039
:104EC000A0030B4343F0100102830184F0BD0000F6
:104ED000002C014000340140000400400008004064
:104EE000000C00407FB50E46044601211546C8025D
:104EF000FFF79CFEADF80440ADF800600024114EB1
:104F0000ADF80640ADF802408DF8084069463046DD
:104F100000F09CFA01221146304600F01BFA1920DD
:104F20008DF80C008DF80D4001208DF80E008DF8E5
:104F30000F0003A8FFF71AFEE9B2304600F03DF972
:104F40007FBD0000002C014010B5074C0121204618
:104F500000F056F910B10549012008602046BDE86F
:104F60001040012100F026B9002C0140180000205B
:104F700010B501218C07204600F042F9002807D027
:104F80000121204600F016F902480168491C016021
:104F900010BD00008C0000207FB50D4604460121A5
:104FA00016460846FFF72AFEADF80440ADF800505B
:104FB00000244FF08045ADF80640ADF80240694648
:104FC000284600F043FA01221146284600F0C2F9B3
:104FD0001C208DF80C008DF80D4002208DF80E007D
:104FE00001208DF80F0003A8FFF7C0FD31462846C9
:104FF00000F0E3F87FBD000030B50D46044689B0EF
:1050000001210220FFF7FAFD01210420FFF70EFE27
:105010008022ADF81C2018228DF81F2003208DF867
:105020001E0007A91348FDF7EDF8ADF80440ADF8F0
:1050300000500024104DADF80640ADF8024069461E
:10504000284600F003FA7021ADF80C100120ADF8ED
:105050000E00ADF8144003A9284600F083F908219A
:10506000284600F0BFF90121284600F0A6F809B053
:1050700030BD0000000801400004004010B50446A7
:1050800088B001210420FFF7B9FD01210820FFF7B6
:10509000CDFD03A8FDF70FF9C021ADF80C100421D8
:1050A0008DF80F1003218DF80E1003A91F48FDF78E
:1050B000A9F8684600F018FA0020ADF80440ADF8F1
:1050C00000001B4CADF80600ADF802006946204612
:1050D00000F0BCF90A231A460321204600F077F8B5
:1050E00004A800F02FF90F20ADF8180004A92046FD
:1050F00000F092F801221146204600F02BF91E2004
:105100008DF81C0001218DF81D108DF81E108DF8F2
:105110001F1007A8FFF72AFD0021204600F06CF9B8
:105120000121204600F049F808B010BD000C0140F4
:105130000008004010B50A4C0121204600F060F83C
:1051400038B1084801680848006800F0D7F90749F5
:1051500088602046BDE81040012100F02BB8000017
:105160000008004004000020000000208C00002007
:10517000024801884FF6FE7101807047100C004014
:1051800010B50A4C0121204600F03AF830B1084A27
:10519000D2F8940140B10021C2F894112046BDE834
:1051A0001040012100F006B80121F5E70010004091
:1051B00000002342C943018270470029018802D0C0
:1051C00041F0010101E021F001010180704770B55B
:1051D0000589048B068C25F007050D434FF6FC412D
:1051E0000C4040F201110C434FF6FF7101EA03112C
:1051F00026F022061143314305810483018470BDEA
:1052000002460020138A92890B4202EA010202D070
:10521000002A00D0012070472DE9F84F0D460446C2
:105220000888434FDFF80CC1DFF80C81DFF80C91E0
:105230004988AA882B894FF0804A48B3042830D087
:105240004FF6FF760828934634D0208C9E4620F4F3
:1052500080502084A38B208C06EA0132009223F434
:10526000734306EA0B221A4306EA0E331343BC4289
:105270000AD0644508D0544506D0444504D04C4576
:1052800002D02F4A944245D120F40050009943E0C7
:105290002046FFF7B3FDE9882046BDE8F84F00F04F
:1052A000ADB82046FFF7E0FDE9882046BDE8F84F9D
:1052B00000F0ACB8208C20F480702084B4F81CE09E
:1052C000208C06EA031306EA01222EF0F30E43EACD
:1052D0000B0343EA0E030092BC420AD0644508D097
:1052E000544506D0444504D04C4502D0144A94425B
:1052F00003D120F40070009901E020F420600843FD
:1053000040F48070A3832084E9882046BDE8F84FEC
:1053100000F088B820F40240084340F48050A38392
:105320002084E9882046BDE8F84F00F083B80000EB
:10533000002C0140003401400004004000080040FF
:10534000000C004000210180418001228280C18048
:1053500001817047002A828901D00A4300E08A4314
:105360008281704770B5028C22F010020284028C98
:105370008388048B0D8824F4E6464FF6FF7404EA14
:10538000052535430E8922F0200204EA061616434D
:105390004A8804EA02123243104EB04202D0104E44
:1053A000B04215D122F080064A8923F4406304EA12
:1053B0000212324322F040068A8804EA0212324383
:1053C0008E8904EA86061E43CB8904EA83033343AD
:1053D00083800583C9880187028470BD002C014049
:1053E00000340140028B4FF6FF7322F4006203EA9F
:1053F000012111430183704781847047028B22F0A1
:105400000C020283028B0A4302837047028B22F450
:1054100040620283028B4FF6FF7303EA01210A43C5
:1054200002837047828B22F00C028283828B0A43B4
:1054300082837047828B22F440628283828B4FF694
:10544000FF7303EA01210A438283704730B5028863
:105450001B4C1C4DA0420DD0A8420BD0B0F1804F88
:1054600008D0194B984205D0184B984202D0184BDF
:10547000984203D122F070034A881A43154B984290
:1054800006D0154B984203D022F44073CA881A43C1
:1054900002808A8882850A880285A0420AD0A842B2
:1054A00008D00E4A904205D00D4A904202D00D4AD3
:1054B000904201D1097A01860121818230BD00002C
:1054C000002C01400034014000040040000800406E
:1054D000000C00400010004000140040004001405B
:1054E00000440140004801404FF6FF7181800021D7
:1054F0000180C18041800172704700002DE9F047B2
:10550000401C491C484326F026FA00221D4B26F079
:105510006DF802460B4600201B4926F067F826F07E
:10552000BDF9DFF8689007464FF4BB61D9F8000079
:10553000484326F010FA064615488846006826F0CB
:105540000AFA04460D46384626F005FA0022114BA9
:1055500026F068FA22462B4626F064FA4346324685
:1055600026F044F826F004F8044626F08FFB0246A5
:105570000B4609A0FAF744FF00212046C9F80010A5
:10558000BDE8F087882A91410000F03F8C000020A0
:105590000800002000004E4073706565643A252EB7
:1055A00033660A0070B5154C40F22551204600F0D4
:1055B00035F800280ED0204600F0BEF8104AC1B2DF
:1055C0001088030406D444044FF0000306D50A29CA
:1055D00001D0138070BD40F400400DE00D2909D0CA
:1055E000C0F30D04074D401C80B229551080C72818
:1055F000EFD870BD40F48040108070BD003801408D
:105600009C0000203E0300200029818902D041F443
:10561000005101E021F400518181704770B501F023
:105620001F0501260024C1F3421306FA05F2012BDF
:105630000FD0022B0FD0838A4FEA1121008813422A
:1056400006FA01F600EA060001D000B10124204666
:1056500070BD8389F0E7038AEEE710B5C1F342130A
:1056600001F01F040121A140012B07D0022B07D01C
:105670001430002A026805D00A4304E00C30F8E731
:105680001030F6E78A43026010BD000030B50446D2
:10569000008A85B00D464CF6FF710840E988014349
:1056A0002182A0894EF6F3110840A9882A89114366
:1056B0006A8902431143A181A08A4FF6FF41084045
:1056C000A9890143A1826846FFF7BCFA19488442C0
:1056D00001D1039800E00298A189090400EBC00100
:1056E00001EB0010296801D5490000E08900B0FBFA
:1056F000F1F06422B0FBF2F109010B096FF018051B
:105700006B4300EB8300A3891D044FF0320306D5E1
:1057100003EBC000B0FBF2F000F0070005E003EB84
:105720000010B0FBF2F000F00F000843208105B03C
:1057300030BD0000003801408088C0F30800704789
:10574000FEE7490050EAC12018BF04204A0D18BFE7
:1057500040F0010040F2FF72B2EB515F08BF40F031
:105760000200012808BF0520704770B504460025D7
:105770006FF02F0608E02068411C2160007805EBDF
:10578000850106EB410145182068007800F004F817
:105790000028F0D1284670BD3038092801D80120F2
:1057A00070470020704730380A2801D20120704726
:1057B0000020704710B54021074801F079F8002219
:1057C000042106481EF006FB054CA06002F08CF890
:1057D0000020207010BD0000D8E70020917900085B
:1057E0009802002070B5B1F90040B2F900309C4237
:1057F00000DD23460380B1F90240B2F90250AC4209
:1058000000DC2C464480B1F90450B2F90460B54282
:1058100000DB35468580B1F90610B2F906209142C9
:1058200000DB1146C1800120AB4201DC8C4200DD6F
:10583000002070BDF8B50D460446B0F90000B1F97E
:1058400000101646884247DBB4F90210B5F9022071
:10585000914241DBB4F90410B5F9042091423BDCDC
:10586000B4F90610B5F90620914235DC96B3ADF8CF
:1058700000006088ADF8020032466946284600F014
:1058800099F8002827D0A088ADF800006088ADF80E
:10589000020032466946284600F08CF800281AD0EB
:1058A0002088ADF80000E088ADF802003246694675
:1058B000284600F07FF800280DD0A088ADF8000041
:1058C000E088ADF8020032466946284600F072F8DA
:1058D000002800D00120F8BD0020F8BDB0F900205C
:1058E000B1F904309A4213DCB0F90420B1F9003068
:1058F0009A420DDBB0F90220B1F906309A4207DC7A
:10590000B0F90600B1F90210884201DB01207047AE
:1059100000207047F8B50D460446B0F90400B1F90F
:1059200000101646884243DBB4F90600B5F90210B0
:1059300088423DDBB4F90000B5F90410884237DC39
:10594000B4F90210B5F90620914231DC76B3ADF816
:1059500000006088ADF8020032466946284600F033
:1059600029F818BBA088ADF800006088ADF80200E7
:1059700032466946284600F01DF8B8B92088ADF8CF
:105980000000E088ADF8020032466946284600F083
:1059900011F858B9A088ADF80000E088ADF8020011
:1059A00032466946284600F005F808B10020F8BDE7
:1059B0000120F8BD2DE9FC4105460F46B1F9000074
:1059C000B5F90010144688423BDBB5F90410884253
:1059D00037DCB7F90200B5F90210884231DBB5F9BE
:1059E000061088422DDC002C76DD28460EF0BEFD28
:1059F00000EBD070461028460EF06EFD00EBD07024
:105A00004010864200DA3046844200DD0446288891
:105A1000ADF80000288800222044ADF80400688812
:105A2000ADF80200688839462044ADF806006846A3
:105A3000FFF7C0FF40B1BDF804002044ADF80400FA
:105A40003FE00020BDE8FC81E8880022001BADF8A3
:105A50000200E888ADF8060039466846FFF7AAFF5D
:105A600028B1BDF804002044ADF8040011E0A88876
:105A70000022001BADF80000A888ADF804003946EC
:105A80006846FFF797FF50B1BDF80000001BADF866
:105A90000000BDF80200001BADF8020016E06888A7
:105AA000ADF80200688800222044ADF806003946AF
:105AB0006846FFF77FFF70B1BDF80000001BADF82E
:105AC0000000BDF806002044ADF8060039466846DF
:105AD0001BF0FAFAB6E7FFE70120B3E710B5B1F91A
