:020000040800F2
:10000000F0850020E1010008B14D00082519000825
:10001000AD4D0008E10D0008775E0008000000000B
:10002000000000000000000000000000490100087E
:10003000FD150008000000008D010008B9510008FE
:10004000FB010008FB010008FB010008FB010008A0
:10005000FB010008FB010008FB010008FB01000890
:10006000FB010008FB010008FB010008FB01000880
:10007000FB010008FB010008FB010008FB01000870
:10008000FB010008FB010008FB010008FB01000860
:10009000FB010008E50D0008FB010008FB0100085A
:1000A000FB010008C5540008FB010008FB01000823
:1000B000FD540008FB010008BD560008FB010008C4
:1000C000FB010008FB010008FB010008FB01000820
:1000D000FB010008555C0008FB010008FB0100085B
:1000E000FB010008FB010008FB010008FB01000800
:1000F000FB010008FB010008FB010008FB010008F0
:10010000FB010008FB010008F5560008FB01000890
:10011000FB010008FB01000875570008FB010008FF
:10012000FB010008FB010008FB010008FB010008BF
:10013000DFF810D000F00EFD004800472152020801
:10014000AFF30080F0850020224B19680868B0E802
:10015000F00F80F30988BFF36F8F4FF0000080F33A
:1001600011884EF00D0E7047000000000648006830
:10017000006880F3088862B661B6BFF34F8FBFF3A3
:100180006F8F00DF00BF00BF08ED00E0EFF30980D4
:10019000BFF36F8F0F4B1A6820E9F00F106008B59E
:1001A0004FF0500080F31188BFF34F8FBFF36F8F74
:1001B00029F026FA4FF0000080F31188BDE80840CE
:1001C00019680868B0E8F00F80F30988BFF36F8FF3
:1001D000704700BFDC050020EFF30580704700008A
:1001E0000648804706480047FEE7FEE7FEE7FEE7D1
:1001F000FEE7FEE7FEE7FEE7FEE7FEE7BD5100088B
:100200003101000840EA01039B0703D009E008C957
:10021000121F08C0042AFAD203E011F8013B00F8CB
:10022000013B521EF9D27047D2B201E000F8012B17
:10023000491EFBD270470022F6E710B513460A4666
:1002400004461946FFF7F0FF204610BD421C10F887
:10025000011B0029FBD1801A704710B5002200E075
:10026000521C835C8C5CA34201D1002BF8D1D8B224
:10027000E1B2401A10BD034611F8012B00F8012B22
:10028000002AF9D118467047F0B480EA0102D40F71
:100290004200B2EB410F02D20246084611464A0024
:1002A00042D0C30DDDB2C1F3C752AD1A202D35DAED
:1002B000C1F3160141F4000204B15242C5F1200617
:1002C00002FA06F12A411044B3EBD05F23D0C4B147
:1002D000012DA0EBC35009DCF0BC4FF0004202EA54
:1002E000C352DBB200F5000000F0D2BA400000F1CA
:1002F000807000EBC350A0F1807040EAD1704900DB
:1003000009E0490841EAC071A0EBC35000F50000C4
:10031000400800EBC350F0BC00F0B1BA61420122CA
:1003200002EB4101001BF6E7F0BC704781F0004191
:10033000AAE780F00040A7E780EA010210B502F0CA
:100340000043400022D04A001FD0010E01EB126191
:10035000C0F35600C2F3560240F4000042F400021B
:10036000A0FB022000047F39140400D0401C50EA96
:10037000124001D44000491EC2B20C0604EBD0105A
:10038000401C4008802A02D003E0002010BD20F06D
:100390000100002900DA0020184310BD30B480EAC3
:1003A000010202F0004530F0004221F0004013D07D
:1003B00090B1C30DD40DC2F31601C0F31600E41AB8
:1003C00041F4000140F400027D34914201D3641CE9
:1003D00000E04900002C02DA30BC002070474FF4E6
:1003E00000000023914201D3891A034340084FEAD9
:1003F0004101F7D151B1914202D14FF0004105E0E6
:1004000002D24FF0010101E06FF0010103EBC45093
:10041000284430BC00F033BA2DE9FE4F81EA0304D2
:1004200004F0004421F0004100944FF0000B23F051
:10043000004350EA01045ED052EA03045BD0C3F3E8
:100440000A54C1F30A552C44A4F2F3340194A0FBDE
:100450000254C1F3130141F48011C3F3130343F4B5
:10046000801301FB024400FB034E840A970A44EA0E
:10047000815447EA8357A4FB076802958D0A05FB60
:1004800007854FEA932C04FB0C542705029D4FEA85
:10049000065847EA1637B5EB08056EEB070C870ED2
:1004A000920E47EA811742EA8312A7FB0201B6EBDC
:1004B0000B0164EB00042B0D43EA0C335E1844EB94
:1004C0001C50DA465146E7FB0201C5F313044FEA1C
:1004D0000B3343EA14534FEA0432019C43EA060308
:1004E000A4F10C040294009CCDE900B400F00DFAD4
:1004F00003B0BDE8F08F00200146F9E72DE9F04D8B
:1005000081EA030404F0004B21F0004514464FF04B
:10051000000A23F0004150EA050220D054EA01020B
:100520001DD0C5F30A570246C5F31303C1F31300E8
:10053000C1F30A5640F4801543F48013A7EB060874
:10054000101BD64608F2FD3873EB050002D308F104
:10055000010801E092185B41B8F1000F03DA0020B6
:100560000146BDE8F08D00204FF480110646844618
:100570000EE0171B73EB050705D3121B63EB050396
:1005800006434CEA010C49084FEA300092185B41DF
:1005900050EA0107EDD152EA030012D082EA0400CA
:1005A00083EA0501084305D0101BAB4106D20122A6
:1005B000002306E000224FF0004302E06FF001024A
:1005C00053101AEB06004CEB085110EB0A0041EBFC
:1005D0000B01BDE8F04D00F089B9C10F80EAE07071
:1005E0000844CA079623002100F052B9962300223E
:1005F000114600F04DB90EB5C10F80EAE070084415
:10060000CA07002140F233438DE80E000A460B462C
:1006100000F07BF903B000BD0EB540F2334102910A
:100620000021CDE900110A460B4600F06EF903B037
:1006300000BD00F0004220F00040C10DC0F31600E4
:1006400040F400007F2901DA00207047962903DC7E
:10065000C1F19601C84001E096398840002AF4D0E3
:100660004042704720F00040C10DC0F3160040F436
:1006700000007F2901DA00207047962903DCC1F1D0
:100680009601C840704796398840704770B5C1F3ED
:100690000A5201F000450024C1F3130140F2FF3378
:1006A00041F480119A4201DA002070BD40F23343D8
:1006B0009A42A2F2334203DC524200F0D0F800E04A
:1006C00090402C43F1D0404270BDC1F30A5210B5A6
:1006D000C1F3130140F2FF3341F480119A4201DA71
:1006E000002010BD40F233439A42A2F2334203DCB1
:1006F000524200F0B4F810BD904010BD00F000422E
:1007000030F000400AD0C10D01F56071C0F3160051
:1007100042EA0151C20840071143704700200146D8
:100720007047000030B5041E71F1000404DB4FF087
:100730000044404264EB0101141E73F1000405DB28
:100740001C464FF00043524263EB04038B4208BF48
:10075000824230BD30B5041E71F1000404DB4FF05D
:100760000044404264EB0101141E73F1000405DBF8
:100770001C464FF00043524263EB0403994208BF0A
:10078000904230BD01F0004330B421F0004150EA06
:10079000010206D00A0DA2F56072C1F31301002A0E
:1007A00002DC30BC00207047440F44EAC104C100A1
:1007B000E01830BC00EBC25000F061B8002801DB4B
:1007C000C0F10040002901DBC1F1004181427047C6
:1007D00030B50B46014600202022012409E021FA11
:1007E00002F59D4205D303FA02F5491B04FA02F50E
:1007F0002844151EA2F10102F1DC30BD2DE9F05FA5
:100800000546002092469B4688460646814640247F
:100810001BE0284641464746224600F020F8534652
:100820005A46C01A914110D311461846224600F08C
:10083000A3F92D1A67EB01084F462246012000213B
:1008400000F09AF917EB00094E41201EA4F10104B3
:10085000DFDC484631462A464346BDE8F09F202A61
:1008600004DB203A21FA02F00021704721FA02F35A
:10087000D040C2F120029140084319467047002938
:10088000A8BF7047401C490008BF20F00100704716
:1008900010B4B0FA80FC00FA0CF050EA010404BF76
:1008A00010BC704749B1CCF1200421FA04F411FACC
:1008B0000CF118BF012121430843A3EB0C01CB1D10
:1008C0004FEA00614FEA102042BF002010BC704781
:1008D00000EBC35010440029A4BF10BC7047401C5B
:1008E000490008BF20F0010010BC704710B5141E6D
:1008F00073F1000408DA401C41F1000192185B41D9
:100900001A4301D120F0010010BD2DE9F04D9246AF
:100910009B4611B1B1FA81F202E0B0FA80F22032C6
:10092000904600F029F904460F4640EA0A0041EAE1
:100930000B0153465A46084313D0114653EA0100AF
:1009400019D0C8F140025046FFF789FF05460E4610
:1009500050465946424600F00FF9084305D00120A1
:1009600004E020463946BDE8F08D0020054346EA04
:10097000E0762C4337430A986305E40AA0EB0800AD
:100980000022FD0A44EA47540A3002D500200146FD
:10099000E9E7010510196941DDE9084500196941D8
:1009A000BDE8F04DA2E72DE9FE4F804681EA030045
:1009B000C00F0C46009021F0004123F00045B8EB39
:1009C0000200A94105D24046214690461C460B46EE
:1009D000024623F00040104347D0270DC7F30A001A
:1009E000C3F30A510290401A019040286BDAC3F316
:1009F000130040F4801B0098924620B10023D2EBF4
:100A0000030A63EB0B0B01985946C0F140025046B4
:100A100000F0B2F806460D4650465946019A00F0DD
:100A2000BAF810EB08006141002487EA115284EA09
:100A3000E7731A4340D0009A62B3019A012A4FEA41
:100A4000075215DC001B61EB02014FF0004202EA85
:100A50000752CDE90042001C41F5801132462B4679
:100A6000FFF753FF03B0BDE8F08F40462146F9E79A
:100A7000001B61EB0201001C41F5801300185B4173
:100A80002018A2F5001747EB030140EAD570B6190C
:100A90006D4111E06D084FEA360645EAC0754FEA30
:100AA0000752001B61EB0201001C41F5801149084F
:100AB0004FEA30000019514132462B4603B0BDE8E1
:100AC000F04FFFF713BF0098012240000023D0EB46
:100AD000020263EBE073009821464FEAE074B8EB42
:100AE000000061EB0401E9E783F000435BE781F07C
:100AF000004158E770B521F0004303430CD0C1F327
:100B00000A550024D5EB040564EB0403D617AD1A8F
:100B1000B34102DB0020014670BD201841EB0251B9
:100B200070BDC1F30A52C1F3130140F2FF3341F427
:100B300080119A4202DA00200146704740F23343A6
:100B40009A42A2F2334202DC5242FFF788BE00F022
:100B500013B80000064C074D06E0E06840F00103C2
:100B600094E8070098471034AC42F6D3FFF7E4FA54
:100B70001C9A03083C9A0308202A04DB203A00FA56
:100B800002F1002070479140C2F1200320FA03F3E4
:100B9000194390407047202A06DBCB17203A41FAD0
:100BA00002F043EAE07306E041FA02F3D040C2F1FA
:100BB000200291400843194670472DE9F04D00236B
:100BC0001A461B1A8A4103DB00200146BDE8F08D5E
:100BD000C1F30A52C1F3130141F480154FF0000B29
:100BE000D10702D100186D41521E0027044640F281
:100BF000FF11384601EB620A3E468046024600205D
:100C00004FF48011FFF72BFEC2197141BB1846EB60
:100C10000100B4EB030C75EB000C04D3E41A65EB94
:100C2000000517460E46241908F101006D41804663
:100C30003428E3DDF91946EB0600091BA84103D26D
:100C40004FF0FF32134601E0002213461BEB070072
:100C500046EB0A51BDE8F04DFFF748BE70B58C1861
:100C600010F8015B15F0070301D110F8013B2A11C0
:100C700006D110F8012B03E010F8016B01F8016BAD
:100C80005B1EF9D12B0705D40023521E0DD401F8A9
:100C9000013BFAE710F8013BCB1A921C03E013F872
:100CA000015B01F8015B521EF9D5A142D8D30020A7
:100CB00070BD10B500F060FE10BD70B506460C4664
:100CC000154608E03046721C96B200F007F804F8AA
:100CD000010B681E85B2002DF4D170BD70B50446BD
:100CE000002600F0FDFE2546E11704EB1161091214
:100CF000A02202EB4101C8B200F0B8FE00F03CFFB8
:100D0000E11704EB11610912A4EB0121C8B200F054
:100D1000ADFE00F031FF00F0E3FEA12000F0A6FEE2
:100D200000F02AFF002000F069FE064600F0FEFEFB
:100D3000304670BD70B505460C46164606E0217873
:100D4000284600F009F8681C85B2641C301EA6F124
:100D500001018EB2F3D170BD70B504460E4600F0AD
:100D6000BFFE2546E11704EB11610912A02202EB38
:100D70004101C8B200F07AFE00F0FEFEE11704EB7C
:100D800011610912A4EB0121C8B200F06FFE00F05E
:100D9000F3FE304600F06AFE00F0EEFE00F0C6FE04
:100DA0000A2007F015F870BD08B50121082004F0ED
:100DB0009BF84FF48070ADF8000010208DF8030010
:100DC00003208DF802006946044800F00BFD4FF443
:100DD0008071024800F09AFD08BD0000000C01403F
:100DE00000BFFEE700B585B06A460121114800F05A
:100DF000C2F91149009808809DF80B000F4908704E
:100E00009DF80C000E4908709DF80D000D49087002
:100E10009DF80E000C4908709DF80F000B490870F2
:100E20001021044800F020F802200949086005B0AC
:100E300000BD000000640040380000202C000020AD
:100E40002D0000202E0000202F0000203000002068
:100E50003400002010B500F0A3FB00F07BFB03F092
:100E6000A8FF03F0BBFF10BDB1F5007F3AD00FDC47
:100E7000202928D006DC01291CD004291DD00829EE
:100E800040D11DE0402921D0B1F5807F3AD126E044
:100E9000B1F5004F31D006DCB1F5806F25D0B1F54A
:100EA000006F2FD124E0B1F5803F12D0B1F5003FA3
:100EB00028D111E0154A826025E00822C26022E0B4
:100EC0001022C2601FE0082202611CE010220261B1
:100ED00019E00822426016E01022426013E004226A
:100EE000426010E0042242600DE0042242600AE009
:100EF000002282610422426005E000228261042215
:100F0000426000E000BF00BF704700000101010027
:100F100010B504460B48844209D10121480603F06C
:100F2000D3FF00214FF0007003F0CEFF08E0012155
:100F3000880603F0C9FF00214FF0806003F0C4FF72
:100F400010BD00000064004010B50021837A01222A
:100F500002FA03F13D4A126842F001023B4B1A606B
:100F60003A4A1C3212688A43384B1C331A60027B9F
:100F7000CAB9364A0C3212688A43344B0C331A60B1
:100F80004288C38842EA0343304A4032847A42F8B6
:100F900034300288838842EA03432C4A4032847A00
:100FA00002EBC4025360027B012A19D1274A0C329A
:100FB00012680A43254B0C331A604288038842EAC0
:100FC0000343224A4032847A42F83430C28883880C
:100FD00042EA03431D4A4032847A02EBC402536062
:100FE000C27A3AB9194A121D12688A43174B1B1D5F
:100FF0001A6006E0154A121D12680A43134B1B1DA6
:101000001A60028932B9114A143212688A430F4BAE
:1010100014331A600289012A06D10C4A143212686C
:101020000A430A4B14331A60427B012A06D1074A4D
:101030001C3212680A43054B1C331A60034A1268BB
:1010400022F00102014B1A6010BD00000066004052
:101050001AB143690B43436102E043698B43436127
:10106000704730B5024600200023146824F00204C3
:101070001460146844F00104146000E05B1C5468C0
:1010800004F001041CB94FF6FF74A342F6D1546872
:1010900004F001040CB900206CE08C79012C04D11F
:1010A000146844F08004146003E0146824F08004A1
:1010B0001460CC79012C04D1146844F0400414600D
:1010C00003E0146824F0400414600C7A012C04D16D
:1010D000146844F02004146003E0146824F0200431
:1010E00014604C7A012C04D1146844F0100414608C
:1010F00003E0146824F0100414608C7A012C04D1ED
:10110000146844F00804146003E0146824F0080430
:101110001460CC7A012C04D1146844F004041460E7
:1011200003E0146824F0040414608C78A407CD78DC
:1011300044EA05640D7944EA05444D7944EA0554CE
:101140000D886D1E2C43D461146824F001041460D2
:10115000002300E05B1C546804F001041CB14FF64E
:10116000FF74A342F6D1546804F001040CB10020CE
:1011700000E0012030BD10B500F5D87303EB01137A
:101180001B6803F004031372137A53B900F5D87384
:1011900003EB01131B6840F2FF7404EA535313601E
:1011A00009E000F5D87303EB01131B686FF060448E
:1011B00004EAD303536000F5D87303EB01131B68F3
:1011C00003F00203537200F5D87303EB01135B685D
:1011D00003F00F03937200F5D87303EB01135B6800
:1011E0001B0AD37400F5D87303EB01139B68D37209
:1011F00000F5D87303EB01139B681C0A147300F508
:10120000D87303EB01139B681C0C547300F5D8735F
:1012100003EB01139B681B0E937300F5D87303EB6C
:101220000113DB68D37300F5D87303EB0113DB689C
:101230001C0A147400F5D87303EB0113DB681C0C53
:10124000547400F5D87303EB0113DB681B0E937421
:1012500021B9C36843F02003C36003E0036943F08E
:101260002003036110BD00218171C17101724172BF
:101270008172C1728170C1700321017102214171BB
:1012800001210180704710B5052006F0C7FD10BD93
:1012900010B500200F4908600F48006820F0F000EA
:1012A0000D4908600846006840F030000860FFF70C
:1012B000EAFF00200949C1F8A401FFF7E4FF01207B
:1012C00004490860FFF7DFFF00200549C1F88401E9
:1012D00010BD000084812142041C01400080234293
:1012E0000080214208B50121882003F0FDFD022085
:1012F000ADF8000010208DF8030003208DF80200E7
:1013000069460A4800F06EFA0221084800F000FB26
:101310004FF40070ADF800006946054800F062FA2D
:101320004FF40071024800F0F3FA08BD000C0140D0
:10133000001C014010B500200F4908600F480068EC
:1013400020F0F0000D4908600846006840F03000C9
:101350000860FFF798FF01200949C1F8A401FFF7D1
:1013600092FF012004490860FFF78DFF0020054926
:10137000C1F8840110BD000084812142041C014099
:10138000008023420080214270B5054600241648A3
:10139000006820F0F000144908600846006840F03A
:1013A000800008601E2006F039FD002611E00020B4
:1013B0000E490860FFF767FF01200D49C1F884015D
:1013C0006006040E0B48006808B1601CC4B2701CB3
:1013D000C6B2082EEBDB15B9FFF7ACFF01E0FFF753
:1013E00057FF204670BD0000041C0140848121424B
:1013F000008021422481234270B5044613480068CE
:1014000020F0F000114908600846006840F0300004
:10141000086000200E490860FFF735FF002511E045
:10142000E0090C4908606006040E01200A49C1F871
:101430008401FFF728FF002005490860FFF723FF1C
:10144000681CC5B2082DEBDB70BD0000041C014018
:1014500084812142A48123420080214210B50F489B
:10146000006820F0F0000D4908600846006840F070
:101470003000086001200A4908600A49C1F8840167
:101480001E2006F0CBFC002005490860FFF7FBFE9C
:1014900000200449C1F8840110BD0000041C014073
:1014A000A48123420080214210B50D48006820F03D
:1014B000F0000B4908600846006840F03000086002
:1014C0000120084908601E2006F0A8FC00200649FB
:1014D000C1F8A401FFF7D7FE01200449086010BD40
:1014E000041C01408481214200802342A4812342C4
:1014F00010B500241348006820F0F000114908607E
:101500000846006840F08000086001200E4908602D
:101510000E49C1F88401FFF7B6FE09E0601CC4B2B1
:10152000FA2C03DDFFF7C0FF012010BDFFF7ABFE73
:101530000548803800680028F0D10549086000BFE0
:10154000F3E70000041C0140A481234200802142F3
:10155000848121421FB501208DF80D00ADF80800EF
:101560008DF80A0000208DF80B0001208DF80C008A
:1015700042F26040ADF800000020ADF80200012208
:1015800010210648FFF764FD4FF6FF70ADF8040028
:10159000ADF806006846FFF7D7FC1FBD00640040A9
:1015A0000EB50121480603F07FFC1348FFF7B0FC9D
:1015B0006846FFF758FE00208DF8060001208DF8E0
:1015C00007008DF808008DF8090000208DF80A004A
:1015D0008DF80B008DF802008DF8030005208DF8C2
:1015E000040004208DF805000620ADF800006946CF
:1015F0000148FFF736FD0EBD006400407047000053
:1016000051B18200A2F1C042126842F0010382008F
:10161000A2F1C042136009E08200A2F1C042126848
:10162000034B1A408300A3F1C0431A6070470000C7
:10163000FEFF0F00D0E901121143C2681143026995
:1016400011434269114382691143C2691143026A1D
:101650001143426A1143826A1143C26A1143026B09
:10166000114302689200A2F1C0421160816808290A
:101670000BD101688900A1F1C041096841F0400225
:1016800001688900A1F1C0410A60416B0968426BA1
:10169000526841EA0211426B926841EA0221426BB0
:1016A000928941EA0241426B128A41EA0251426B3D
:1016B000127D41EA0261426B926911430268521C39
:1016C0009200A2F1C0421160C16AB1F5804F1BD1F6
:1016D000816B0968826B526841EA0211826B9268E1
:1016E00041EA0221826B128A41EA0251826B127D29
:1016F00041EA0261826B9269114302689200A2F191
:10170000C042C2F8041107E06FF07042016889001E
:10171000A1F1C041C1F804217047000000B597B0A5
:10172000012140F2E11003F0DFFB0121080203F088
:10173000ABFB4FF63370ADF8000018208DF80300B6
:1017400003208DF802006946224800F04BF84FF65E
:101750008370ADF8000069461F4800F043F84FF26F
:101760003F00ADF8000069461C4800F03BF840F22D
:101770003F40ADF800006946194800F033F80020FA
:1017800001900290032003900020049005900690A1
:10179000079004200890002009900A9010200B90D8
:1017A00000200C900E900D900F9010904FF48050F0
:1017B0001190002012901390149001A8159016908B
:1017C00008A8FFF737FF01210420FFF719FF17B022
:1017D00000BD00000014014000180140001C014041
:1017E000002001402DE9F04102460025002600209E
:1017F00000230024002791F803C00CF00F0591F896
:1018000003C00CF0100CBCF1000F03D091F802C023
:101810004CEA050591F800C0BCF1000F31D0146806
:1018200000202BE04FF0010C0CFA00F3B1F800C0DF
:101830000CEA03069E4220D183004FF00F0C0CFAF5
:1018400003F7BC4305FA03FC4CEA040491F803C017
:10185000BCF1280F06D14FF0010C0CFA00FCC2F8C5
:1018600014C00AE091F803C0BCF1480F05D14FF055
:10187000010C0CFA00FCC2F810C0401C0828D1D39F
:101880001460B1F800C0BCF1FF0F34DD54680020D3
:101890002EE000F1080C4FF0010808FA0CF3B1F843
:1018A00000C00CEA03069E4221D183004FF00F0CCA
:1018B0000CFA03F7BC4305FA03FC4CEA040491F864
:1018C00003C0BCF1280F05D100F1080C08FA0CF890
:1018D000C2F8148091F803C0BCF1480F07D100F1A1
:1018E000080C4FF0010808FA0CF8C2F81080401CF0
:1018F0000828CED35460BDE8F081024600209368EA
:101900000B400BB1012000E000207047416170479F
:10191000016170474FF6FF7101800221817004213F
:10192000C170704700BFFEE710B500200F49086086
:101930000F48006820F070400D49086008460068B4
:1019400040F04050086000200A49C1F89C01022084
:1019500006F064FA012005490860022006F05EFAEC
:1019600000200449C1F8980110BD0000988121426F
:10197000000C01400080214208B50121082003F03D
:10198000B3FAC020ADF8000010208DF8030003204A
:101990008DF8020069460448FFF724FFC021024881
:1019A000FFF7B6FF08BD0000000C014010B5002095
:1019B0000F4908600F48006820F070400D4908602A
:1019C0000846006840F04050086001200A49C1F80C
:1019D0009C01022006F022FA01200549086002203D
:1019E00006F01CFA00200449C1F8980110BD00005F
:1019F00098812142000C01400080214270B50546CB
:101A000000241748006820F0704015490860084617
:101A1000006840F000400860002616E000201149F0
:101A20000860022006F0FAF901200F49C1F8980178
:101A30006006040E0B487C38006808B1601CC4B214
:101A4000012006F0EBF9701CC6B2082EE6DB15B9D2
:101A5000FFF7ACFF01E0FFF767FF204670BD000015
:101A6000000C0140988121420080214270B504465B
:101A70001848006820F07040164908600846006861
:101A800040F04050086000201349086000251EE027
:101A9000E00920B101201049091D086003E0002081
:101AA0000D49091D08606006040E022006F0B6F913
:101AB000012009490860022006F0B0F9002007491A
:101AC000C1F89801022006F0A9F9681CC5B2082DDA
:101AD000DEDB70BD000C0140988121420080214274
:101AE00010B50F48006820F070400D4908600846A6
:101AF000006840F04050086001200A4908600A4927
:101B0000C1F89801042006F089F900200549086011
:101B1000042006F083F900200349C1F8980110BDA4
:101B2000000C01409C8121420080214210B50F48E9
:101B3000006820F070400D4908600846006840F0D9
:101B40004050086000200A4908600A49C1F89C0119
:101B5000042006F063F90120054908600549C1F831
:101B60009C01042006F05AF910BD0000000C014051
:101B7000988121420080214210B500241448006859
:101B800020F07040124908600846006840F00040AC
:101B9000086001200F49086006F040F901200E4955
:101BA000C1F8980106F03AF907E0601CC4B2FA2CBB
:101BB00003DDFFF7BBFF012010BD06488038006839
:101BC0000028F2D10349091F086000BFF4E70000B4
:101BD000000C01409C8121420080214208B5012176
:101BE000442003F081F91C20ADF8000048208DF856
:101BF000030069460648FFF7F5FD0120ADF8000037
:101C000028208DF8030069460248FFF7EBFD08BD68
:101C1000001801400008014010B5044614B101202D
:101C20002C4908702B480078002837D010212A480A
:101C3000FFF763FE78B108212748FFF75EFE50B139
:101C400004212548FFF759FE28B101212348FFF759
:101C500054FE012822D10A2006F0BAF800201D49BE
:101C6000087010211C48FFF748FE08B9012010BD7C
:101C700008211948FFF741FE08B90220F7E70421BF
:101C80001548FFF73AFE08B90320F0E70121134891
:101C9000FFF733FE01281BD10420E8E710210E488E
:101CA000FFF72BFE012813D108210B48FFF725FE73
:101CB00001280DD104210848FFF71FFE012807D194
:101CC00001210648FFF719FE10B9012001490870EB
:101CD0000020CCE75000002000180140000801401F
:101CE00070B5044600260948058840884543002110
:101CF000084602F0BFFE03F021F800BF02E00448EE
:101D00000480761CAE42FAD370BD00004806002065
:101D10000008006C2DE9F84F07460D46904699469D
:101D2000DDF828B0A8EB0700401C1FFA80FAA9EBE9
:101D30000500401C80B20090002414E0281981B2F4
:101D4000384602F097FE02F0F9FF002607E004FB98
:101D50000A603BF8100006490880701C86B25645A0
:101D6000F5DB601C84B200988442E7DBBDE8F88FA5
:101D70000008006C10B5044649488471002C45D118
:101D8000F020474908804FF4A070488008468088BA
:101D900045F21051884210D14FF43050404908812B
:101DA0004FF4285048814FF42C5088814FF4F07044
:101DB00008804FF4487048801AE03948808841F61E
:101DC000631188420DD12C20354908812B20488190
:101DD0002A2088814FF4F07008804FF448704880C2
:101DE00006E02C202E4908812A2048812B2088815A
:101DF0002B48808845F2103188424CD14FF4A070B6
:101E0000274908804FF4F070488044E04FF4A070F8
:101E100023490880F02048800846808845F2105108
:101E2000884210D14FF430501D4908814FF428509A
:101E300048814FF42C5088814FF4487008804FF44B
:101E4000F07048801AE01648808841F66311884295
:101E50000DD12C20124908812A2048812B2088810D
:101E60004FF4487008804FF4F070488006E02C2052
:101E70000B4908812A2048812B20888108488088C6
:101E800045F21031884206D14FF4F07004490880C1
:101E90004FF4A0704880002002F0D2FC10BD00007A
:101EA000480600202DE9FF4F84B081468A46002075
:101EB000039002900698A0EB09050798A0EB0A068C
:101EC000CDF80490CDF800A0002D01DD012705E03C
:101ED0000DB9002702E04FF0FF376D42002E02DD02
:101EE0004FF0010806E016B94FF0000802E04FF08D
:101EF000FF387642B54201DD2C4600E034464FF013
:101F0000000B21E0009A91B2019A90B200F022F801
:101F10000398284403900298304402900398A0420A
:101F200005DD0398001B0390019838440190029846
:101F3000A04205DD0298001B0290009840440090EA
:101F40000BF101001FFA80FB601C8345DADD08B04D
:101F5000BDE8F08F30B504460D462946204602F014
:101F600089FD02F0EBFE024800880249088030BD7E
:101F7000520000200008006C2DE9F04306460F4691
:101F80009046002445460320A0EB48093CE07A1B1C
:101F900091B2321990B2FFF7DDFF3A1B91B272197C
:101FA00090B2FFF7D7FF3A1991B2721990B2FFF7CA
:101FB000D1FF7A1991B2321990B2FFF7CBFF7A199B
:101FC00091B2321B90B2FFF7C5FF3A1991B2721B62
:101FD00090B2FFF7BFFF7A1B91B2321B90B2FFF7AE
:101FE000B9FF3A1B91B2721B90B2FFF7B3FF641CAA
:101FF000B9F1000F03DAA000801D814404E0601BEA
:1020000080000A3081446D1EAC42C0DDBDE8F08323
:1020100010B503460C463848808845F21051884276
:1020200020D13549488902F083FE181202F07AFE69
:1020300031494989491C88B202F07AFED8B202F0CF
:1020400071FE2D49888902F073FE201202F06AFEAB
:1020500029498989491C88B202F06AFEE0B202F07F
:1020600061FE42E02448808841F66311884228D10D
:102070002148807920B920480088401EC01A83B2C8
:102080001D49488902F054FE181202F04BFED8B2E6
:1020900002F048FE181202F045FED8B202F042FEED
:1020A0001549888902F044FE201202F03BFEE0B29E
:1020B00002F038FE201202F035FEE0B202F032FEED
:1020C00013E00D49488902F033FE181202F02AFE8F
:1020D000D8B202F027FE0849888902F029FE2012B2
:1020E00002F020FEE0B202F01DFE03480089034921
:1020F0000880881C028010BD48060020FE07006C86
:102100002DE9F04F05460E4617469846DDF824A007
:102110004FF0000B781B401C1FFA80FB344613E085
:102120002146284602F0A6FC02F008FE4FF0000906
:1021300006E00748A0F800A009F101001FFA80F9A5
:10214000D945F6DB601C84B24445E9DDBDE8F08F7B
:102150000008006C00B59FB00121080202F094FE57
:1021600001214FF4B47002F0BFFE0120ADF87800F9
:1021700010208DF87B0003208DF87A001EA9FE4800
:10218000FFF730FB4CF23370ADF8780018208DF873
:102190007B0003208DF87A001EA9F848FFF722FB88
:1021A0004FF68070ADF8780018208DF87B00032082
:1021B0008DF87A001EA9F248FFF714FB41F20100E6
:1021C000ADF8780018208DF87B0003208DF87A0098
:1021D0001EA9EC48FFF706FB01200890002009909B
:1021E0000F200A9000200B900C900D900E90019003
:1021F0000290032003900020049005900690079021
:1022000006200F90002010901190102012900020B6
:10221000139015901490169017904FF480501890CA
:10222000002019904FF480401A9000201B9008A8BD
:102230001C9001A81D900FA8FFF7FCF901210620B2
:10224000FFF7DEF9322005F0C3FDD32002F070FD68
:1022500002F0C2FACC49888002F0BEFACA498880EE
:1022600002F0BAFAC8498880084680884FF6FF71A4
:1022700001EA0020C449888002F0AEFAC249898888
:102280000843C14988800846808849F24131884224
:102290007DD0042002F04CFD02F09EFABA498880FD
:1022A00002F09AFAB849888002F096FAB649888016
:1022B000084680884FF6FF7101EA0020B249888005
:1022C00002F08AFAB04989880843AF4988800846F5
:1022D000808848F25251884203D147F28970AA4956
:1022E0008880A948808847F289718842D0D0D4205C
:1022F00002F01EFD02F070FAA349888002F06CFA29
:10230000A149888002F068FA9F4988800846808841
:102310004FF6FF7101EA00209B49888002F05CFAC9
:10232000994989880843984988800846808845F2F9
:102330001031884262D055214FF4704002F008FD00
:10234000AA214FF2010002F003FD52214FF20200D8
:1023500002F0FEFC08214FF2030002F0F9FC01211B
:102360004FF2040002F0F4FC4FF4454002F0E0FCB0
:1023700002F032FA84498880084680884FF6FF715F
:1023800001EA0020804988804CF2015000E035E0ED
:1023900002F0CEFC02F020FA7B49898808437A4992
:1023A0008880052005F014FD7748808845F210519B
:1023B000884223D0A12002F0BBFC02F00DFA724942
:1023C000888002F009FA70498880084680884FF6B4
:1023D000FF7101EA00206C49888002F0FDF96A492A
:1023E00089880843684988800846808845F2617179
:1023F000884203D141F6631063498880624881882E
:1024000062A003F0DFFD6048808849F241318842D4
:102410007ED1CF2002F08CFC002002F083FCC12092
:1024200002F080FC302002F07DFCED2002F080FC08
:10243000642002F077FC032002F074FC122002F00A
:1024400071FC812002F06EFCE82002F071FC852016
:1024500002F068FC102002F065FC7A2002F062FCB9
:10246000CB2002F065FC392002F05CFC2C2002F04D
:1024700059FC002002F056FC342002F053FC0220EC
:1024800002F050FCF72002F053FC202002F04AFC3E
:10249000EA2002F04DFC002002F044FC002002F093
:1024A00041FCC02002F044FC1B2002F03BFCC12098
:1024B00002F03EFC012002F035FCC52002F038FCA1
:1024C000302002F02FFC302002F02CFCC72002F05C
:1024D0002FFCB72002F026FC362002F029FC482011
:1024E00002F020FC3A2002F023FC552002F01AFCF6
:1024F000B12002F01DFC002002F014FC1A2002F0B2
:1025000011FCB62002F014FC0A2002F00BFC00E0E3
:10251000ABE0A22002F006FCF22002F009FC002051
:1025200002F000FC262002F003FC012002F0FAFB7E
:10253000E02002F0FDFB0F2002F0F4FB2A2002F065
:10254000F1FB282002F0EEFB082002F0EBFB0E204E
:1025500002F0E8FB082002F0E5FB542002F0E2FB69
:10256000A92002F0DFFB432002F0DCFB0A2002F08E
:10257000D9FB0F2012E00000000C014000140140C4
:10258000001801400020014048060020204C434430
:102590002049443A25780D0A0000000002F0C2FBF1
:1025A000002002F0BFFB002002F0BCFB002002F084
:1025B000B9FB002002F0B6FBE12002F0B9FB0020DD
:1025C00002F0B0FB152002F0ADFB172002F0AAFBD1
:1025D000072002F0A7FB112002F0A4FB062002F066
:1025E000A1FB2B2002F09EFB562002F09BFB3C201F
:1025F00002F098FB052002F095FB102002F092FB00
:102600000F2002F08FFB3F2002F08CFB3F2002F0F6
:1026100089FB0F2002F086FB2B2002F089FB0020B3
:1026200002F080FB002002F07DFB012002F07AFB2B
:102630003F2002F077FB2A2002F07AFB002002F014
:1026400071FB002002F06EFB002002F06BFBEF201C
:1026500002F068FB112002F06BFB782005F0B8FB5C
:10266000292002F065FB02F0A6B8FE48808847F2F8
:10267000897188427ED1112002F05AFB782005F042
:10268000A7FB362002F054FB002002F04BFB3A205F
:1026900002F04EFB052002F045FBB22002F048FBA1
:1026A0000C2002F03FFB0C2002F03CFB002002F06B
:1026B00039FB332002F036FB332002F033FBB72026
:1026C00002F036FB352002F02DFBBB2002F030FB80
:1026D000322002F027FBC02002F02AFB0C2002F07F
:1026E00021FBC22002F024FB012002F01BFBC320CF
:1026F00002F01EFB102002F015FBC42002F018FBB4
:10270000202002F00FFBC62002F012FB0F2002F087
:1027100009FBD02002F00CFBA42002F003FBA12057
:1027200002F000FBE02002F003FBD02002F0FAFAF6
:10273000002002F0F7FA022002F0F4FA072002F07B
:10274000F1FA0A2002F0EEFA282002F0EBFA322029
:1027500002F0E8FA442002F0E5FA422002F0E2FA40
:10276000062002F0DFFA0E2002F0DCFA122002F05E
:10277000D9FA00E054E0142002F0D4FA172002F055
:10278000D1FAE12002F0D4FAD02002F0CBFA0020F6
:1027900002F0C8FA022002F0C5FA072002F0C2FADD
:1027A0000A2002F0BFFA282002F0BCFA312002F021
:1027B000B9FA542002F0B6FA472002F0B3FA0E201C
:1027C00002F0B0FA1C2002F0ADFA172002F0AAFACB
:1027D0001B2002F0A7FA1E2002F0A4FA2A2002F021
:1027E000A7FA002002F09EFA002002F09BFA0020D7
:1027F00002F098FAEF2002F095FA2B2002F098FAF6
:10280000002002F08FFA002002F08CFA012002F082
:1028100089FA3F2002F086FA292002F089FA22E79D
:102820009048808845F21031884240F07C87ED2046
:1028300002F07EFA012002F075FAFE2002F072FA30
:10284000EE2002F075FADE2002F06CFA212002F090
:1028500069FAF12002F06CFA012002F063FADF203D
:1028600002F066FA102002F05DFAC42002F060FA6D
:102870008F2002F057FAC62002F05AFA002002F028
:1028800051FAE22002F04EFAE22002F04BFAE22086
:1028900002F048FABF2002F04BFAAA2002F042FAF6
:1028A000B02002F045FA0D2002F03CFA002002F0C0
:1028B00039FA0D2002F036FA002002F033FA112026
:1028C00002F030FA002002F02DFA192002F02AFA64
:1028D000002002F027FA212002F024FA002002F062
:1028E00021FA2D2002F01EFA002002F01BFA3D20F2
:1028F00002F018FA002002F015FA5D2002F012FA38
:10290000002002F00FFA5D2002F00CFA002002F025
:1029100009FAB12002F00CFA802002F003FA00203C
:1029200002F000FA8B2002F0FDF9002002F0FAF923
:10293000962002F0F7F9002002F0F4F9B22002F03C
:10294000F7F9002002F0EEF9002002F0EBF9022086
:1029500002F0E8F9002002F0E5F9032002F0E2F9C4
:10296000002002F0DFF9B32002F0E2F9002002F0CB
:10297000D9F9002002F0D6F9002002F0D3F90020A6
:1029800002F0D0F9002002F0CDF9002002F0CAF9DF
:10299000002002F0C7F9002002F0C4F9002002F084
:1029A000C1F9002002F0BEF9002002F0BBF90020BE
:1029B00002F0B8F9002002F0B5F9002002F0B2F9F7
:1029C000002002F0AFF9002002F0ACF9002002F084
:1029D000A9F9002002F0A6F9002002F0A3F90020D6
:1029E00002F0A0F9002002F09DF9002002F09AF90F
:1029F000002002F097F9002002F094F9B42002F0D0
:102A000097F98B2002F08EF9002002F08BF99620C6
:102A100002F088F9002002F085F9A12002F082F985
:102A2000002002F07FF9B52002F082F9022002F0C6
:102A300079F9002002F076F9032002F073F9002002
:102A400002F070F9042002F06DF9002002F06AF93A
:102A5000B62002F06DF9002002F064F9002002F0C7
:102A600061F901E048060020B72002F061F900207A
:102A700002F058F9002002F055F93F2002F052F917
:102A8000002002F04FF95E2002F04CF9002002F025
:102A900049F9642002F046F9002002F043F98C2045
:102AA00002F040F9002002F03DF9AC2002F03AF9C2
:102AB000002002F037F9DC2002F034F9002002F0A7
:102AC00031F9702002F02EF9002002F02BF990204D
:102AD00002F028F9002002F025F9EB2002F022F99B
:102AE000002002F01FF9DC2002F01CF9002002F0A7
:102AF00019F9B82002F01CF9002002F013F90020A7
:102B000002F010F9002002F00DF9002002F00AF99D
:102B1000002002F007F9002002F004F9002002F082
:102B200001F9002002F0FEF8BA2002F001F9242099
:102B300002F0F8F8002002F0F5F8002002F0F2F8B8
:102B4000002002F0EFF8C12002F0F2F8202002F09D
:102B5000E9F8002002F0E6F8542002F0E3F8002043
:102B600002F0E0F8FF2002F0DDF8002002F0DAF8D1
:102B7000C22002F0DDF80A2002F0D4F8002002F0B2
:102B8000D1F8042002F0CEF8002002F0CBF8C320E8
:102B900002F0CEF83C2002F0C5F8002002F0C2F8A6
:102BA0003A2002F0BFF8002002F0BCF8392002F011
:102BB000B9F8002002F0B6F8372002F0B3F8002090
:102BC00002F0B0F83C2002F0ADF8002002F0AAF8C4
:102BD000362002F0A7F8002002F0A4F8322002F01C
:102BE000A1F8002002F09EF82F2002F09BF80020B0
:102BF00002F098F82C2002F095F8002002F092F8EC
:102C0000292002F08FF8002002F08CF8262002F034
:102C100089F8002002F086F8242002F083F80020D2
:102C200002F080F8242002F07DF8002002F07AF80B
:102C3000232002F077F8002002F074F83C2002F024
:102C400071F8002002F06EF8362002F06BF80020D8
:102C500002F068F8322002F065F8002002F062F815
:102C60002F2002F05FF8002002F05CF82C2002F028
:102C700059F8002002F056F8292002F053F80020FD
:102C800002F050F8262002F04DF8002002F04AF839
:102C9000242002F047F8002002F044F8242002F03B
:102CA00041F8002002F03EF8232002F03BF800201B
:102CB00002F038F8C42002F03BF8622002F032F84B
:102CC000002002F02FF8052002F02CF8002002F07E
:102CD00029F8842002F026F8002002F023F8F020E2
:102CE00002F020F8002002F01DF8182002F01AF877
:102CF000002002F017F8A42002F014F8002002F0DF
:102D000011F8182002F00EF8002002F00BF8502005
:102D100002F008F8002002F005F80C2002F002F89A
:102D2000002001F0FFFF172001F0FCFF002001F060
:102D3000F9FF952001F0F6FF002001F0F3FFF320EA
:102D400001F0F0FF002001F0EDFFE62001F0EAFFC6
:102D5000002001F0E7FFC52001F0EAFF322001F07A
:102D6000E1FF002001F0DEFF442001F0DBFF002046
:102D700001F0D8FF652001F0D5FF002001F0D2FF5F
:102D8000762001F0CFFF002001F0CCFF882001F079
:102D9000C9FF002001F0C6FFC62001F0C9FF2020B6
:102DA00001F0C0FF002001F0BDFF172001F0BAFFC5
:102DB000002001F0B7FF012001F0B4FF002001F076
:102DC000B1FFC72001F0B4FF002001F0ABFF0020ED
:102DD00001F0A8FF002001F0A5FF002001F0A2FFF4
:102DE000C82001F0A5FF002001F09CFF002001F0A9
:102DF00099FF002001F096FF002001F093FFC92009
:102E000001F096FF002001F08DFF002001F08AFF05
:102E1000002001F087FF002001F084FF002001F076
:102E200081FF002001F07EFF002001F07BFF0020E9
:102E300001F078FF002001F075FF002001F072FF23
:102E4000002001F06FFF002001F06CFF002001F076
:102E500069FF002001F066FF002001F063FF002001
:102E600001F060FFE02001F063FF162001F05AFF3F
:102E7000002001F057FF1C2001F054FF002001F05A
:102E800051FF212001F04EFF002001F04BFF3620C2
:102E900001F048FF002001F045FF462001F042FF0D
:102EA000002001F03FFF522001F03CFF002001F024
:102EB00039FF642001F036FF002001F033FF7A2053
:102EC00001F030FF002001F02DFF8B2001F02AFFE0
:102ED000002001F027FF992001F024FF002001F0DD
:102EE00021FFA82001F01EFF002001F01BFFB920E8
:102EF00001F018FF002001F015FFC42001F012FFBF
:102F0000002001F00FFFCA2001F00CFF002001F0AB
:102F100009FFD22001F006FF002001F003FFD920B5
:102F200001F000FF002001F0FDFEE02001F0FAFEBC
:102F3000002001F0F7FEF32001F0F4FE002001F084
:102F4000F1FEE12001F0F4FE162001F0EBFE00207E
:102F500001F0E8FE1C2001F0E5FE002001F0E2FE99
:102F6000222001F0DFFE002001F0DCFE362001F01F
:102F7000D9FE002001F0D6FE452001F0D3FE00204E
:102F800001F0D0FE522001F0CDFE002001F0CAFE7B
:102F9000642001F0C7FE002001F0C4FE7A2001F099
:102FA000C1FE002001F0BEFE8B2001F0BBFE002020
:102FB00001F0B8FE992001F0B5FE002001F0B2FE4C
:102FC000A82001F0AFFE002001F0ACFEB92001F016
:102FD000A9FE002001F0A6FEC42001F0A3FE0020FF
:102FE00001F0A0FECA2001F09DFE002001F09AFE33
:102FF000D22001F097FE002001F094FED82001F0CD
:1030000091FE002001F08EFEE02001F08BFE0020FA
:1030100001F088FEF32001F085FE002001F082FE21
:10302000E22001F085FE052001F07CFE002001F089
:1030300079FE0B2001F076FE002001F073FE1B20CC
:1030400001F070FE002001F06DFE342001F06AFEF8
:10305000002001F067FE442001F064FE002001F032
:1030600061FE4F2001F05EFE002001F05BFE61205A
:1030700001F058FE002001F055FE792001F052FECB
:10308000002001F04FFE882001F04CFE002001F0EE
:1030900049FE972001F046FE002001F043FEA620E5
:1030A00001F040FE002001F03DFEB72001F03AFEA5
:1030B000002001F037FEC22001F034FE002001F0B4
:1030C00031FEC72001F02EFE002001F02BFED120A2
:1030D00001F028FE002001F025FED62001F022FE9E
:1030E000002001F01FFEDD2001F01CFE002001F099
:1030F00019FEF32001F016FE002001F013FEE3207C
:1031000001F016FE052001F00DFE002001F00AFE80
:103110000A2001F007FE002001F004FE1C2001F04F
:1031200001FE002001F0FEFD332001F0FBFD002038
:1031300001F0F8FD442001F0F5FD002001F0F2FD62
:10314000502001F0EFFD002001F0ECFD622001F0C5
:10315000E9FD002001F0E6FD782001F0E3FD00200C
:1031600001F0E0FD882001F0DDFD002001F0DAFD36
:10317000972001F0D7FD002001F0D4FDA62001F03A
:10318000D1FD002001F0CEFDB72001F0CBFD0020E5
:1031900001F0C8FDC22001F0C5FD002001F0C2FD14
:1031A000C72001F0BFFD002001F0BCFDD12001F0DF
:1031B000B9FD002001F0B6FDD52001F0B3FD0020DF
:1031C00001F0B0FDDD2001F0ADFD002001F0AAFD11
:1031D000F32001F0A7FD002001F0A4FDE42001F0A0
:1031E000A7FD012001F09EFD002001F09BFD0120C4
:1031F00001F098FD002001F095FD022001F092FD04
:10320000002001F08FFD2A2001F08CFD002001F04C
:1032100089FD3C2001F086FD002001F083FD4B205C
:1032200001F080FD002001F07DFD5D2001F07AFDC0
:10323000002001F077FD742001F074FD002001F002
:1032400071FD842001F06EFD002001F06BFD9320E4
:1032500001F068FD002001F065FDA22001F062FD93
:10326000002001F05FFDB32001F05CFD002001F0C3
:1032700059FDBE2001F056FD002001F053FDC42091
:1032800001F050FD002001F04DFDCD2001F04AFD80
:10329000002001F047FDD32001F044FD002001F0A3
:1032A00041FDDD2001F03EFD002001F03BFDF3205B
:1032B00001F038FD002001F035FDE52001F038FD7A
:1032C000002001F02FFD002001F02CFD002001F076
:1032D00029FD002001F026FD022001F023FD002041
:1032E00001F020FD292001F01DFD002001F01AFD54
:1032F0003C2001F017FD002001F014FD4B2001F0EF
:1033000011FD002001F00EFD5D2001F00BFD0020FD
:1033100001F008FD742001F005FD002001F002FD20
:10332000842001F0FFFC002001F0FCFC932001F060
:10333000F9FC002001F0F6FCA22001F0F3FC0020D3
:1033400001F0F0FCB32001F0EDFC002001F0EAFCFC
:10335000BE2001F0E7FC002001F0E4FCC42001F0F5
:10336000E1FC002001F0DEFCCD2001F0DBFC0020C0
:1033700001F0D8FCD32001F0D5FC002001F0D2FCF4
:10338000DC2001F0CFFC002001F0CCFCF32001F0A8
:10339000C9FC002001F0C6FCE62001F0C9FC1120A8
:1033A00001F0C0FC002001F0BDFC342001F0BAFCAB
:1033B000002001F0B7FC562001F0B4FC002001F021
:1033C000B1FC762001F0AEFC002001F0ABFC7720D0
:1033D00001F0A8FC002001F0A5FC662001F0A2FC91
:1033E000002001F09FFC882001F09CFC002001F0EF
:1033F00099FC992001F096FC002001F093FCBB2081
:1034000001F090FC002001F08DFC992001F08AFC75
:10341000002001F087FC662001F084FC002001F010
:1034200081FC552001F07EFC002001F07BFC552042
:1034300001F078FC002001F075FC452001F072FCE1
:10344000002001F06FFC432001F06CFC002001F033
:1034500069FC442001F066FC002001F063FCE720D9
:1034600001F066FC322001F05DFC002001F05AFC06
:10347000552001F057FC002001F054FC762001F0AB
:1034800051FC002001F04EFC662001F04BFC0020B6
:1034900001F048FC672001F045FC002001F042FCEF
:1034A000672001F03FFC002001F03CFC872001F088
:1034B00039FC002001F036FC992001F033FC00209B
:1034C00001F030FCBB2001F02DFC002001F02AFCB3
:1034D000992001F027FC002001F024FC772001F066
:1034E00021FC002001F01EFC442001F01BFC002008
:1034F00001F018FC562001F015FC002001F012FC30
:10350000232001F00FFC002001F00CFC332001F01F
:1035100009FC002001F006FC452001F003FC00201E
:1035200001F000FCE82001F003FC002001F0FAFBB0
:10353000002001F0F7FB992001F0F4FB002001F0DE
:10354000F1FB872001F0EEFB002001F0EBFB88206F
:1035500001F0E8FB002001F0E5FB772001F0E2FB41
:10356000002001F0DFFB662001F0DCFB002001F011
:10357000D9FB882001F0D6FB002001F0D3FBAA2064
:1035800001F0D0FB002001F0CDFBBB2001F0CAFB15
:10359000002001F0C7FB992001F0C4FB002001F0DE
:1035A000C1FB662001F0BEFB002001F0BBFB5520F3
:1035B00001F0B8FB002001F0B5FB552001F0B2FB93
:1035C000002001F0AFFB442001F0ACFB002001F033
:1035D000A9FB442001F0A6FB002001F0A3FB55202D
:1035E00001F0A0FB002001F09DFBE92001F0A0FB11
:1035F000AA2001F097FB002001F094FB002001F0CD
:1036000091FB002001F08EFB002001F091FBAA202D
:1036100001F088FBCF2001F08BFB002001F082FB42
:10362000002001F07FFB002001F07CFB002001F076
:1036300079FB002001F076FB002001F073FB0020F5
:1036400001F070FB002001F06DFB002001F06AFB2F
:10365000002001F067FB002001F064FB002001F076
:1036600061FB002001F05EFB002001F05BFB00200D
:1036700001F058FB002001F055FB002001F052FB47
:10368000F02001F055FB002001F04CFB502001F030
:1036900049FB002001F046FB002001F043FB002025
:1036A00001F040FBF32001F043FB002001F03AFB66
:1036B000F92001F03DFB062001F034FB102001F061
:1036C00031FB292001F02EFB002001F02BFB3A20DA
:1036D00001F02EFB552001F025FB112001F028FB05
:1036E000642004F075FB292001F022FB352001F055
:1036F0001FFB002001F016FB512001F019FBFF20F9
:1037000001F010FB532001F013FB2C2001F00AFB09
:10371000552001F00DFB822001F004FB2C2001F06C
:1037200007FB01F048B8FE48808845F210518842F6
:103730007ED155214FF4704001F00AFBAA214FF2CF
:10374000010001F005FB52214FF2020001F000FBE5
:1037500008214FF2030001F0FBFA01214FF20400AF
:1037600001F0F6FA0D214FF4304001F0F1FA0D218D
:103770004BF2010001F0ECFA0D214BF2020001F0D6
:10378000E7FA34214FF4364001F0E2FA34214BF2EB
:10379000016001F0DDFA34214BF2026001F0D8FA49
:1037A0000D214FF4314001F0D3FA0D214BF20110FD
:1037B00001F0CEFA0D214BF2021001F0C9FA3421CA
:1037C0004FF4374001F0C4FA34214BF2017001F09C
:1037D000BFFA34214BF2027001F0BAFA00214FF423
:1037E000324001F0B5FA00214BF2012001F0B0FAAD
:1037F00000214BF2022001F0ABFA24214FF43840B3
:1038000001F0A6FA24214BF6010001F0A1FA2421CF
:103810004BF6020001F09CFA01214FF43F4001F009
:1038200097FA0F214FF4334001F092FA0F2100E094
:10383000FEE34BF2013001F08BFA0F214BF2023024
:1038400001F086FA34214FF4394001F081FA342135
:103850004BF6011001F07CFA34214BF6021001F016
:1038600077FA08214FF4354001F072FA08214BF243
:10387000015001F06DFA08214BF2025001F068FA94
:1038800003214FF4424001F063FA24214FF43A40FF
:1038900001F05EFA24214BF6012001F059FA2421AF
:1038A0004BF6022001F054FA00214FF43C4001F0A5
:1038B0004FFA78214BF6014001F04AFA00214BF60D
:1038C000024001F045FA00214FF43D4001F040FA7A
:1038D00078214BF6015001F03BFA00214BF60250E3
:1038E00001F036FA00214FF43E4001F031FA642134
:1038F0004BF6016001F02CFA00214FF4514001F029
:1039000027FA33214DF2011001F022FA00214DF285
:10391000021001F01DFA34214DF2031001F018FAE3
:1039200000214DF2041001F013FA3A214DF2051076
:1039300001F00EFA00214DF2061001F009FA4A21B9
:103940004DF2071001F004FA00214DF2081001F0C9
:10395000FFF95C214DF2091001F0FAF900214DF256
:103960000A1001F0F5F981214DF20B1001F0F0F988
:1039700000214DF20C1001F0EBF9A6214DF20D10D3
:1039800001F0E6F900214DF20E1001F0E1F9E52118
:103990004DF20F1001F0DCF901214DF2101001F091
:1039A000D7F913214DF2111001F0D2F901214DF296
:1039B000121001F0CDF954214DF2131001F0C8F9A5
:1039C00001214DF2141001F0C3F982214DF21510BE
:1039D00001F0BEF901214DF2161001F0B9F9CA212A
:1039E0004DF2171001F0B4F902214DF2181001F058
:1039F000AFF900214DF2191001F0AAF902214DF2A0
:103A00001A1001F0A5F901214DF21B1001F0A0F9E7
:103A100002214DF21C1001F09BF934214DF21D10D2
:103A200001F096F902214DF21E1001F091F9672183
:103A30004DF21F1001F08CF902214DF2201001F01F
:103A400087F984214DF2211001F082F902214DF213
:103A5000221001F07DF9A4214DF2231001F078F934
:103A600002214DF2241001F073F9B7214DF2251017
:103A700001F06EF902214DF2261001F069F9CF2113
:103A80004DF2271001F064F902214DF2281001F0E7
:103A90005FF9DE214DF2291001F05AF902214DF2B1
:103AA0002A1001F055F9F2214DF22B1001F050F9D6
:103AB00002214DF22C1001F04BF9FE214DF22D1098
:103AC00001F046F903214DF22E1001F041F91021C9
:103AD0004DF22F1001F03CF903214DF2301001F0AE
:103AE00037F933214DF2311001F032F903214DF253
:103AF000321001F02DF96D214DF2331001F028F94B
:103B000000214FF4524001F023F933214DF20120FE
:103B100001F01EF900214DF2022001F019F901E037
:103B20004806002034214DF2032001F011F9002154
:103B30004DF2042001F00CF93A214DF2052001F07C
:103B400007F900214DF2062001F002F94A214DF259
:103B5000072001F0FDF800214DF2082001F0F8F8EF
:103B60005C214DF2092001F0F3F800214DF20A200A
:103B700001F0EEF881214DF20B2001F0E9F800216F
:103B80004DF20C2001F0E4F8A6214DF20D2001F0D9
:103B9000DFF800214DF20E2001F0DAF8E5214DF2B8
:103BA0000F2001F0D5F801214DF2102001F0D0F8DE
:103BB00013214DF2112001F0CBF801214DF212201A
:103BC00001F0C6F854214DF2132001F0C1F8012193
:103BD0004DF2142001F0BCF882214DF2152001F0C5
:103BE000B7F801214DF2162001F0B2F8CA214DF2CA
:103BF000172001F0ADF802214DF2182001F0A8F8CD
:103C000000214DF2192001F0A3F802214DF21A20F3
:103C100001F09EF801214DF21B2001F099F80221DC
:103C20004DF21C2001F094F834214DF21D2001F0DA
:103C30008FF802214DF21E2001F08AF867214DF223
:103C40001F2001F085F802214DF2202001F080F8BC
:103C500084214DF2212001F07BF802214DF2222037
:103C600001F076F8A4214DF2232001F071F8022131
:103C70004DF2242001F06CF8B7214DF2252001F01F
:103C800067F802214DF2262001F062F8CF214DF2B3
:103C9000272001F05DF802214DF2282001F058F8AC
:103CA000DE214DF2292001F053F802214DF22A20A5
:103CB00001F04EF8F2214DF22B2001F049F80221DB
:103CC0004DF22C2001F044F8FE214DF22D2001F0A0
:103CD0003FF803214DF22E2001F03AF810214DF269
:103CE0002F2001F035F803214DF2302001F030F89B
:103CF00033214DF2312001F02BF803214DF2322017
:103D000001F026F86D214DF2332001F021F8002159
:103D10004FF4534001F01CF833214DF2013001F013
:103D200017F800214DF2023001F012F834214DF263
:103D3000033001F00DF800214DF2043001F008F8D5
:103D40003A214DF2053001F003F800214DF2063022
:103D500000F0FEFF4A214DF2073000F0F9FF00218C
:103D60004DF2083000F0F4FF5C214DF2093000F014
:103D7000EFFF00214DF20A3000F0EAFF81214DF201
:103D80000B3000F0E5FF00214DF20C3000F0E0FFB9
:103D9000A6214DF20D3000F0DBFF00214DF20E3078
:103DA00000F0D6FFE5214DF20F3000F0D1FF0121E8
:103DB0004DF2103000F0CCFF13214DF2113000F025
:103DC000C7FF01214DF2123000F0C2FF54214DF225
:103DD000133000F0BDFF01214DF2143000F0B8FFA8
:103DE00082214DF2153000F0B3FF01214DF2163063
:103DF00000F0AEFFCA214DF2173000F0A9FF0221FA
:103E00004DF2183000F0A4FF00214DF2193000F0FF
:103E10009FFF02214DF21A3000F09AFF01214DF26E
:103E20001B3000F095FF02214DF21C3000F090FF96
:103E300034214DF21D3000F08BFF02214DF21E3077
:103E400000F086FF67214DF21F3000F081FF022154
:103E50004DF2203000F07CFF84214DF2213000F043
:103E600077FF02214DF2223000F072FFA4214DF2C3
:103E7000233000F06DFF02214DF2243000F068FF86
:103E8000B7214DF2253000F063FF02214DF22630BC
:103E900000F05EFFCF214DF2273000F059FF0221E4
:103EA0004DF2283000F054FFDE214DF2293000F0B1
:103EB0004FFF02214DF22A3000F04AFFF2214DF26D
:103EC0002B3000F045FF02214DF22C3000F040FF76
:103ED000FE214DF22D3000F03BFF03214DF22E303C
:103EE00000F036FF10214DF22F3000F031FF03219A
:103EF0004DF2303000F02CFF33214DF2313000F024
:103F000027FF03214DF2323000F022FF6D214DF2E8
:103F1000333000F01DFF00214FF4544000F018FF33
:103F200033214DF2014000F013FF00214DF2024019
:103F300000F00EFF34214DF2034000F009FF002194
:103F40004DF2044000F004FF3A214DF2054000F02C
:103F5000FFFE00214DF2064000F0FAFE4A214DF22C
:103F6000074000F0F5FE00214DF2084000F0F0FEA1
:103F70005C214DF2094000F0EBFE00214DF20A40B9
:103F800000F0E6FE81214DF20B4000F0E1FE002141
:103F90004DF20C4000F0DCFEA6214DF20D4000F089
:103FA000D7FE00214DF20E4000F0D2FEE5214DF289
:103FB0000F4000F0CDFE01214DF2104000F0C8FE90
:103FC00013214DF2114000F0C3FE01214DF21240C9
:103FD00000F0BEFE54214DF2134000F0B9FE012165
:103FE0004DF2144000F0B4FE82214DF2154000F075
:103FF000AFFE01214DF2164000F0AAFECA214DF29B
:10400000174000F0A5FE02214DF2184000F0A0FE7E
:1040100000214DF2194000F09BFE02214DF21A40A2
:1040200000F096FE01214DF21B4000F091FE00E0F1
:1040300003E302214DF21C4000F08AFE34214DF2D0
:104040001D4000F085FE02214DF21E4000F080FE72
:1040500067214DF21F4000F07BFE02214DF220400F
:1040600000F076FE84214DF2214000F071FE022125
:104070004DF2224000F06CFEA4214DF2234000F0EE
:1040800067FE02214DF2244000F062FEB7214DF29E
:10409000254000F05DFE02214DF2264000F058FE62
:1040A000CF214DF2274000F053FE02214DF228406F
:1040B00000F04EFEDE214DF2294000F049FE0221C3
:1040C0004DF22A4000F044FEF2214DF22B4000F068
:1040D0003FFE02214DF22C4000F03AFEFE214DF24F
:1040E0002D4000F035FE03214DF22E4000F030FE51
:1040F00010214DF22F4000F02BFE03214DF23040F5
:1041000000F026FE33214DF2314000F021FE032164
:104110004DF2324000F01CFE6D214DF2334000F0B4
:1041200017FE00214FF4554000F012FE33214DF2EE
:10413000015000F00DFE00214DF2025000F008FE8B
:1041400034214DF2035000F003FE00214DF20450E3
:1041500000F0FEFD3A214DF2055000F0F9FD00217E
:104160004DF2065000F0F4FD4A214DF2075000F0E8
:10417000EFFD00214DF2085000F0EAFD5C214DF208
:10418000095000F0E5FD00214DF20A5000F0E0FD7D
:1041900081214DF20B5000F0DBFD00214DF20C505F
:1041A00000F0D6FDA6214DF20D5000F0D1FD00210A
:1041B0004DF20E5000F0CCFDE5214DF20F5000F015
:1041C000C7FD01214DF2105000F0C2FD13214DF248
:1041D000115000F0BDFD01214DF2125000F0B8FD6C
:1041E00054214DF2135000F0B3FD01214DF2145053
:1041F00000F0AEFD82214DF2155000F0A9FD012125
:104200004DF2165000F0A4FDCA214DF2175000F0F7
:104210009FFD02214DF2185000F09AFD00214DF251
:10422000195000F095FD02214DF21A5000F090FD5A
:1042300001214DF21B5000F08BFD02214DF21C506C
:1042400000F086FD34214DF21D5000F081FD022169
:104250004DF21E5000F07CFD67214DF21F5000F022
:1042600077FD02214DF2205000F072FD84214DF2C5
:10427000215000F06DFD02214DF2225000F068FD4A
:10428000A4214DF2235000F063FD02214DF2245091
:1042900000F05EFDB7214DF2255000F059FD0221DE
:1042A0004DF2265000F054FDCF214DF2275000F082
:1042B0004FFD02214DF2285000F04AFDDE214DF263
:1042C000295000F045FD02214DF22A5000F040FD3A
:1042D000F2214DF22B5000F03BFD02214DF22C500B
:1042E00000F036FDFE214DF22D5000F031FD03218E
:1042F0004DF22E5000F02CFD10214DF22F5000F009
:1043000027FD03214DF2305000F022FD33214DF204
:10431000315000F01DFD03214DF2325000F018FD28
:104320006D214DF2335000F013FD00214FF4564043
:1043300000F00EFD33214DF2016000F009FD002177
:104340004DF2026000F004FD34214DF2036000F0F4
:10435000FFFC00214DF2046000F0FAFC3A214DF21E
:10436000056000F0F5FC00214DF2066000F0F0FC65
:104370004A214DF2076000F0EBFC00214DF208608D
:1043800000F0E6FC5C214DF2096000F0E1FC002148
:104390004DF20A6000F0DCFC81214DF20B6000F070
:1043A000D7FC00214DF20C6000F0D2FCA6214DF2AA
:1043B0000D6000F0CDFC00214DF20E6000F0C8FC55
:1043C000E5214DF20F6000F0C3FC01214DF21060B9
:1043D00000F0BEFC13214DF2116000F0B9FC012188
:1043E0004DF2126000F0B4FC54214DF2136000F065
:1043F000AFFC01214DF2146000F0AAFC82214DF2C5
:10440000156000F0A5FC01214DF2166000F0A0FC43
:10441000CA214DF2176000F09BFC02214DF218609A
:1044200000F096FC00214DF2196000F091FC022191
:104430004DF21A6000F08CFC01214DF21B6000F07F
:1044400087FC02214DF21C6000F082FC34214DF209
:104450001D6000F07DFC02214DF21E6000F078FC32
:1044600067214DF21F6000F073FC02214DF22060C5
:1044700000F06EFC84214DF2216000F069FC022105
:104480004DF2226000F064FCA4214DF2236000F0A4
:104490005FFC02214DF2246000F05AFCB7214DF27E
:1044A000256000F055FC02214DF2266000F050FC22
:1044B000CF214DF2276000F04BFC02214DF2286025
:1044C00000F046FCDE214DF2296000F041FC0221A3
:1044D0004DF22A6000F03CFCF2214DF22B6000F01E
:1044E00037FC02214DF22C6000F032FCFE214DF22F
:1044F0002D6000F02DFC03214DF22E6000F028FC11
:1045000010214DF22F6000F023FC03214DF23060AA
:1045100000F01EFC33214DF2316000F019FC032144
:104520004DF2326000F014FC6D214DF2336000F06A
:104530000FFC55214FF4704000F00AFCAA214FF205
:10454000010000F005FC52214FF2020000F000FCD7
:1045500008214FF2030000F0FBFB00214FF20400A2
:1045600000F0F6FBCC214FF4314000F0F1FB0021CC
:104570004BF2011000F0ECFB05214FF4364000F047
:10458000E7FB70214FF4374000F0E2FB70214BF263
:10459000017000F0DDFB01214FF4384000F0D8FB42
:1045A00003214BF6010000F0D3FB03214BF6020080
:1045B00000F0CEFB03214BF6030000F0C9FB022103
:1045C0004FF43C4000F0C4FB00214BF6014000F0EA
:1045D000BFFB00214BF6024000F0BAFBD0214FF4A4
:1045E000494000F0B5FB02214CF6011000F0B0FB91
:1045F00050214CF6021000F0ABFB50214CF603109A
:1046000000F0A6FB50214CF6041000F0A1FB0021A5
:104610004FF4545000F09CFB55214FF4685000F0CB
:1046200097FB4FF4885000F083FB782003F0F6FBF3
:104630004FF4245000F07CFBBDE06548808841F6D3
:1046400063118842F8D1E22000F072FB1D2000F0D7
:1046500069FB022000F066FB042000F063FB64208D
:1046600003F0DCFBE02000F063FB012000F05AFBCC
:104670000A2003F0ADFBE02000F05AFB032000F01D
:1046800051FB0C2003F0A4FB012000F051FB0A2099
:1046900003F09EFBE62000F04BFB2F2000F042FBD6
:1046A000FF2000F03FFBFF2000F03CFBB02000F0BB
:1046B0003FFB202000F036FB002000F033FB0320FE
:1046C00000F030FB40F21F3000F02CFB012000F026
:1046D00029FB40F2DF1000F025FB002000F022FB58
:1046E000B42000F025FB042000F01CFB40F21F402A
:1046F00000F018FB002000F015FB2E2000F012FB4C
:10470000002000F00FFB002000F00CFB002000F068
:1047100009FB002000F006FBB62000F009FB022098
:1047200000F000FB4FF4037000F0FCFA002000F0F2
:10473000F9FA172000F0F6FA152000F0F3FA00203D
:1047400000F0F0FA002000F0EDFAF02000F0F0FAAE
:10475000032000F0E7FA292000F0EAFAD02000F068
:10476000E7FA002000F0DEFABE2000F0E1FA0520B2
:1047700000F0D8FAFE2000F0D5FA012000F0D2FABD
:10478000002000F0CFFA002000F0CCFA002000F06A
:10479000C9FAB82000F0CCFA032000F0C3FA0120D7
:1047A00000F0C0FABA2000F0C3FA012000F0BAFA13
:1047B000642000F01BF80020FDF7DCFA0120054919
:1047C00008604FF6FF70FDF78BFA1FB000BD0000C8
:1047D000480600208081214208B5034800880090E7
:1047E000BDF8000008BD00000008006C2DE9F0478E
:1047F0000446BE2000F09CFA052000F093FA204603
:10480000FBF70AFF07464FF066320C4BFBF704FE3E
:104810000546FBF75AFF1FFA80F9484600F082FA76
:10482000012000F07FFAFF2000F07CFA002000F069
:1048300079FA002000F076FABDE8F0876666044059
:1048400070B504460023002689488079012805D1E7
:104850008748808841F66311884208D1844880796E
:10486000F0B98348808841F66311884218D1082C3A
:1048700015D2DFE804F00406080A0C0E1012062414
:104880000DE007240BE0042409E0052407E00124DF
:1048900005E0002403E0032401E0022400BF00BF80
:1048A000082C1CD2DFE804F00406090C0F121518BE
:1048B00000BF14E043F0800311E043F040030EE03A
:1048C00043F0C0030BE043F0200308E043F0600333
:1048D00005E043F0A00302E043F0E00300BF00BFA7
:1048E0006348808845F21051884202D14FF45856EF
:1048F00000E036265E48808849F24131884205D082
:104900005B48808847F28971884201D143F00803EF
:104910001946304600F01CFA5548808841F663116C
:1049200088421DD003F0200068B1514800885049EA
:104930004988884214DA4E48058840884C490880E6
:10494000084645800CE04A48008849494988884221
:1049500006DD474805884088454908800846458067
:104960004348808845F21051884252D140494889D5
:1049700000F0DEF9002000F0D5F93D494989491CD5
:1049800088B200F0D5F9002000F0CCF93849498907
:10499000891C88B200F0CCF935490988491EC1F359
:1049A0000F2000F0BFF932494989C91C88B200F0D4
:1049B000BFF92F490978491EC8B200F0B3F92C4954
:1049C000888900F0B5F9002000F0ACF92849898900
:1049D000491C88B200F0ACF9002000F0A3F924498A
:1049E0008989891C88B200F0A3F921494988491EA8
:1049F000C1F30F2000F096F91D498989C91C88B2BE
:104A000000F096F91A498978491EC8B200F08AF96F
:104A10002DE01749488900F08BF9002000F082F959
:104A2000002000F07FF912490988491EC1F30F20C8
:104A300000F078F90E490978491EC8B200F072F901
:104A40000B49888900F074F9002000F06BF9002010
:104A500000F068F906494988491EC1F30F2000F0AB
:104A600061F903498978491EC8B200F05BF970BD4D
:104A70004806002000B502460B464548808841F6AE
:104A80006311884247D142488079A8B940480088DC
:104A9000401E801A82B23E49488900F049F9002040
:104AA00000F040F9002000F03DF9101200F03AF952
:104AB000D0B200F037F916E03549488900F038F9EE
:104AC000101200F02FF9D0B200F02CF9304909880B
:104AD000491EC1F30F2000F025F92D490978491E20
:104AE000C8B200F01FF92A49888900F021F918128C
:104AF00000F018F9D8B200F015F925494988491E87
:104B0000C1F30F2000F00EF921498978491EC8B27F
:104B100000F008F93AE01E48808845F210518842BA
:104B200020D11B49488900F003F9101200F0FAF86F
:104B300017494989491C88B200F0FAF8D0B200F050
:104B4000F1F81349888900F0F3F8181200F0EAF838
:104B50000F498989491C88B200F0EAF8D8B200F000
:104B6000E1F813E00A49488900F0E2F8101200F079
:104B7000D9F8D0B200F0D6F80549888900F0D8F805
:104B8000181200F0CFF8D8B200F0CCF800BD000049
:104B9000480600202DE9F84F80460E4617461C4671
:104BA000B3462046E31704EB5373DB1021464FEA6C
:104BB000E47C04EB5C7C4FEAEC0CA4EBCC0CBCF189
:104BC000000F02D04FF0010C01E04FF0000C6344E5
:104BD000224604EBD27C4FEA6C0C03FB0CF3DBB2F5
:104BE0000093A7F12000C7B2002556E00C2C07D196
:104BF00007EB47002B4901EB800010F8059013E00C
:104C0000102C05D1284800EB071010F805900BE098
:104C1000182C07D107EBC700244901EB800010F8DE
:104C2000059001E0BDE8F88F4FF0000A2FE009F091
:104C3000800030B11E48028831464046FDF7E8F951
:104C400007E00A9828B91B48028831464046FDF71C
:104C5000DFF94FEA49604FEA1069701C86B21648C6
:104C60004088B04200DCDDE7A6EB0B00A0420AD191
:104C70005E4608F101001FFA80F80F4800884045A1
:104C800000DCCFE706E00AF1010000F0FF0ABAF10C
:104C9000080FCCDB00BF681CC5B200988542A5DBBD
:104CA00000BFBFE7349A0208A89E020898A4020831
:104CB0005200002054000020480600202DE9F8474B
:104CC00004460D4690469946DDE9096704F0FF0A5F
:104CD00008EB04001FFA80F809EB05001FFA80F9C1
:104CE00016E0444502DB5446A81985B24D4500DB69
:104CF00014E0002000903A78334629462046FFF71A
:104D000049FF304606EBD07104EB61018CB27F1C89
:104D100038787E2802DC38782028E2DA00BFBDE847
:104D2000F887000001490880704700000008006C07
:104D30000149088070470000FE07006C02480089A6
:104D4000024908807047000048060020FE07006CFA
:104D5000024A1080921C118070470000FE07006C10
:104D600008B50121482000F0BFF82020ADF8000070
:104D700010208DF8030003208DF8020069460948D1
:104D8000FCF730FD20210748FCF7C2FD2020ADF8DC
:104D9000000069460448FCF725FD20210248FCF785
:104DA000B7FD08BD000C01400018014000BFFEE740
:104DB000704708B54FF4A06000F05CF814208DF83F
:104DC000000001208DF8010000208DF80200012074
:104DD0008DF80300684600F015F808BD08B54FF4DB
:104DE000A06000F047F815208DF8000001208DF834
:104DF00001008DF802008DF80300684600F002F80B
:104E000008BD000070B5002100230F22C47804B350
:104E1000154C246804F4E064C4F5E064210AC1F18F
:104E20000403CA40447804FA03F18478144021430F
:104E300009010E4C0678A155047804F01F050124E1
:104E4000AC4005786D11AD0005F1E025C5F80041D5
:104E500009E0047804F01F050124AC40044D0678F5
:104E6000761145F8264070BD0CED00E000E400E04E
:104E700080E100E002490143024A116070470000EE
:104E80000000FA050CED00E029B1064A5269024320
:104E9000044B5A6104E0034A52698243014B5A6150
:104EA000704700000010024029B1064AD26902434F
:104EB000044BDA6104E0034AD2698243014BDA61B0
:104EC000704700000010024029B1064A12690243EF
:104ED000044B1A6104E0034A12698243014B1A61D0
:104EE000704700000010024029B1064A926902434F
:104EF000044B9A6104E0034A92698243014B9A6130
:104F0000704700000010024030B50021002200244C
:104F100000232D4D6D6805F00C0121B1042905D049
:104F2000082923D105E0294D056022E0274D0560C1
:104F30001FE0254D6D6805F47012234D6D6805F472
:104F40008034022505EB92421CB9214D5543056082
:104F50000BE01D4D6D6805F400351DB11C4D55432A
:104F6000056002E0194D5543056002E0174D0560EC
:104F700000BF00BF144D6D6805F0F0010909154D23
:104F80006B5C0568DD4045600F4D6D6805F4E061C0
:104F9000090A104D6B5C4568DD4085600A4D6D68FF
:104FA00005F46051C90A0B4D6B5C4568DD40C56076
:104FB000054D6D6805F44041890B074D6B5CC56874
:104FC000B5FBF3F5056130BD0010024000127A0018
:104FD00000093D00BE000020CE0000202DE9F04178
:104FE00004460D46164600BF0D48007808B900F08B
:104FF00045FF00BFEFF311800746202080F31188A2
:1050000000BF00BF32462946204600F00BF880461C
:10501000F8B280F3118800BF00BF4046BDE8F081C0
:105020006C5B00202DE9F047074688461646C246CD
:1050300007EB47011B4800EBC109D9F8140020B168
:10504000012811D0022826D11EE0484600F04CFF6E
:105050000546B54201D2002405E0344632465146A9
:10506000484600F088FF18E0484600F03DFF05463E
:10507000B54201D2284600E0304604462246514659
:10508000484600F078FF08E032465146484600F0B6
:1050900039FF044601E0002400BF00BF2046BDE800
:1050A000F0870000845B002010B500F001F810BD0F
:1050B0000CB50020019000903348006840F4803027
:1050C0003149086000BF3048006800F400300090AB
:1050D0000198401C0190009818B90198B0F5A06F94
:1050E000F1D12948006800F4003010B1012000908F
:1050F00001E0002000900098012843D12348006877
:1051000040F01000214908600846006820F00300C4
:1051100008600846006840F0020008601A484068CD
:10512000194948600846406848600846406840F4AD
:10513000806048600846406820F47C10486008465B
:10514000406840F4E81048600846006840F080700D
:10515000086000BF0C48006800F000700028F9D01B
:105160000948406820F00300074948600846406845
:1051700040F00200486000BF0348406800F00C00A7
:105180000828F9D10CBD00000010024000200240A8
:10519000042808D14FF0E021096941F004014FF0E3
:1051A000E022116107E04FF0E021096921F00401DC
:1051B0004FF0E022116170477047000010B51348AE
:1051C000006840F001001149086008464068104935
:1051D00008400E494860084600680E4908400B49DF
:1051E00008600846006820F480200860084640688F
:1051F00020F4FE0048604FF41F008860FFF754FF62
:105200004FF000600449086010BD0000001002402B
:105210000000FFF8FFFFF6FE08ED00E0F0B50C46D9
:10522000154600220021068C4FF6FE773E4006848C
:10523000028B018C4FF60C7632407E1C06EA031678
:105240002E433243104EB0420ED0104EB0420BD01F
:10525000B0F1804F08D00E4EB04205D00D4EB04296
:1052600002D00D4EB04206D14FF6FD76314044F0EB
:105270000106314305E04FF6F576314044F0010672
:10528000314302830184F0BD002C01400034014011
:105290000004004000080040000C0040F0B50C463F
:1052A0001546002200210026078C4FF6EF7C07EA06
:1052B0000C070784028B018C4FF6FF7707EA041670
:1052C00040F6FF473A404FF6FF7707EA03373A4385
:1052D0004FF6FF7707EA05273A43114FB8420ED041
:1052E000104FB8420BD0B0F1804F08D00E4FB842EB
:1052F00005D00E4FB84202D00D4FB84206D14FF63E
:10530000DF77394046F01007394305E04FF65F7705
:10531000394044F01007394302830184F0BD000096
:10532000002C01400034014000040040000800400F
:10533000000C0040F0B50C46154600220021002666
:10534000078C4FF6FF6C07EA0C070784828B018CF1
:105350004FF6FF7707EA04264FF60C773A404FF6F0
:10536000FF7707EA03172F433A43114FB8420ED095
:10537000104FB8420BD0B0F1804F08D00E4FB8425A
:1053800005D00E4FB84202D00D4FB84206D14FF6AD
:10539000FF57394046F48077394305E04FF2FF5715
:1053A000394044F48077394382830184F0BD0000A2
:1053B000002C01400034014000040040000800407F
:1053C000000C0040F0B50C461546002200210026D6
:1053D000078C4EF6FF7C07EA0C070784828B018C52
:1053E0004FF6FF7707EA043640F6FF473A404FF69C
:1053F000FF7707EA05273A434FF6FF7707EA0337B7
:105400003A43114FB8420ED0104FB8420BD0B0F112
:10541000804F08D00E4FB84205D00E4FB84202D090
:105420000D4FB84206D14DF6FF77394046F480570C
:10543000394305E047F6FF57394044F48057394374
:1054400082830184F0BD0000002C01400034014043
:105450000004004000080040000C00407FB50446F6
:105460000D4616460121C802FFF73EFDA0B2ADF879
:105470000800A8B2ADF804000020ADF80A00ADF8AD
:1054800006008DF80C0001A90D4800F007FB012271
:1054900011460B4800F069FA19208DF80000002031
:1054A0008DF8010001208DF802008DF80300684698
:1054B000FFF7A8FCF1B2024800F0B9F97FBD000087
:1054C000002C014010B50121094800F0DDF950B170
:1054D0000848006808B9012000E00020054908607C
:1054E0000120054908600121014800F09DF910BD27
:1054F000002C0140948121423400002010B501218C
:10550000880700F0C1F940B10121880700F08CF94B
:1055100002480068401C0149086010BDA40000203A
:105520007FB506460C46154601210846FFF7BCFC30
:10553000ADF80860ADF804400020ADF80A00ADF801
:10554000060001A94FF0804000F0A8FA01221146A0
:10555000900700F00AFA1C208DF8000000208DF85A
:10556000010002208DF8020001208DF8030068463A
:10557000FFF748FC29464FF0804000F058F97FBD06
:1055800030B589B005460C4601210220FFF78CFC9E
:1055900001210420FFF7A8FC8020ADF8200018208E
:1055A0008DF8230003208DF8220008A91348FCF78A
:1055B00019F9ADF81850ADF814400020ADF81A00F4
:1055C000ADF8160005A90E4800F068FA7020ADF895
:1055D00004000120ADF806000020ADF80C0001A980
:1055E000074800F0CBF90821054800F019FA01211D
:1055F000034800F01CF909B030BD0000000801406C
:105600000004004010B588B0044601210420FFF7D3
:105610004BFC01210820FFF767FC07A8FCF77AF98B
:10562000C020ADF81C0004208DF81F0003208DF869
:105630001E0007A91F48FCF7D5F804A800F080FA5F
:10564000A0B2ADF814000020ADF81000ADF81600BF
:10565000ADF8120004A9184800F020FA0A231A46EF
:105660000321154800F0EFF801A800F075F90F20AC
:10567000ADF80C0001A9104800F018F901221146FC
:105680000D4800F072F91E208DF8000001208DF801
:1056900001008DF802008DF803006846FFF7B2FBA9
:1056A0000021054800F0CBF90121034800F0BFF8C4
:1056B00008B010BD000C01400008004010B50121E9
:1056C000084800F0E1F838B1074801680748006869
:1056D00000F040FA064908600121024800F0A4F8F1
:1056E00010BD000000080040040000200000002061
:1056F000AC00002010B50648008800F0010010B191
:1057000001201FF08FF94FF6FE700149088010BD8F
:10571000100C00407FB505460C4601210820FFF71C
:10572000C3FBADF80850ADF804400020ADF80A0006
:10573000ADF8060001A90E4800F0B0F901221146AB
:105740000B4800F012F932208DF8000000208DF88F
:10575000010003208DF8020001208DF80300684647
:10576000FFF750FB0121024800F061F87FBD000007
:10577000000C004010B501210E4800F085F898B1EA
:105780000D48006808B9012000E000200A490860BF
:105790000A480068FAF74DFF04B22246084801683B
:1057A000084800680BF035F90121024800F03CF888
:1057B00010BD00000010004094012342AC00002006
:1057C0009C050020980500207FB506460C4615462E
:1057D00001211020FFF768FBADF80860ADF8044028
:1057E0000020ADF80A00ADF8060001A90D4800F050
:1057F00055F9012211460B4800F0B7F836208DF814
:10580000000000208DF8010002208DF80200012028
:105810008DF803006846FFF7F5FA2946014800F0C5
:1058200006F87FBD00100040CA430282704721B1D4
:10583000028842F00102028004E002884FF6FE7303
:105840001A4002807047F0B50C4615461E460021EE
:10585000002200230189028B038C4FF6F877394030
:1058600021434FF6FC473A4040F201173A434FF6C6
:10587000DD773B404FF6FF7707EA06172F433B43A0
:10588000018102830384F0BD30B50246002000236D
:105890000024158A05EA0103958905EA010413B17C
:1058A0000CB1012000E0002030BD000070B50546BD
:1058B0000C46244885420ED0234885420BD0B5F1D2
:1058C000804F08D02148854205D02148854202D02A
:1058D0002048854200D100E000BF208850B92389CC
:1058E000A28861882846FFF799FCE188284600F0E5
:1058F000A8F825E0208804280AD12389A288618895
:105900002846FFF7CBFCE188284600F0A3F817E013
:10591000208808280AD12389A28861882846FFF7B1
:1059200009FDE188284600F0A2F809E02389A28851
:1059300061882846FFF746FDE188284600F0A0F878
:1059400070BD0000002C0140003401400004004004
:1059500000080040000C004000210180418001212E
:1059600081800021C180018170471AB183890B4376
:10597000838102E083898B438381704770B5002463
:1059800000220023058C4FF6EF7635400584028C0B
:105990008388048B48F6FF752C404FF6FF452C405A
:1059A0000D884FF6FF7606EA05252C434FF6DF7586
:1059B0002A400D8906EA05152A434D8806EA051591
:1059C0002A43154DA84202D0144DA8421DD14FF6CE
:1059D0007F752A404D894FF6FF7606EA05152A4362
:1059E0004FF6BF752A408D8806EA05152A434FF603
:1059F000FF352B404FF2FF752B408D8906EA850558
:105A00002B43CD8906EA85052B4383800483CD880B
:105A10000587028470BD0000002C01400034014065
:105A20000A460021018B4FF2FF7319404FF6FF73B6
:105A300003EA022319430183704701877047818479
:105A40007047028B4FF6F3731A400283028B0A43AE
:105A500002837047028B4FF2FF331A400283028B9E
:105A60004FF6FF7303EA01231A4302837047828BC8
:105A70004FF6F3731A408283828B0A438283704706
:105A8000828B4FF2FF331A408283828B4FF6FF7373
:105A900003EA01231A438283704700000022028830
:105AA0001D4B98420ED01D4B98420BD0B0F1804F49
:105AB00008D01B4B984205D01A4B984202D01A4B83
:105AC000984204D14FF68F731A404B881A43174BF4
:105AD000984207D0164B984204D04FF6FF431A4025
